{
  "contractName": "SimpleRegistry",
  "abi": [
    {
      "inputs": [],
      "payable": false,
      "stateMutability": "nonpayable",
      "type": "constructor"
    },
    {
      "anonymous": false,
      "inputs": [
        {
          "indexed": false,
          "name": "key",
          "type": "string"
        },
        {
          "indexed": false,
          "name": "index",
          "type": "uint256"
        },
        {
          "indexed": false,
          "name": "owner",
          "type": "address"
        }
      ],
      "name": "AddItem",
      "type": "event"
    },
    {
      "anonymous": false,
      "inputs": [
        {
          "indexed": false,
          "name": "key",
          "type": "string"
        },
        {
          "indexed": false,
          "name": "index",
          "type": "uint256"
        },
        {
          "indexed": false,
          "name": "owner",
          "type": "address"
        }
      ],
      "name": "EditItem",
      "type": "event"
    },
    {
      "anonymous": false,
      "inputs": [
        {
          "indexed": false,
          "name": "key",
          "type": "string"
        },
        {
          "indexed": false,
          "name": "owner",
          "type": "address"
        }
      ],
      "name": "DeleteItem",
      "type": "event"
    },
    {
      "constant": true,
      "inputs": [
        {
          "name": "_key",
          "type": "string"
        }
      ],
      "name": "hasItem",
      "outputs": [
        {
          "name": "_exists",
          "type": "bool"
        }
      ],
      "payable": false,
      "stateMutability": "view",
      "type": "function"
    },
    {
      "constant": true,
      "inputs": [
        {
          "name": "_key",
          "type": "string"
        }
      ],
      "name": "getItem",
      "outputs": [
        {
          "name": "_owner",
          "type": "address"
        },
        {
          "name": "_value",
          "type": "string"
        },
        {
          "name": "blockHistory",
          "type": "uint256[]"
        },
        {
          "name": "_timestamp",
          "type": "uint256"
        }
      ],
      "payable": false,
      "stateMutability": "view",
      "type": "function"
    },
    {
      "constant": true,
      "inputs": [
        {
          "name": "_index",
          "type": "uint256"
        }
      ],
      "name": "getKeyOfIndex",
      "outputs": [
        {
          "name": "_key",
          "type": "string"
        }
      ],
      "payable": false,
      "stateMutability": "view",
      "type": "function"
    },
    {
      "constant": true,
      "inputs": [
        {
          "name": "_index",
          "type": "uint256"
        }
      ],
      "name": "getAtIndex",
      "outputs": [
        {
          "name": "_key",
          "type": "string"
        },
        {
          "name": "_owner",
          "type": "address"
        },
        {
          "name": "_value",
          "type": "string"
        },
        {
          "name": "_blockHistory",
          "type": "uint256[]"
        },
        {
          "name": "_timestamp",
          "type": "uint256"
        }
      ],
      "payable": false,
      "stateMutability": "view",
      "type": "function"
    },
    {
      "constant": true,
      "inputs": [],
      "name": "getItemCount",
      "outputs": [
        {
          "name": "_count",
          "type": "uint256"
        }
      ],
      "payable": false,
      "stateMutability": "view",
      "type": "function"
    },
    {
      "constant": false,
      "inputs": [
        {
          "name": "_key",
          "type": "string"
        },
        {
          "name": "_value",
          "type": "string"
        }
      ],
      "name": "addItem",
      "outputs": [
        {
          "name": "_success",
          "type": "bool"
        }
      ],
      "payable": false,
      "stateMutability": "nonpayable",
      "type": "function"
    },
    {
      "constant": false,
      "inputs": [
        {
          "name": "_key",
          "type": "string"
        },
        {
          "name": "_value",
          "type": "string"
        }
      ],
      "name": "editItem",
      "outputs": [
        {
          "name": "_success",
          "type": "bool"
        }
      ],
      "payable": false,
      "stateMutability": "nonpayable",
      "type": "function"
    },
    {
      "constant": false,
      "inputs": [
        {
          "name": "_key",
          "type": "string"
        }
      ],
      "name": "deleteItem",
      "outputs": [
        {
          "name": "_success",
          "type": "bool"
        }
      ],
      "payable": false,
      "stateMutability": "nonpayable",
      "type": "function"
    }
  ],
  "bytecode": "0x608060405234801561001057600080fd5b50611656806100206000396000f3006080604052600436106100745763ffffffff60e060020a6000350416631b26aafd81146100795780636521f437146100b35780636a192d6a146100e0578063712fac6c146101005780637749cf23146101205780637ed8a71914610142578063b6010fcd14610162578063fc032c5214610192575b600080fd5b34801561008557600080fd5b506100996100943660046111d8565b6101bf565b6040516100aa959493929190611484565b60405180910390f35b3480156100bf57600080fd5b506100d36100ce366004611135565b61037a565b6040516100aa9190611445565b3480156100ec57600080fd5b506100d36100fb366004611171565b610682565b34801561010c57600080fd5b506100d361011b366004611135565b610918565b34801561012c57600080fd5b506101356109ae565b6040516100aa9190611560565b34801561014e57600080fd5b506100d361015d366004611171565b6109b5565b34801561016e57600080fd5b5061018261017d366004611135565b610cb8565b6040516100aa94939291906113f9565b34801561019e57600080fd5b506101b26101ad3660046111d8565b610e65565b6040516100aa9190611453565b6060600060608060008080549050861015156101f95760405160e560020a62461bcd0281526004016101f090611520565b60405180910390fd5b6102a360008781548110151561020b57fe5b600091825260209182902001805460408051601f60026000196101006001871615020190941693909304928301859004850281018501909152818152928301828280156102995780601f1061026e57610100808354040283529160200191610299565b820191906000526020600020905b81548152906001019060200180831161027c57829003601f168201915b5050505050610cb8565b60008054949850929650909450925090879081106102bd57fe5b9060005260206000200184848484848054600181600116156101000203166002900480601f0160208091040260200160405190810160405280929190818152602001828054600181600116156101000203166002900480156103605780601f1061033557610100808354040283529160200191610360565b820191906000526020600020905b81548152906001019060200180831161034357829003601f168201915b505050505094509450945094509450945091939590929450565b600080600033600160a060020a03166001856040518082805190602001908083835b602083106103bb5780518252601f19909201916020918201910161039c565b51815160209384036101000a6000190180199092169116179052920194855250604051938490030190922060010154600160a060020a031692909214915061041a90505760405160e560020a62461bcd0281526004016101f090611550565b6001846040518082805190602001908083835b6020831061044c5780518252601f19909201916020918201910161042d565b51815160209384036101000a60001901801990921691161790529201948552506040519384900381018420548851909650600194899450925082918401908083835b602083106104ad5780518252601f19909201916020918201910161048e565b51815160209384036101000a600019018019909216911617905292019485525060405193849003019092206000808255600182018054600160a060020a031916905590925090506105016002830182610f10565b61050f600383016000610f57565b50600060049190910181905554600019019050808210156106075781600160008381548110151561053c57fe5b9060005260206000200160405180828054600181600116156101000203166002900480156105a15780601f1061057f5761010080835404028352918201916105a1565b820191906000526020600020905b81548152906001019060200180831161058d575b505092835250506040519081900360200190205560008054829081106105c357fe5b906000526020600020016000838154811015156105dc57fe5b906000526020600020019080546001816001161561010002031660029004610605929190610f75565b505b600080548290811061061557fe5b90600052602060002001600061062b9190610f10565b600080549061063e906000198301610ffa565b507f550cd5e798bafe5dfd6a32b42aa834eb157a699a56e2232a7b7b45bcd5b907688433604051610670929190611464565b60405180910390a15060019392505050565b600033600160a060020a03166001846040518082805190602001908083835b602083106106c05780518252601f1990920191602091820191016106a1565b51815160209384036101000a6000190180199092169116179052920194855250604051938490030190922060010154600160a060020a031692909214915061071f90505760405160e560020a62461bcd0281526004016101f090611530565b426001846040518082805190602001908083835b602083106107525780518252601f199092019160209182019101610733565b51815160209384036101000a6000190180199092169116179052920194855250604051938490038101842060040194909455505084518492600192879290918291908401908083835b602083106107ba5780518252601f19909201916020918201910161079b565b51815160209384036101000a600019018019909216911617905292019485525060405193849003810190932084516107ff956002909201949190910192509050611023565b506001836040518082805190602001908083835b602083106108325780518252601f199092019160209182019101610813565b51815160209384036101000a600019018019909216911617905292019485525060405193849003810184206003018054600180820183556000928352918390204391015587517f25786f3fdf6fd4a6da97daddf22e5a247ca664b4540c0a42b0f7597b7edfa4679589955091935084928291908401908083835b602083106108cb5780518252601f1990920191602091820191016108ac565b51815160209384036101000a6000190180199092169116179052920194855250604051938490030183205461090694939092503391506114e3565b60405180910390a15060015b92915050565b60008054151561092a575060006109a9565b6000600160a060020a03166001836040518082805190602001908083835b602083106109675780518252601f199092019160209182019101610948565b51815160209384036101000a6000190180199092169116179052920194855250604051938490030190922060010154600160a060020a03169290921415925050505b919050565b6000545b90565b60006109c083610918565b156109e05760405160e560020a62461bcd0281526004016101f090611540565b336001846040518082805190602001908083835b60208310610a135780518252601f1990920191602091820191016109f4565b51815160209384036101000a6000190180199092169116179052920194855250604051938490038101842060019081018054600160a060020a031916600160a060020a0397909716969096179095558751429594899450925082918401908083835b60208310610a945780518252601f199092019160209182019101610a75565b51815160209384036101000a6000190180199092169116179052920194855250604051938490038101842060040194909455505084518492600192879290918291908401908083835b60208310610afc5780518252601f199092019160209182019101610add565b51815160209384036101000a60001901801990921691161790529201948552506040519384900381019093208451610b41956002909201949190910192509050611023565b5060005460405184516001918691819060208401908083835b60208310610b795780518252601f199092019160209182019101610b5a565b51815160209384036101000a60001901801990921691161790529201948552506040519384900381018420949094555050845160019286929182918401908083835b60208310610bda5780518252601f199092019160209182019101610bbb565b51815160209384036101000a6000190180199092169116179052920194855250604051938490038101909320600301805460018082018355600092835285832043920191909155815490810180835591805287519194610c6394507f290decd9548b62a8d60345a988386fc84ba6bc95484008f6362f93160ef3e5639091019250870190611023565b50507f6cd3677267cf3988b4658f076d0b0ab41b94f04f4deaf29f569bfe7e3e7d7a1183600185604051808280519060200190808383602083106108cb5780518252601f1990920191602091820191016108ac565b60006060806000806001866040518082805190602001908083835b60208310610cf25780518252601f199092019160209182019101610cd3565b51815160209384036101000a600019018019909216911617905292019485525060405193849003019092206001810154909350600160a060020a031615159150610d5390505760405160e560020a62461bcd0281526004016101f090611510565b600180820154600483015460028085018054604080516020601f600019998516156101000299909901909316949094049687018290048202840182019052858352600160a060020a03909416949093600387019392918591830182828015610dfc5780601f10610dd157610100808354040283529160200191610dfc565b820191906000526020600020905b815481529060010190602001808311610ddf57829003601f168201915b5050505050925081805480602002602001604051908101604052809291908181526020018280548015610e4e57602002820191906000526020600020905b815481526020019060010190808311610e3a575b505050505091509450945094509450509193509193565b6060600082815481101515610e7657fe5b600091825260209182902001805460408051601f6002600019610100600187161502019094169390930492830185900485028101850190915281815292830182828015610f045780601f10610ed957610100808354040283529160200191610f04565b820191906000526020600020905b815481529060010190602001808311610ee757829003601f168201915b50505050509050919050565b50805460018160011615610100020316600290046000825580601f10610f365750610f54565b601f016020900490600052602060002090810190610f549190611091565b50565b5080546000825590600052602060002090810190610f549190611091565b828054600181600116156101000203166002900490600052602060002090601f016020900481019282601f10610fae5780548555610fea565b82800160010185558215610fea57600052602060002091601f016020900482015b82811115610fea578254825591600101919060010190610fcf565b50610ff6929150611091565b5090565b81548183558181111561101e5760008381526020902061101e9181019083016110ab565b505050565b828054600181600116156101000203166002900490600052602060002090601f016020900481019282601f1061106457805160ff1916838001178555610fea565b82800160010185558215610fea579182015b82811115610fea578251825591602001919060010190611076565b6109b291905b80821115610ff65760008155600101611097565b6109b291905b80821115610ff65760006110c58282610f10565b506001016110b1565b6000601f820183136110df57600080fd5b81356110f26110ed82611594565b61156e565b9150808252602083016020830185838301111561110e57600080fd5b6111198382846115d6565b50505092915050565b600061112e82356109b2565b9392505050565b60006020828403121561114757600080fd5b81356001604060020a0381111561115d57600080fd5b611169848285016110ce565b949350505050565b6000806040838503121561118457600080fd5b82356001604060020a0381111561119a57600080fd5b6111a6858286016110ce565b92505060208301356001604060020a038111156111c257600080fd5b6111ce858286016110ce565b9150509250929050565b6000602082840312156111ea57600080fd5b60006111698484611122565b6111ff816115c5565b82525050565b6000611210826115c1565b808452602084019350611222836115bb565b60005b82811015611252576112388683516113f0565b611241826115bb565b602096909601959150600101611225565b5093949350505050565b6111ff816115d1565b6000611270826115c1565b8084526112848160208601602086016115e2565b61128d81611612565b9093016020019392505050565b602181527f4974656d206d757374206861766520616e206f776e65722061737369676e6564602082015260f960020a601702604082015260600190565b604381527f496e646578206d757374206265206c657373207468616e20746865206375727260208201527f656e7420636f756e74206f66206974656d7320696e2074686520726567697374604082015260e960020a62393c9702606082015260800190565b602581527f53656e646572206f662065646974206d757374206265206f776e6572206f6620602082015260d960020a6434ba32b69702604082015260600190565b601c81527f4974656d206d757374206e6f7420616c72656164792065786973742e00000000602082015260400190565b602781527f53656e646572206f662064656c657465206d757374206265206f776e6572206f602082015260c960020a66331034ba32b69702604082015260600190565b6111ff816109b2565b6080810161140782876111f6565b81810360208301526114198186611265565b9050818103604083015261142d8185611205565b905061143c60608301846113f0565b95945050505050565b60208101610912828461125c565b6020808252810161112e8184611265565b604080825281016114758185611265565b905061112e60208301846111f6565b60a080825281016114958188611265565b90506114a460208301876111f6565b81810360408301526114b68186611265565b905081810360608301526114ca8185611205565b90506114d960808301846113f0565b9695505050505050565b606080825281016114f48186611265565b905061150360208301856113f0565b61116960408301846111f6565b602080825281016109128161129a565b60208082528101610912816112d7565b602080825281016109128161133c565b602080825281016109128161137d565b60208082528101610912816113ad565b6020810161091282846113f0565b6040518181016001604060020a038111828210171561158c57600080fd5b604052919050565b60006001604060020a038211156115aa57600080fd5b506020601f91909101601f19160190565b60200190565b5190565b600160a060020a031690565b151590565b82818337506000910152565b60005b838110156115fd5781810151838201526020016115e5565b8381111561160c576000848401525b50505050565b601f01601f1916905600a265627a7a723058200c7111b11b35bcfff344b2405efdd220406ceefc2e492ec8fded3d6b06bb281f6c6578706572696d656e74616cf50037",
  "source": "pragma solidity ^0.4.23;\npragma experimental ABIEncoderV2;\n\nimport \"../interfaces/IKeyStore.sol\"; \n\n\n/**\n@title Simple entity registry.\n@author Entity protocol.\n*/\ncontract SimpleRegistry is IBaseKeyStore {\n    /**\n    @dev Inner storage item for entities.\n    */\n    struct RegistryItem { \n        uint index;\n        address owner; \n        string value;\n        uint[] blockHistory;\n        uint timestamp;\n    }\n\n    string[] internal itemIndex; \n    mapping(string => RegistryItem) internal items;\n\n    /**\n    @notice Event raised when a new item is added to the registry. \n    @param key Key of the item.\n    @param index Absolute index of the newly added item. \n    @param owner Owning address of the item.\n    */\n    event AddItem(string key, uint index, address owner);\n\n    /**\n    @notice Event raised when an item is edited in the registry. \n    @param key Key of the item.\n    @param index Absolute index of the edited item. \n    @param owner Owning address of the item.\n    */\n    event EditItem(string key, uint index,  address owner);\n\n    /**\n    @notice Event raised when an item is deleted from the registry.\n    @param key Key of the item.\n    @param owner Owning address of the item.\n    */\n    event DeleteItem(string key, address owner);\n\n    /**\n    @notice Constructor for SimpleRegistry.\n    */\n    constructor() public {\n    }\n\n    /**\n    @notice Checks if an item with the specified key \"`_key`\" exists.\n    @param _key Key of item to check.\n    @return _exists True if the item exists, otherwise false.\n    */\n    function hasItem(string _key) public view returns (bool _exists) { \n        if (itemIndex.length == 0) {\n            return false; \n        }\n\n        return items[_key].owner != address(0);\n    }\n\n    /**\n    @notice Get the item content of the specified key \"`_key`\".\n    @param _key Key of item to get.\n    @return _owner Owning address of the item.\n    @return _value Content of the item.\n    @return _timestamp Timestamp of the item. \n    */\n    function getItem(string _key)\n        public\n        view\n        returns (\n            address _owner,\n            string _value,\n            uint[] blockHistory,\n            uint _timestamp\n        )\n    {\n        RegistryItem storage item = items[_key];\n        require(item.owner != address(0), \"Item must have an owner assigned.\");\n\n        return (item.owner, item.value, item.blockHistory, item.timestamp);\n    }\n\n    /**\n    @notice Gets the key of the item at the specified index.\n    @param _index index to get.\n    @return _key Key at index, if any.\n    */\n    function getKeyOfIndex(uint _index) public view returns (string _key) {\n        return itemIndex[_index];\n    }\n\n    /*\n    NOTE: Web3 does not support struct returns.\n    function getRegistryItem(string _key) public view returns (RegistryItem) { \n        RegistryItem storage item = items[_key];\n        require(item.owner != address(0));\n\n        return item; \n    }\n    */\n\n    /**\n    @notice Get the item content of the specified index `_index`.\n    @param _index Index of the item to get.\n    @return _key Item key.\n    @return _owner Owning address of the item.\n    @return _value Content of the item.\n    @return _timestamp Timestamp of the item. \n    */\n    function getAtIndex(uint _index)\n        public\n        view\n        returns (\n            string _key,\n            address _owner,\n            string _value,\n            uint[] _blockHistory,\n            uint _timestamp\n        )\n    {\n        require(_index < itemIndex.length, \"Index must be less than the current count of items in the registry.\");\n\n        (_owner, _value, _blockHistory, _timestamp) = getItem(itemIndex[_index]);\n\n        return (itemIndex[_index], _owner, _value, _blockHistory, _timestamp);\n    }\n\n    /*\n    NOTE: Web3 does not support struct returns.\n    function getItemAtIndex(uint _index) public view returns (RegistryItem item) { \n        require(_index < itemIndex.length);\n        return items[itemIndex[_index]];\n    }\n    */\n\n    /**\n    @notice Gets the total count of items in the registy.\n    @return _count Count of items in the registry.\n    */\n    function getItemCount() public view returns (uint _count) { \n        return itemIndex.length;\n    }\n\n    /**\n    @notice Adds an item to the registry. Will fail if an item of the same key\n    \"`_key`\" already exists in the registry. \n    @dev This is designed to be overriden in derived contracts.\n    @param _key Item key.\n    @param _value Item value.\n    @return _success True if successful, otherwise false.\n    */\n    function addItem(string _key, string _value) public returns (bool _success) { \n        // TODO: Consider making internal?\n        require(!hasItem(_key), \"Item must not already exist.\");\n\n        items[_key].owner = msg.sender;\n        items[_key].timestamp = block.timestamp;\n        items[_key].value = _value;\n        items[_key].index = itemIndex.length; \n        items[_key].blockHistory.push(block.number); // record initial block created\n\n        itemIndex.push(_key);\n        \n        emit AddItem(_key, items[_key].index, msg.sender);\n        return true;\n    }\n\n    /**\n    @notice Edits an existing item within the registry. Will fail if an item\n    of \"`_key`\" does not exist, and `message.caller.address()` is not marked\n    as the owner of the item.\n    @param _key Key of item to edit.\n    @param _value New content for the item. \n    @return _success True if successful, otherwise false. \n    */\n    function editItem(string _key, string _value) public returns (bool _success) { \n        // TODO: Consider making internal?        \n        require(items[_key].owner == msg.sender, \"Sender of edit must be owner of item.\");\n        \n        items[_key].timestamp = block.timestamp;\n        items[_key].value = _value;\n        items[_key].blockHistory.push(block.number);\n\n        emit EditItem(_key, items[_key].index, msg.sender);\n        return true; \n    }\n\n    /**\n    @notice Deletes an existing item from the registry. Will fail if an item\n    of \"`_key`\" exists, and `message.caller.address()` is not marked as the owner \n    of the item.\n    @param _key Key of item to edit.\n    @return _success True if successful, otherwise false. \n    */\n    function deleteItem(string _key) public returns (bool _success) {\n        // TODO: Consider making internal?        \n        require(items[_key].owner == msg.sender, \"Sender of delete must be owner of item.\");\n\n        uint itemIdx = items[_key].index;\n\n        // Delete from mapping \n        delete items[_key];\n\n        // If it's the last item we don't need to do a swap\n        // If it's not the last item, swap the last item into the item being deleted\n        uint tail = itemIndex.length - 1;\n\n        if (itemIdx < tail) {\n            items[itemIndex[tail]].index = itemIdx;\n            itemIndex[itemIdx] = itemIndex[tail];\n        }\n        \n        delete itemIndex[tail];\n        itemIndex.length--;\n\n        // TODO\n        emit DeleteItem(_key, msg.sender);\n        return true;\n    }\n\n    function _transferItem(string _key, address _owner, string _newValue) internal returns (bool _success) { \n        require(hasItem(_key), \"Item must exist for transfer.\");\n        require(_owner != address(0), \"New owner address must be non zero.\");\n\n        items[_key].owner = _owner;\n        items[_key].timestamp = block.timestamp;\n        items[_key].value = _newValue;\n        items[_key].blockHistory.push(block.number);\n\n        return true;\n    }\n}\n",
  "sourcePath": "/Users/iamwil/projects/freelance/entity_protocol/Contracts/packages/contracts/contracts/registry/SimpleRegistry.sol",
  "compiler": {
    "name": "solc",
    "version": "0.4.23+commit.124ca40d.Emscripten.clang"
  },
  "schemaVersion": "2.0.0",
  "updatedAt": "2018-05-22T23:46:40.252Z"
}