{
  "contractName": "StakableRegistry",
  "abi": [
    {
      "constant": true,
      "inputs": [
        {
          "name": "_index",
          "type": "uint256"
        }
      ],
      "name": "getAtIndex",
      "outputs": [
        {
          "name": "_key",
          "type": "string"
        },
        {
          "name": "_owner",
          "type": "address"
        },
        {
          "name": "_value",
          "type": "string"
        },
        {
          "name": "_blockHistory",
          "type": "uint256[]"
        },
        {
          "name": "_timestamp",
          "type": "uint256"
        }
      ],
      "payable": false,
      "stateMutability": "view",
      "type": "function"
    },
    {
      "constant": false,
      "inputs": [
        {
          "name": "_key",
          "type": "string"
        },
        {
          "name": "_value",
          "type": "string"
        }
      ],
      "name": "editItem",
      "outputs": [
        {
          "name": "_success",
          "type": "bool"
        }
      ],
      "payable": false,
      "stateMutability": "nonpayable",
      "type": "function"
    },
    {
      "constant": true,
      "inputs": [
        {
          "name": "_key",
          "type": "string"
        }
      ],
      "name": "hasItem",
      "outputs": [
        {
          "name": "_exists",
          "type": "bool"
        }
      ],
      "payable": false,
      "stateMutability": "view",
      "type": "function"
    },
    {
      "constant": true,
      "inputs": [],
      "name": "getItemCount",
      "outputs": [
        {
          "name": "_count",
          "type": "uint256"
        }
      ],
      "payable": false,
      "stateMutability": "view",
      "type": "function"
    },
    {
      "constant": true,
      "inputs": [],
      "name": "tokenAddress",
      "outputs": [
        {
          "name": "",
          "type": "address"
        }
      ],
      "payable": false,
      "stateMutability": "view",
      "type": "function"
    },
    {
      "constant": true,
      "inputs": [],
      "name": "minStakeValue",
      "outputs": [
        {
          "name": "",
          "type": "uint256"
        }
      ],
      "payable": false,
      "stateMutability": "view",
      "type": "function"
    },
    {
      "constant": true,
      "inputs": [
        {
          "name": "_key",
          "type": "string"
        }
      ],
      "name": "getItem",
      "outputs": [
        {
          "name": "_owner",
          "type": "address"
        },
        {
          "name": "_value",
          "type": "string"
        },
        {
          "name": "blockHistory",
          "type": "uint256[]"
        },
        {
          "name": "_timestamp",
          "type": "uint256"
        }
      ],
      "payable": false,
      "stateMutability": "view",
      "type": "function"
    },
    {
      "constant": true,
      "inputs": [
        {
          "name": "_address",
          "type": "address"
        }
      ],
      "name": "depositBalanceOf",
      "outputs": [
        {
          "name": "_value",
          "type": "uint256"
        }
      ],
      "payable": false,
      "stateMutability": "view",
      "type": "function"
    },
    {
      "constant": true,
      "inputs": [
        {
          "name": "_index",
          "type": "uint256"
        }
      ],
      "name": "getKeyOfIndex",
      "outputs": [
        {
          "name": "_key",
          "type": "string"
        }
      ],
      "payable": false,
      "stateMutability": "view",
      "type": "function"
    },
    {
      "inputs": [
        {
          "name": "_parametersAddress",
          "type": "address"
        },
        {
          "name": "_minStakeValue",
          "type": "uint256"
        }
      ],
      "payable": false,
      "stateMutability": "nonpayable",
      "type": "constructor"
    },
    {
      "anonymous": false,
      "inputs": [
        {
          "indexed": false,
          "name": "owner",
          "type": "address"
        },
        {
          "indexed": false,
          "name": "value",
          "type": "uint256"
        },
        {
          "indexed": false,
          "name": "currentDeposit",
          "type": "uint256"
        }
      ],
      "name": "Deposited",
      "type": "event"
    },
    {
      "anonymous": false,
      "inputs": [
        {
          "indexed": false,
          "name": "owner",
          "type": "address"
        },
        {
          "indexed": false,
          "name": "value",
          "type": "uint256"
        },
        {
          "indexed": false,
          "name": "currentDeposit",
          "type": "uint256"
        }
      ],
      "name": "Attributed",
      "type": "event"
    },
    {
      "anonymous": false,
      "inputs": [
        {
          "indexed": false,
          "name": "owner",
          "type": "address"
        },
        {
          "indexed": false,
          "name": "value",
          "type": "uint256"
        },
        {
          "indexed": false,
          "name": "currentDeposit",
          "type": "uint256"
        }
      ],
      "name": "Withdraw",
      "type": "event"
    },
    {
      "anonymous": false,
      "inputs": [
        {
          "indexed": false,
          "name": "from",
          "type": "address"
        },
        {
          "indexed": false,
          "name": "to",
          "type": "address"
        },
        {
          "indexed": false,
          "name": "value",
          "type": "uint256"
        },
        {
          "indexed": false,
          "name": "fromCurrentDeposit",
          "type": "uint256"
        },
        {
          "indexed": false,
          "name": "toCurrentDeposit",
          "type": "uint256"
        }
      ],
      "name": "Transfer",
      "type": "event"
    },
    {
      "anonymous": false,
      "inputs": [
        {
          "indexed": false,
          "name": "key",
          "type": "string"
        },
        {
          "indexed": false,
          "name": "index",
          "type": "uint256"
        },
        {
          "indexed": false,
          "name": "owner",
          "type": "address"
        }
      ],
      "name": "AddItem",
      "type": "event"
    },
    {
      "anonymous": false,
      "inputs": [
        {
          "indexed": false,
          "name": "key",
          "type": "string"
        },
        {
          "indexed": false,
          "name": "index",
          "type": "uint256"
        },
        {
          "indexed": false,
          "name": "owner",
          "type": "address"
        }
      ],
      "name": "EditItem",
      "type": "event"
    },
    {
      "anonymous": false,
      "inputs": [
        {
          "indexed": false,
          "name": "key",
          "type": "string"
        },
        {
          "indexed": false,
          "name": "owner",
          "type": "address"
        }
      ],
      "name": "DeleteItem",
      "type": "event"
    },
    {
      "constant": true,
      "inputs": [
        {
          "name": "_key",
          "type": "string"
        }
      ],
      "name": "getItemStake",
      "outputs": [
        {
          "name": "_stakeValue",
          "type": "uint256"
        }
      ],
      "payable": false,
      "stateMutability": "view",
      "type": "function"
    },
    {
      "constant": true,
      "inputs": [
        {
          "name": "_key",
          "type": "string"
        }
      ],
      "name": "getItemWithStake",
      "outputs": [
        {
          "name": "_owner",
          "type": "address"
        },
        {
          "name": "_value",
          "type": "string"
        },
        {
          "name": "_blockHistory",
          "type": "uint256[]"
        },
        {
          "name": "_timestamp",
          "type": "uint256"
        },
        {
          "name": "_stake",
          "type": "uint256"
        }
      ],
      "payable": false,
      "stateMutability": "view",
      "type": "function"
    },
    {
      "constant": true,
      "inputs": [
        {
          "name": "_index",
          "type": "uint256"
        }
      ],
      "name": "getAtIndexWithStake",
      "outputs": [
        {
          "name": "_key",
          "type": "string"
        },
        {
          "name": "_owner",
          "type": "address"
        },
        {
          "name": "_value",
          "type": "string"
        },
        {
          "name": "_blockHistory",
          "type": "uint256[]"
        },
        {
          "name": "_timestamp",
          "type": "uint256"
        },
        {
          "name": "_stake",
          "type": "uint256"
        }
      ],
      "payable": false,
      "stateMutability": "view",
      "type": "function"
    },
    {
      "constant": false,
      "inputs": [
        {
          "name": "_key",
          "type": "string"
        },
        {
          "name": "_value",
          "type": "string"
        },
        {
          "name": "_stake",
          "type": "uint256"
        }
      ],
      "name": "addItem",
      "outputs": [
        {
          "name": "_success",
          "type": "bool"
        }
      ],
      "payable": false,
      "stateMutability": "nonpayable",
      "type": "function"
    },
    {
      "constant": false,
      "inputs": [
        {
          "name": "_key",
          "type": "string"
        },
        {
          "name": "_value",
          "type": "string"
        }
      ],
      "name": "addItem",
      "outputs": [
        {
          "name": "_success",
          "type": "bool"
        }
      ],
      "payable": false,
      "stateMutability": "nonpayable",
      "type": "function"
    },
    {
      "constant": false,
      "inputs": [
        {
          "name": "_key",
          "type": "string"
        }
      ],
      "name": "deleteItem",
      "outputs": [
        {
          "name": "_success",
          "type": "bool"
        }
      ],
      "payable": false,
      "stateMutability": "nonpayable",
      "type": "function"
    },
    {
      "constant": false,
      "inputs": [
        {
          "name": "_key",
          "type": "string"
        },
        {
          "name": "_newOwner",
          "type": "address"
        },
        {
          "name": "_newValue",
          "type": "string"
        },
        {
          "name": "_newStake",
          "type": "uint256"
        }
      ],
      "name": "_transferItem",
      "outputs": [
        {
          "name": "_success",
          "type": "bool"
        }
      ],
      "payable": false,
      "stateMutability": "nonpayable",
      "type": "function"
    }
  ],
  "bytecode": "0x60806040523480156200001157600080fd5b5060405160408062002edd83398101806040526200003391908101906200028c565b6040517f791b6d60000000000000000000000000000000000000000000000000000000008152600160a060020a0383169063791b6d60906200007890600401620003ea565b602060405180830381600087803b1580156200009357600080fd5b505af1158015620000a8573d6000803e3d6000fd5b505050506040513d601f19601f82011682018060405250620000ce919081019062000263565b620000e28164010000000062000152810204565b60028054600160a060020a031916600160a060020a03929092169190911790556000811162000148576040517f08c379a00000000000000000000000000000000000000000000000000000000081526004016200013f9062000411565b60405180910390fd5b6005555062000432565b6000600160a060020a038216151562000199576040517f08c379a00000000000000000000000000000000000000000000000000000000081526004016200013f90620003d2565b819050600081600160a060020a03166318160ddd6040518163ffffffff167c0100000000000000000000000000000000000000000000000000000000028152600401602060405180830381600087803b158015620001f657600080fd5b505af11580156200020b573d6000803e3d6000fd5b505050506040513d601f19601f82011682018060405250620002319190810190620002cb565b116200023c57600080fd5b5050565b60006200024e825162000423565b9392505050565b60006200024e82516200042f565b6000602082840312156200027657600080fd5b600062000284848462000240565b949350505050565b60008060408385031215620002a057600080fd5b6000620002ae858562000240565b9250506020620002c18582860162000255565b9150509250929050565b600060208284031215620002de57600080fd5b600062000284848462000255565b602881527f546f6b656e20636f6e74726163742061646472657373206d757374206265206e60208201527f6f6e207a65726f2e000000000000000000000000000000000000000000000000604082015260600190565b600481527f434f524500000000000000000000000000000000000000000000000000000000602082015260400190565b600581527f544f4b454e000000000000000000000000000000000000000000000000000000602082015260400190565b601f81527f4d696e696d756d207374616b65206d757374206265206e6f6e207a65726f2e00602082015260400190565b60208082528101620003e481620002ec565b92915050565b60408082528101620003fc8162000342565b90508181036020830152620003e48162000372565b60208082528101620003e481620003a2565b600160a060020a031690565b90565b612a9b80620004426000396000f3006080604052600436106100cc5763ffffffff60e060020a6000350416631b26aafd81146100d15780631fe62fe21461010b5780632c9c5e5e1461013857806345e6f2271461016a57806364432eb8146101975780636521f437146101b75780636a192d6a146101d7578063712fac6c146101f75780637749cf23146102175780637ed8a7191461022c5780639d76ea581461024c578063a8d6e68e1461026e578063b6010fcd14610283578063d2e40f1b146102b3578063fba13bd0146102e4578063fc032c5214610304575b600080fd5b3480156100dd57600080fd5b506100f16100ec366004611fda565b610331565b604051610102959493929190612756565b60405180910390f35b34801561011757600080fd5b5061012b610126366004611e6b565b6104ec565b6040516101029190612717565b34801561014457600080fd5b50610158610153366004611fda565b610614565b604051610102969594939291906127ab565b34801561017657600080fd5b5061018a610185366004611e37565b610647565b6040516101029190612985565b3480156101a357600080fd5b5061012b6101b2366004611f60565b6106b1565b3480156101c357600080fd5b5061012b6101d2366004611e37565b610814565b3480156101e357600080fd5b5061012b6101f2366004611ef9565b6109cb565b34801561020357600080fd5b5061012b610212366004611e37565b610c61565b34801561022357600080fd5b5061018a610cf5565b34801561023857600080fd5b5061012b610247366004611ef9565b610cfc565b34801561025857600080fd5b50610261610fff565b6040516101029190612605565b34801561027a57600080fd5b5061018a61100e565b34801561028f57600080fd5b506102a361029e366004611e37565b611014565b604051610102949392919061263b565b3480156102bf57600080fd5b506102d36102ce366004611e37565b6111c1565b604051610102959493929190612687565b3480156102f057600080fd5b5061018a6102ff366004611dfb565b6111f0565b34801561031057600080fd5b5061032461031f366004611fda565b61120b565b6040516101029190612725565b60606000606080600080805490508610151561036b5760405160e560020a62461bcd02815260040161036290612875565b60405180910390fd5b61041560008781548110151561037d57fe5b600091825260209182902001805460408051601f600260001961010060018716150201909416939093049283018590048502810185019091528181529283018282801561040b5780601f106103e05761010080835404028352916020019161040b565b820191906000526020600020905b8154815290600101906020018083116103ee57829003601f168201915b5050505050611014565b600080549498509296509094509250908790811061042f57fe5b9060005260206000200184848484848054600181600116156101000203166002900480601f0160208091040260200160405190810160405280929190818152602001828054600181600116156101000203166002900480156104d25780601f106104a7576101008083540402835291602001916104d2565b820191906000526020600020905b8154815290600101906020018083116104b557829003601f168201915b505050505094509450945094509450945091939590929450565b60006006856040518082805190602001908083835b602083106105205780518252601f199092019160209182019101610501565b51815160209384036101000a600019018019909216911617905292019485525060405193849003019092206001015460ff161515915061057790505760405160e560020a62461bcd02815260040161036290612895565b6105828585856112b6565b15156105a35760405160e560020a62461bcd02815260040161036290612975565b816006866040518082805190602001908083835b602083106105d65780518252601f1990920191602091820191016105b7565b51815160209384036101000a60001901801990921691161790529201948552506040519384900301909220929092555060019150505b949350505050565b6060600060608060008061062787610331565b93995091975095509350915061063c86610647565b905091939550919395565b60006006826040518082805190602001908083835b6020831061067b5780518252601f19909201916020918201910161065c565b51815160209384036101000a6000190180199092169116179052920194855250604051938490030190922054925050505b919050565b6005546000908210156106d95760405160e560020a62461bcd028152600401610362906128f5565b6106e2826114f1565b15156107035760405160e560020a62461bcd02815260040161036290612925565b61070d8484610cfc565b151561072e5760405160e560020a62461bcd028152600401610362906128e5565b816006856040518082805190602001908083835b602083106107615780518252601f199092019160209182019101610742565b51815160209384036101000a600019018019909216911617905292019485525060405193849003810184209490945550508551600192600692889290918291908401908083835b602083106107c75780518252601f1990920191602091820191016107a8565b51815160209384036101000a600019018019909216911617905292019485525060405193849003019092206001908101805460ff19169415159490941790935550909150505b9392505050565b60006006826040518082805190602001908083835b602083106108485780518252601f199092019160209182019101610829565b51815160209384036101000a600019018019909216911617905292019485525060405193849003019092206001015460ff161515915061089f90505760405160e560020a62461bcd02815260040161036290612965565b6108a8826116a8565b15156108c95760405160e560020a62461bcd028152600401610362906128b5565b610934336006846040518082805190602001908083835b602083106108ff5780518252601f1990920191602091820191016108e0565b51815160209384036101000a600019018019909216911617905292019485525060405193849003019092205491506119b09050565b15156109555760405160e560020a62461bcd028152600401610362906128d5565b6006826040518082805190602001908083835b602083106109875780518252601f199092019160209182019101610968565b51815160209384036101000a60001901801990921691161790529201948552506040519384900301909220600081556001908101805460ff19169055949350505050565b600033600160a060020a03166001846040518082805190602001908083835b60208310610a095780518252601f1990920191602091820191016109ea565b51815160209384036101000a6000190180199092169116179052920194855250604051938490030190922060010154600160a060020a0316929092149150610a6890505760405160e560020a62461bcd02815260040161036290612885565b426001846040518082805190602001908083835b60208310610a9b5780518252601f199092019160209182019101610a7c565b51815160209384036101000a6000190180199092169116179052920194855250604051938490038101842060040194909455505084518492600192879290918291908401908083835b60208310610b035780518252601f199092019160209182019101610ae4565b51815160209384036101000a60001901801990921691161790529201948552506040519384900381019093208451610b48956002909201949190910192509050611bb9565b506001836040518082805190602001908083835b60208310610b7b5780518252601f199092019160209182019101610b5c565b51815160209384036101000a600019018019909216911617905292019485525060405193849003810184206003018054600180820183556000928352918390204391015587517f25786f3fdf6fd4a6da97daddf22e5a247ca664b4540c0a42b0f7597b7edfa4679589955091935084928291908401908083835b60208310610c145780518252601f199092019160209182019101610bf5565b51815160209384036101000a60001901801990921691161790529201948552506040519384900301832054610c4f9493909250339150612818565b60405180910390a15060015b92915050565b600080541515610c73575060006106ac565b6000600160a060020a03166001836040518082805190602001908083835b60208310610cb05780518252601f199092019160209182019101610c91565b51815160209384036101000a6000190180199092169116179052920194855250604051938490030190922060010154600160a060020a03169290921415949350505050565b6000545b90565b6000610d0783610c61565b15610d275760405160e560020a62461bcd02815260040161036290612905565b336001846040518082805190602001908083835b60208310610d5a5780518252601f199092019160209182019101610d3b565b51815160209384036101000a6000190180199092169116179052920194855250604051938490038101842060019081018054600160a060020a031916600160a060020a0397909716969096179095558751429594899450925082918401908083835b60208310610ddb5780518252601f199092019160209182019101610dbc565b51815160209384036101000a6000190180199092169116179052920194855250604051938490038101842060040194909455505084518492600192879290918291908401908083835b60208310610e435780518252601f199092019160209182019101610e24565b51815160209384036101000a60001901801990921691161790529201948552506040519384900381019093208451610e88956002909201949190910192509050611bb9565b5060005460405184516001918691819060208401908083835b60208310610ec05780518252601f199092019160209182019101610ea1565b51815160209384036101000a60001901801990921691161790529201948552506040519384900381018420949094555050845160019286929182918401908083835b60208310610f215780518252601f199092019160209182019101610f02565b51815160209384036101000a6000190180199092169116179052920194855250604051938490038101909320600301805460018082018355600092835285832043920191909155815490810180835591805287519194610faa94507f290decd9548b62a8d60345a988386fc84ba6bc95484008f6362f93160ef3e5639091019250870190611bb9565b50507f6cd3677267cf3988b4658f076d0b0ab41b94f04f4deaf29f569bfe7e3e7d7a118360018560405180828051906020019080838360208310610c145780518252601f199092019160209182019101610bf5565b600254600160a060020a031681565b60055481565b60006060806000806001866040518082805190602001908083835b6020831061104e5780518252601f19909201916020918201910161102f565b51815160209384036101000a600019018019909216911617905292019485525060405193849003019092206001810154909350600160a060020a0316151591506110af90505760405160e560020a62461bcd02815260040161036290612865565b600180820154600483015460028085018054604080516020601f600019998516156101000299909901909316949094049687018290048202840182019052858352600160a060020a039094169490936003870193929185918301828280156111585780601f1061112d57610100808354040283529160200191611158565b820191906000526020600020905b81548152906001019060200180831161113b57829003601f168201915b50505050509250818054806020026020016040519081016040528092919081815260200182805480156111aa57602002820191906000526020600020905b815481526020019060010190808311611196575b505050505091509450945094509450509193509193565b60006060806000806111d286611014565b929750909550935091506111e586610647565b905091939590929450565b600160a060020a031660009081526003602052604090205490565b606060008281548110151561121c57fe5b600091825260209182902001805460408051601f60026000196101006001871615020190941693909304928301859004850281018501909152818152928301828280156112aa5780601f1061127f576101008083540402835291602001916112aa565b820191906000526020600020905b81548152906001019060200180831161128d57829003601f168201915b50505050509050919050565b60006112c184610c61565b15156112e25760405160e560020a62461bcd02815260040161036290612915565b600160a060020a038316151561130d5760405160e560020a62461bcd028152600401610362906128c5565b826001856040518082805190602001908083835b602083106113405780518252601f199092019160209182019101611321565b51815160209384036101000a6000190180199092169116179052920194855250604051938490038101842060019081018054600160a060020a031916600160a060020a03979097169690961790955588514295948a9450925082918401908083835b602083106113c15780518252601f1990920191602091820191016113a2565b51815160209384036101000a6000190180199092169116179052920194855250604051938490038101842060040194909455505085518492600192889290918291908401908083835b602083106114295780518252601f19909201916020918201910161140a565b51815160209384036101000a6000190180199092169116179052920194855250604051938490038101909320845161146e956002909201949190910192509050611bb9565b506001846040518082805190602001908083835b602083106114a15780518252601f199092019160209182019101611482565b51815160209384036101000a600019018019909216911617905292019485525060405193849003810190932060030180546001808201835560009283529490912043910155509095945050505050565b60025460405160e060020a6370a08231028152600091600160a060020a031690839082906370a0823190611529903390600401612605565b602060405180830381600087803b15801561154357600080fd5b505af1158015611557573d6000803e3d6000fd5b505050506040513d601f19601f8201168201806040525061157b9190810190611ff8565b101561159c5760405160e560020a62461bcd02815260040161036290612935565b60405160e060020a6323b872dd028152600160a060020a038216906323b872dd906115cf90339030908890600401612613565b602060405180830381600087803b1580156115e957600080fd5b505af11580156115fd573d6000803e3d6000fd5b505050506040513d601f19601f820116820180604052506116219190810190611e19565b15156116425760405160e560020a62461bcd02815260040161036290612845565b61164c3384611b37565b151561166d5760405160e560020a62461bcd028152600401610362906128a5565b7f73a19dd210f1a7f902193214c0ee91dd35ee5b4d920cba8d519eca65a7b488ca3384611699336111f0565b604051610c4f939291906126fc565b600080600033600160a060020a03166001856040518082805190602001908083835b602083106116e95780518252601f1990920191602091820191016116ca565b51815160209384036101000a6000190180199092169116179052920194855250604051938490030190922060010154600160a060020a031692909214915061174890505760405160e560020a62461bcd02815260040161036290612955565b6001846040518082805190602001908083835b6020831061177a5780518252601f19909201916020918201910161175b565b51815160209384036101000a60001901801990921691161790529201948552506040519384900381018420548851909650600194899450925082918401908083835b602083106117db5780518252601f1990920191602091820191016117bc565b51815160209384036101000a600019018019909216911617905292019485525060405193849003019092206000808255600182018054600160a060020a0319169055909250905061182f6002830182611c37565b61183d600383016000611c7e565b50600060049190910181905554600019019050808210156119355781600160008381548110151561186a57fe5b9060005260206000200160405180828054600181600116156101000203166002900480156118cf5780601f106118ad5761010080835404028352918201916118cf565b820191906000526020600020905b8154815290600101906020018083116118bb575b505092835250506040519081900360200190205560008054829081106118f157fe5b9060005260206000200160008381548110151561190a57fe5b906000526020600020019080546001816001161561010002031660029004611933929190611c9c565b505b600080548290811061194357fe5b9060005260206000200160006119599190611c37565b600080549061196c906000198301611d11565b507f550cd5e798bafe5dfd6a32b42aa834eb157a699a56e2232a7b7b45bcd5b90768843360405161199e929190612736565b60405180910390a15060019392505050565b600080600160a060020a03841615156119de5760405160e560020a62461bcd02815260040161036290612855565b600160a060020a038416600090815260036020526040902054831115611a195760405160e560020a62461bcd02815260040161036290612945565b5060025460405160e060020a63a9059cbb028152600160a060020a0390911690819063a9059cbb90611a5190879087906004016126e1565b602060405180830381600087803b158015611a6b57600080fd5b505af1158015611a7f573d6000803e3d6000fd5b505050506040513d601f19601f82011682018060405250611aa39190810190611e19565b50600160a060020a038416600090815260036020526040902054611acd908463ffffffff611b9816565b600160a060020a038516600090815260036020526040902055600454611af9908463ffffffff611b9816565b6004557ff279e6a1f5e320cca91135676d9cb6e44ca8a08c0b88342bcdb1144f6511b5688484611b28826111f0565b60405161199e939291906126fc565b600160a060020a038216600090815260036020526040812054611b60908363ffffffff611baa16565b600160a060020a038416600090815260036020526040902055600454611b8c908363ffffffff611baa16565b60045550600192915050565b600082821115611ba457fe5b50900390565b60008282018381101561080d57fe5b828054600181600116156101000203166002900490600052602060002090601f016020900481019282601f10611bfa57805160ff1916838001178555611c27565b82800160010185558215611c27579182015b82811115611c27578251825591602001919060010190611c0c565b50611c33929150611d3a565b5090565b50805460018160011615610100020316600290046000825580601f10611c5d5750611c7b565b601f016020900490600052602060002090810190611c7b9190611d3a565b50565b5080546000825590600052602060002090810190611c7b9190611d3a565b828054600181600116156101000203166002900490600052602060002090601f016020900481019282601f10611cd55780548555611c27565b82800160010185558215611c2757600052602060002091601f016020900482015b82811115611c27578254825591600101919060010190611cf6565b815481835581811115611d3557600083815260209020611d35918101908301611d54565b505050565b610cf991905b80821115611c335760008155600101611d40565b610cf991905b80821115611c33576000611d6e8282611c37565b50600101611d5a565b600061080d82356129ea565b600061080d82516129f6565b6000601f82018313611da057600080fd5b8135611db3611dae826129b9565b612993565b91508082526020830160208301858383011115611dcf57600080fd5b611dda8382846129fb565b50505092915050565b600061080d8235610cf9565b600061080d8251610cf9565b600060208284031215611e0d57600080fd5b600061060c8484611d77565b600060208284031215611e2b57600080fd5b600061060c8484611d83565b600060208284031215611e4957600080fd5b81356001604060020a03811115611e5f57600080fd5b61060c84828501611d8f565b60008060008060808587031215611e8157600080fd5b84356001604060020a03811115611e9757600080fd5b611ea387828801611d8f565b9450506020611eb487828801611d77565b93505060408501356001604060020a03811115611ed057600080fd5b611edc87828801611d8f565b9250506060611eed87828801611de3565b91505092959194509250565b60008060408385031215611f0c57600080fd5b82356001604060020a03811115611f2257600080fd5b611f2e85828601611d8f565b92505060208301356001604060020a03811115611f4a57600080fd5b611f5685828601611d8f565b9150509250929050565b600080600060608486031215611f7557600080fd5b83356001604060020a03811115611f8b57600080fd5b611f9786828701611d8f565b93505060208401356001604060020a03811115611fb357600080fd5b611fbf86828701611d8f565b9250506040611fd086828701611de3565b9150509250925092565b600060208284031215611fec57600080fd5b600061060c8484611de3565b60006020828403121561200a57600080fd5b600061060c8484611def565b61201f816129ea565b82525050565b6000612030826129e6565b808452602084019350612042836129e0565b60005b82811015612072576120588683516125fc565b612061826129e0565b602096909601959150600101612045565b5093949350505050565b61201f816129f6565b6000612090826129e6565b8084526120a4816020860160208601612a07565b6120ad81612a37565b9093016020019392505050565b602e81527f546f6b656e207472616e7366657220746f20636f6e7472616374206d757374206020820152609160020a6d31329039bab1b1b2b9b9b33ab61702604082015260600190565b602581527f44657374696e6174696f6e2061646472657373206d757374206265206e6f6e20602082015260d960020a643d32b9379702604082015260600190565b602181527f4974656d206d757374206861766520616e206f776e65722061737369676e6564602082015260f960020a601702604082015260600190565b604381527f496e646578206d757374206265206c657373207468616e20746865206375727260208201527f656e7420636f756e74206f66206974656d7320696e2074686520726567697374604082015260e960020a62393c9702606082015260800190565b602581527f53656e646572206f662065646974206d757374206265206f776e6572206f6620602082015260d960020a6434ba32b69702604082015260600190565b601c81527f4974656d206d75737420657869737420746f207472616e736665722e00000000602082015260400190565b602481527f546f6b656e206174747269627574696f6e206d75737420626520737563636573602082015260e260020a631cd99d5b02604082015260600190565b602c8152600080516020612a42833981519152602082015260a160020a6b3232b632ba329034ba32b69702604082015260600190565b602381527f4e6577206f776e65722061646472657373206d757374206265206e6f6e207a65602082015260e960020a6239379702604082015260600190565b602281527f546f6b656e207769746864726177206d75737420626520737563636573736675602082015260f160020a61361702604082015260600190565b60298152600080516020612a42833981519152602082015260b960020a6830b2321034ba32b69702604082015260600190565b603a81527f5374616b652076616c7565206d7573742062652067726561746572207468616e60208201527f206f7220657175616c20746f206d696e696d756d207374616b65000000000000604082015260600190565b601c81527f4974656d206d757374206e6f7420616c72656164792065786973742e00000000602082015260400190565b601d81527f4974656d206d75737420657869737420666f72207472616e736665722e000000602082015260400190565b602a81527f546f6b656e73206d757374206265206465706f736974656420746f2074686973602082015260b160020a691031b7b73a3930b1ba1702604082015260600190565b604a81527f53656e646572206d7573742068617665206120746f6b656e2076616c7565206760208201527f726561746572207468616e206f7220657175616c20746f20746865206465706f604082015260b160020a6939b4ba103b30b63ab29702606082015260800190565b604481527f44657374696e6174696f6e2061646472657373206d757374206861766520646560208201527f706f73697465642061746c65617374207468652077697468647261776c207661604082015260e160020a63363ab29702606082015260800190565b602781527f53656e646572206f662064656c657465206d757374206265206f776e6572206f602082015260c960020a66331034ba32b69702604082015260600190565b601d81527f4974656d206d75737420657869737420666f722064656c6574696f6e2e000000602082015260400190565b60338152600080516020612a428339815191526020820152606960020a723a3930b739b332b91037bbb732b939b434b81702604082015260600190565b61201f81610cf9565b60208101610c5b8284612016565b606081016126218286612016565b61262e6020830185612016565b61060c60408301846125fc565b608081016126498287612016565b818103602083015261265b8186612085565b9050818103604083015261266f8185612025565b905061267e60608301846125fc565b95945050505050565b60a081016126958288612016565b81810360208301526126a78187612085565b905081810360408301526126bb8186612025565b90506126ca60608301856125fc565b6126d760808301846125fc565b9695505050505050565b604081016126ef8285612016565b61080d60208301846125fc565b6060810161270a8286612016565b61262e60208301856125fc565b60208101610c5b828461207c565b6020808252810161080d8184612085565b604080825281016127478185612085565b905061080d6020830184612016565b60a080825281016127678188612085565b90506127766020830187612016565b81810360408301526127888186612085565b9050818103606083015261279c8185612025565b90506126d760808301846125fc565b60c080825281016127bc8189612085565b90506127cb6020830188612016565b81810360408301526127dd8187612085565b905081810360608301526127f18186612025565b905061280060808301856125fc565b61280d60a08301846125fc565b979650505050505050565b606080825281016128298186612085565b905061283860208301856125fc565b61060c6040830184612016565b60208082528101610c5b816120ba565b60208082528101610c5b81612104565b60208082528101610c5b81612145565b60208082528101610c5b81612182565b60208082528101610c5b816121e7565b60208082528101610c5b81612228565b60208082528101610c5b81612258565b60208082528101610c5b81612298565b60208082528101610c5b816122ce565b60208082528101610c5b8161230d565b60208082528101610c5b8161234b565b60208082528101610c5b8161237e565b60208082528101610c5b816123d4565b60208082528101610c5b81612404565b60208082528101610c5b81612434565b60208082528101610c5b8161247a565b60208082528101610c5b816124e6565b60208082528101610c5b8161254c565b60208082528101610c5b8161258f565b60208082528101610c5b816125bf565b60208101610c5b82846125fc565b6040518181016001604060020a03811182821017156129b157600080fd5b604052919050565b60006001604060020a038211156129cf57600080fd5b506020601f91909101601f19160190565b60200190565b5190565b600160a060020a031690565b151590565b82818337506000910152565b60005b83811015612a22578181015183820152602001612a0a565b83811115612a31576000848401525b50505050565b601f01601f19169056004261736520636f6e7472616374206d757374207375636365737366756c6c7920a265627a7a723058208ffdfab538fa30d5c6d52e374c354802dbb2dc95ef6c9541517be73faf15dd2d6c6578706572696d656e74616cf50037",
  "source": "pragma solidity ^0.4.23;\npragma experimental ABIEncoderV2;\n\nimport \"./SimpleRegistry.sol\";\nimport \"../util/TokenReceiver.sol\"; \nimport \"../interfaces/IParameterSource.sol\";\n\n/**\n@title StakableRegistry interface.\n@author Entity Protocol\n*/\ncontract StakableRegistry is SimpleRegistry, TokenReceiver {\n\n    uint256 public minStakeValue;\n\n    struct StakeRecord { \n        uint256 value;\n        bool exists;\n    }\n\n    mapping(string => StakeRecord) internal itemStakes;\n\n    constructor(address _parametersAddress, uint256 _minStakeValue) public \n        TokenReceiver(IParameterSource(_parametersAddress).getAddress(\"CORE\", \"TOKEN\")) \n    {\n        require(_minStakeValue > 0, \"Minimum stake must be non zero.\"); // TODO: Is this correct?\n        minStakeValue = _minStakeValue;\n    }\n\n    function getItemStake(string _key) public view \n        returns (uint256 _stakeValue) \n    { \n        return itemStakes[_key].value;\n    }\n\n    function getItemWithStake(string _key)\n        public\n        view\n        returns (\n            address _owner,\n            string _value,\n            uint[] _blockHistory,\n            uint _timestamp,\n            uint256 _stake\n        )\n    { \n        (_owner, _value, _blockHistory, _timestamp) = super.getItem(_key);\n        _stake = getItemStake(_key);\n    }\n\n    function getAtIndexWithStake(uint _index)\n        public\n        view\n        returns (\n            string _key,\n            address _owner,\n            string _value,\n            uint[] _blockHistory,\n            uint _timestamp,\n            uint256 _stake\n        )\n    { \n        (_key, _owner, _value, _blockHistory, _timestamp) = super.getAtIndex(_index);\n        _stake = getItemStake(_key);\n    }\n\n    /**\n    @notice Adds an item to the registry, and locks the staking value from withdraw.\n    Will fail if an item of the same key \"`_key`\" already exists in the registry. \n    Will fail if stake value `_stake` is less than the minimum staking value.\n    Will fail if `message.caller.address()` has not deposited stake value `_stake` in this contract.\n    @param _key Item key.\n    @param _value Item value.\n    @param _stake Token stake amount.\n    @return _success True if successful, otherwise false.\n    */\n    function addItem(string _key, string _value, uint256 _stake) public returns (bool _success) { \n        require(_stake >= minStakeValue, \"Stake value must be greater than or equal to minimum stake\");\n\n        // NOTE: As revert will roll *everything* back, we don't need to check the item \n        // before locking \n        \n        // Require that the caller has enough tokens to be locked, and lock them\n        require(_depositHere(_stake), \"Tokens must be deposited to this contract.\");\n\n        // Require that we can actually add the item\n        require(super.addItem(_key, _value), \"Base contract must successfully add item.\");\n\n        // Add staking record \n        itemStakes[_key].value = _stake;\n        itemStakes[_key].exists = true; \n\n        return true;\n    }\n\n   /**\n    @notice Deletes an item to the registry, and unlocks the staking value to be avaliable for withdraw.\n    Will fail if an item of the  key \"`_key`\" does not exist.\n    Will fail if `message.caller.address()` is not the marked as the owner of the item.\n    @param _key Item key to delete.\n    @return _success True if successful, otherwise false.\n    */\n    function deleteItem(string _key) public returns (bool _success) { \n        // Require we have knowledge of this item\n        require(itemStakes[_key].exists, \"Item must exist for deletion.\");\n\n        // Delete the item\n        require(super.deleteItem(_key), \"Base contract must successfully delete item.\");\n\n        // Return the stake back to the sender\n        // NOTE: It is still deposited in this contract and will need to be withdrawn\n        require(_withdrawTo(msg.sender, itemStakes[_key].value), \"Token withdraw must be successful.\");\n\n        // Remove the stake entry\n        delete itemStakes[_key];\n\n        return true;\n    }\n\n    function _transferItem(string _key, address _newOwner, string _newValue, uint256 _newStake) public returns (bool _success) { \n        \n        require(itemStakes[_key].exists, \"Item must exist to transfer.\");\n        require(super._transferItem(_key, _newOwner, _newValue), \"Base contract must successfully transfer ownership.\");\n        itemStakes[_key].value = _newStake;\n\n        return true;\n    }\n}",
  "sourcePath": "/Users/iamwil/projects/freelance/entity_protocol/Contracts/packages/contracts/contracts/registry/StakableRegistry.sol",
  "compiler": {
    "name": "solc",
    "version": "0.4.23+commit.124ca40d.Emscripten.clang"
  },
  "schemaVersion": "2.0.0",
  "updatedAt": "2018-05-22T23:46:40.237Z"
}