{
  "contractName": "ProtocolToken",
  "abi": [
    {
      "constant": true,
      "inputs": [],
      "name": "name",
      "outputs": [
        {
          "name": "",
          "type": "string"
        }
      ],
      "payable": false,
      "stateMutability": "view",
      "type": "function"
    },
    {
      "constant": false,
      "inputs": [
        {
          "name": "_spender",
          "type": "address"
        },
        {
          "name": "_value",
          "type": "uint256"
        }
      ],
      "name": "approve",
      "outputs": [
        {
          "name": "",
          "type": "bool"
        }
      ],
      "payable": false,
      "stateMutability": "nonpayable",
      "type": "function"
    },
    {
      "constant": true,
      "inputs": [],
      "name": "totalSupply",
      "outputs": [
        {
          "name": "",
          "type": "uint256"
        }
      ],
      "payable": false,
      "stateMutability": "view",
      "type": "function"
    },
    {
      "constant": false,
      "inputs": [
        {
          "name": "_from",
          "type": "address"
        },
        {
          "name": "_to",
          "type": "address"
        },
        {
          "name": "_value",
          "type": "uint256"
        }
      ],
      "name": "transferFrom",
      "outputs": [
        {
          "name": "",
          "type": "bool"
        }
      ],
      "payable": false,
      "stateMutability": "nonpayable",
      "type": "function"
    },
    {
      "constant": true,
      "inputs": [],
      "name": "INITIAL_SUPPLY",
      "outputs": [
        {
          "name": "",
          "type": "uint256"
        }
      ],
      "payable": false,
      "stateMutability": "view",
      "type": "function"
    },
    {
      "constant": true,
      "inputs": [],
      "name": "decimals",
      "outputs": [
        {
          "name": "",
          "type": "uint256"
        }
      ],
      "payable": false,
      "stateMutability": "view",
      "type": "function"
    },
    {
      "constant": false,
      "inputs": [
        {
          "name": "_spender",
          "type": "address"
        },
        {
          "name": "_subtractedValue",
          "type": "uint256"
        }
      ],
      "name": "decreaseApproval",
      "outputs": [
        {
          "name": "",
          "type": "bool"
        }
      ],
      "payable": false,
      "stateMutability": "nonpayable",
      "type": "function"
    },
    {
      "constant": true,
      "inputs": [
        {
          "name": "_owner",
          "type": "address"
        }
      ],
      "name": "balanceOf",
      "outputs": [
        {
          "name": "balance",
          "type": "uint256"
        }
      ],
      "payable": false,
      "stateMutability": "view",
      "type": "function"
    },
    {
      "constant": true,
      "inputs": [],
      "name": "symbol",
      "outputs": [
        {
          "name": "",
          "type": "string"
        }
      ],
      "payable": false,
      "stateMutability": "view",
      "type": "function"
    },
    {
      "constant": false,
      "inputs": [
        {
          "name": "_to",
          "type": "address"
        },
        {
          "name": "_value",
          "type": "uint256"
        }
      ],
      "name": "transfer",
      "outputs": [
        {
          "name": "",
          "type": "bool"
        }
      ],
      "payable": false,
      "stateMutability": "nonpayable",
      "type": "function"
    },
    {
      "constant": false,
      "inputs": [
        {
          "name": "_spender",
          "type": "address"
        },
        {
          "name": "_addedValue",
          "type": "uint256"
        }
      ],
      "name": "increaseApproval",
      "outputs": [
        {
          "name": "",
          "type": "bool"
        }
      ],
      "payable": false,
      "stateMutability": "nonpayable",
      "type": "function"
    },
    {
      "constant": true,
      "inputs": [
        {
          "name": "_owner",
          "type": "address"
        },
        {
          "name": "_spender",
          "type": "address"
        }
      ],
      "name": "allowance",
      "outputs": [
        {
          "name": "",
          "type": "uint256"
        }
      ],
      "payable": false,
      "stateMutability": "view",
      "type": "function"
    },
    {
      "inputs": [],
      "payable": false,
      "stateMutability": "nonpayable",
      "type": "constructor"
    },
    {
      "anonymous": false,
      "inputs": [
        {
          "indexed": true,
          "name": "owner",
          "type": "address"
        },
        {
          "indexed": true,
          "name": "spender",
          "type": "address"
        },
        {
          "indexed": false,
          "name": "value",
          "type": "uint256"
        }
      ],
      "name": "Approval",
      "type": "event"
    },
    {
      "anonymous": false,
      "inputs": [
        {
          "indexed": true,
          "name": "from",
          "type": "address"
        },
        {
          "indexed": true,
          "name": "to",
          "type": "address"
        },
        {
          "indexed": false,
          "name": "value",
          "type": "uint256"
        }
      ],
      "name": "Transfer",
      "type": "event"
    }
  ],
  "bytecode": "0x60c0604052600f60808190527f456e746974792050726f746f636f6c000000000000000000000000000000000060a090815261003e91600391906100c9565b506040805180820190915260048082527f4550585800000000000000000000000000000000000000000000000000000000602090920191825261008191816100c9565b5060126005556a027b46536c66c8e30000006006553480156100a257600080fd5b506006546001819055600160a060020a033316600090815260208190526040902055610164565b828054600181600116156101000203166002900490600052602060002090601f016020900481019282601f1061010a57805160ff1916838001178555610137565b82800160010185558215610137579182015b8281111561013757825182559160200191906001019061011c565b50610143929150610147565b5090565b61016191905b80821115610143576000815560010161014d565b90565b6108d7806101736000396000f3006080604052600436106100b95763ffffffff7c010000000000000000000000000000000000000000000000000000000060003504166306fdde0381146100be578063095ea7b31461014857806318160ddd1461018057806323b872dd146101a75780632ff2e9dc146101d1578063313ce567146101e657806366188463146101fb57806370a082311461021f57806395d89b4114610240578063a9059cbb14610255578063d73dd62314610279578063dd62ed3e1461029d575b600080fd5b3480156100ca57600080fd5b506100d36102c4565b6040805160208082528351818301528351919283929083019185019080838360005b8381101561010d5781810151838201526020016100f5565b50505050905090810190601f16801561013a5780820380516001836020036101000a031916815260200191505b509250505060405180910390f35b34801561015457600080fd5b5061016c600160a060020a0360043516602435610352565b604080519115158252519081900360200190f35b34801561018c57600080fd5b506101956103bc565b60408051918252519081900360200190f35b3480156101b357600080fd5b5061016c600160a060020a03600435811690602435166044356103c2565b3480156101dd57600080fd5b50610195610542565b3480156101f257600080fd5b50610195610548565b34801561020757600080fd5b5061016c600160a060020a036004351660243561054e565b34801561022b57600080fd5b50610195600160a060020a0360043516610647565b34801561024c57600080fd5b506100d3610662565b34801561026157600080fd5b5061016c600160a060020a03600435166024356106bd565b34801561028557600080fd5b5061016c600160a060020a03600435166024356107b6565b3480156102a957600080fd5b50610195600160a060020a0360043581169060243516610858565b6003805460408051602060026001851615610100026000190190941693909304601f8101849004840282018401909252818152929183018282801561034a5780601f1061031f5761010080835404028352916020019161034a565b820191906000526020600020905b81548152906001019060200180831161032d57829003601f168201915b505050505081565b600160a060020a03338116600081815260026020908152604080832094871680845294825280832086905580518681529051929493927f8c5be1e5ebec7d5bd14f71427d1e84f3dd0314c0f7b2291e5b200ac8c7c3b925929181900390910190a350600192915050565b60015490565b6000600160a060020a03831615156103d957600080fd5b600160a060020a0384166000908152602081905260409020548211156103fe57600080fd5b600160a060020a038085166000908152600260209081526040808320339094168352929052205482111561043157600080fd5b600160a060020a03841660009081526020819052604090205461045a908363ffffffff61088316565b600160a060020a03808616600090815260208190526040808220939093559085168152205461048f908363ffffffff61089516565b600160a060020a03808516600090815260208181526040808320949094558783168252600281528382203390931682529190915220546104d5908363ffffffff61088316565b600160a060020a038086166000818152600260209081526040808320338616845282529182902094909455805186815290519287169391927fddf252ad1be2c89b69c2b068fc378daa952ba7f163c4a11628f55a4df523b3ef929181900390910190a35060019392505050565b60065481565b60055481565b600160a060020a033381166000908152600260209081526040808320938616835292905290812054808311156105ab57600160a060020a0333811660009081526002602090815260408083209388168352929052908120556105e2565b6105bb818463ffffffff61088316565b600160a060020a033381166000908152600260209081526040808320938916835292905220555b600160a060020a0333811660008181526002602090815260408083209489168084529482529182902054825190815291517f8c5be1e5ebec7d5bd14f71427d1e84f3dd0314c0f7b2291e5b200ac8c7c3b9259281900390910190a35060019392505050565b600160a060020a031660009081526020819052604090205490565b6004805460408051602060026001851615610100026000190190941693909304601f8101849004840282018401909252818152929183018282801561034a5780601f1061031f5761010080835404028352916020019161034a565b6000600160a060020a03831615156106d457600080fd5b600160a060020a0333166000908152602081905260409020548211156106f957600080fd5b600160a060020a033316600090815260208190526040902054610722908363ffffffff61088316565b600160a060020a033381166000908152602081905260408082209390935590851681522054610757908363ffffffff61089516565b600160a060020a03808516600081815260208181526040918290209490945580518681529051919333909316927fddf252ad1be2c89b69c2b068fc378daa952ba7f163c4a11628f55a4df523b3ef92918290030190a350600192915050565b600160a060020a0333811660009081526002602090815260408083209386168352929052908120546107ee908363ffffffff61089516565b600160a060020a0333811660008181526002602090815260408083209489168084529482529182902085905581519485529051929391927f8c5be1e5ebec7d5bd14f71427d1e84f3dd0314c0f7b2291e5b200ac8c7c3b9259281900390910190a350600192915050565b600160a060020a03918216600090815260026020908152604080832093909416825291909152205490565b60008282111561088f57fe5b50900390565b6000828201838110156108a457fe5b93925050505600a165627a7a72305820f3c14fe4eb6420902ad1c76676f2684e31073f93055e87401e5bad02845069290029",
  "source": "pragma solidity ^0.4.23;\n\nimport \"zeppelin-solidity/contracts/token/ERC20/StandardToken.sol\"; \n\n/** \n@title Protocol Token.\n@author Entity Protocol\n*/\ncontract ProtocolToken is StandardToken { \n    string public name = \"Entity Protocol\";  \n    string public symbol = \"EPXX\"; // Test name\n    \n    uint public decimals = 18;\n    uint public INITIAL_SUPPLY = 3000000 * (10 ** decimals);\n\n    /**\n    @dev Constructor, creates a new instance of the token contract\n     */\n    constructor() public {\n        totalSupply_ = INITIAL_SUPPLY;\n        balances[msg.sender] = INITIAL_SUPPLY;\n    }\n}",
  "sourcePath": "/Users/iamwil/projects/freelance/entity_protocol/Contracts/packages/contracts/contracts/ProtocolToken.sol",
  "compiler": {
    "name": "solc",
    "version": "0.4.23+commit.124ca40d.Emscripten.clang"
  },
  "schemaVersion": "2.0.0",
  "updatedAt": "2018-05-21T21:35:37.865Z"
}