{
  "contractName": "PublicVoteController",
  "abi": [
    {
      "constant": true,
      "inputs": [],
      "name": "tokenAddress",
      "outputs": [
        {
          "name": "",
          "type": "address"
        }
      ],
      "payable": false,
      "stateMutability": "view",
      "type": "function"
    },
    {
      "constant": true,
      "inputs": [
        {
          "name": "_address",
          "type": "address"
        }
      ],
      "name": "depositBalanceOf",
      "outputs": [
        {
          "name": "_value",
          "type": "uint256"
        }
      ],
      "payable": false,
      "stateMutability": "view",
      "type": "function"
    },
    {
      "inputs": [
        {
          "name": "_parameterSource",
          "type": "address"
        }
      ],
      "payable": false,
      "stateMutability": "nonpayable",
      "type": "constructor"
    },
    {
      "anonymous": false,
      "inputs": [
        {
          "indexed": false,
          "name": "voteId",
          "type": "uint256"
        },
        {
          "indexed": false,
          "name": "challenger",
          "type": "address"
        }
      ],
      "name": "VoteStarted",
      "type": "event"
    },
    {
      "anonymous": false,
      "inputs": [
        {
          "indexed": false,
          "name": "voteId",
          "type": "uint256"
        },
        {
          "indexed": false,
          "name": "voter",
          "type": "address"
        },
        {
          "indexed": false,
          "name": "stake",
          "type": "uint256"
        }
      ],
      "name": "VoteCast",
      "type": "event"
    },
    {
      "anonymous": false,
      "inputs": [
        {
          "indexed": false,
          "name": "voteId",
          "type": "uint256"
        },
        {
          "indexed": false,
          "name": "voter",
          "type": "address"
        },
        {
          "indexed": false,
          "name": "increasedBy",
          "type": "uint256"
        }
      ],
      "name": "VoteIncreased",
      "type": "event"
    },
    {
      "anonymous": false,
      "inputs": [
        {
          "indexed": false,
          "name": "voteId",
          "type": "uint256"
        },
        {
          "indexed": false,
          "name": "winner",
          "type": "uint8"
        }
      ],
      "name": "VoteEnded",
      "type": "event"
    },
    {
      "anonymous": false,
      "inputs": [
        {
          "indexed": false,
          "name": "voteId",
          "type": "uint256"
        },
        {
          "indexed": false,
          "name": "winner",
          "type": "uint8"
        }
      ],
      "name": "VoteDistributed",
      "type": "event"
    },
    {
      "anonymous": false,
      "inputs": [
        {
          "indexed": false,
          "name": "owner",
          "type": "address"
        },
        {
          "indexed": false,
          "name": "value",
          "type": "uint256"
        },
        {
          "indexed": false,
          "name": "currentDeposit",
          "type": "uint256"
        }
      ],
      "name": "Deposited",
      "type": "event"
    },
    {
      "anonymous": false,
      "inputs": [
        {
          "indexed": false,
          "name": "owner",
          "type": "address"
        },
        {
          "indexed": false,
          "name": "value",
          "type": "uint256"
        },
        {
          "indexed": false,
          "name": "currentDeposit",
          "type": "uint256"
        }
      ],
      "name": "Attributed",
      "type": "event"
    },
    {
      "anonymous": false,
      "inputs": [
        {
          "indexed": false,
          "name": "owner",
          "type": "address"
        },
        {
          "indexed": false,
          "name": "value",
          "type": "uint256"
        },
        {
          "indexed": false,
          "name": "currentDeposit",
          "type": "uint256"
        }
      ],
      "name": "Withdraw",
      "type": "event"
    },
    {
      "anonymous": false,
      "inputs": [
        {
          "indexed": false,
          "name": "from",
          "type": "address"
        },
        {
          "indexed": false,
          "name": "to",
          "type": "address"
        },
        {
          "indexed": false,
          "name": "value",
          "type": "uint256"
        },
        {
          "indexed": false,
          "name": "fromCurrentDeposit",
          "type": "uint256"
        },
        {
          "indexed": false,
          "name": "toCurrentDeposit",
          "type": "uint256"
        }
      ],
      "name": "Transfer",
      "type": "event"
    },
    {
      "constant": true,
      "inputs": [],
      "name": "getStyleName",
      "outputs": [
        {
          "name": "_style",
          "type": "string"
        }
      ],
      "payable": false,
      "stateMutability": "pure",
      "type": "function"
    },
    {
      "constant": false,
      "inputs": [
        {
          "name": "_voteId",
          "type": "uint256"
        }
      ],
      "name": "forceExpire",
      "outputs": [
        {
          "name": "_success",
          "type": "bool"
        }
      ],
      "payable": false,
      "stateMutability": "nonpayable",
      "type": "function"
    },
    {
      "constant": true,
      "inputs": [
        {
          "name": "_voteId",
          "type": "uint256"
        }
      ],
      "name": "voteExists",
      "outputs": [
        {
          "name": "_exists",
          "type": "bool"
        }
      ],
      "payable": false,
      "stateMutability": "view",
      "type": "function"
    },
    {
      "constant": true,
      "inputs": [
        {
          "name": "_voteId",
          "type": "uint256"
        }
      ],
      "name": "voteActive",
      "outputs": [
        {
          "name": "_active",
          "type": "bool"
        }
      ],
      "payable": false,
      "stateMutability": "view",
      "type": "function"
    },
    {
      "constant": true,
      "inputs": [
        {
          "name": "_voteId",
          "type": "uint256"
        }
      ],
      "name": "getConfig",
      "outputs": [
        {
          "name": "",
          "type": "uint256"
        },
        {
          "name": "",
          "type": "uint256"
        },
        {
          "name": "",
          "type": "uint256"
        },
        {
          "name": "",
          "type": "uint256"
        },
        {
          "name": "",
          "type": "uint256"
        },
        {
          "name": "",
          "type": "uint256"
        }
      ],
      "payable": false,
      "stateMutability": "view",
      "type": "function"
    },
    {
      "constant": true,
      "inputs": [
        {
          "name": "_voteId",
          "type": "uint256"
        }
      ],
      "name": "getStatus",
      "outputs": [
        {
          "name": "",
          "type": "uint256"
        },
        {
          "name": "",
          "type": "address"
        },
        {
          "name": "",
          "type": "address"
        },
        {
          "name": "",
          "type": "string"
        },
        {
          "name": "",
          "type": "string"
        },
        {
          "name": "",
          "type": "uint256"
        },
        {
          "name": "",
          "type": "uint256"
        }
      ],
      "payable": false,
      "stateMutability": "view",
      "type": "function"
    },
    {
      "constant": false,
      "inputs": [
        {
          "components": [
            {
              "name": "key",
              "type": "string"
            },
            {
              "components": [
                {
                  "name": "owner",
                  "type": "address"
                },
                {
                  "name": "value",
                  "type": "string"
                },
                {
                  "name": "stake",
                  "type": "uint256"
                }
              ],
              "name": "incumbent",
              "type": "tuple"
            },
            {
              "components": [
                {
                  "name": "owner",
                  "type": "address"
                },
                {
                  "name": "value",
                  "type": "string"
                },
                {
                  "name": "stake",
                  "type": "uint256"
                }
              ],
              "name": "challenger",
              "type": "tuple"
            },
            {
              "components": [
                {
                  "name": "style",
                  "type": "string"
                },
                {
                  "name": "challengePenalty",
                  "type": "uint256"
                },
                {
                  "name": "votePenalty",
                  "type": "uint256"
                },
                {
                  "name": "challengeLength",
                  "type": "uint256"
                },
                {
                  "name": "challengeDistribution",
                  "type": "uint256"
                },
                {
                  "name": "minVoteStake",
                  "type": "uint256"
                },
                {
                  "name": "minVoteIncrementalStake",
                  "type": "uint256"
                }
              ],
              "name": "configuration",
              "type": "tuple"
            }
          ],
          "name": "_descriptor",
          "type": "tuple"
        }
      ],
      "name": "beginVote",
      "outputs": [
        {
          "name": "_success",
          "type": "bool"
        },
        {
          "name": "id",
          "type": "uint256"
        }
      ],
      "payable": false,
      "stateMutability": "nonpayable",
      "type": "function"
    },
    {
      "constant": false,
      "inputs": [
        {
          "name": "_voteId",
          "type": "uint256"
        },
        {
          "name": "_candidate",
          "type": "uint8"
        },
        {
          "name": "_stake",
          "type": "uint256"
        }
      ],
      "name": "vote",
      "outputs": [
        {
          "name": "_success",
          "type": "bool"
        }
      ],
      "payable": false,
      "stateMutability": "nonpayable",
      "type": "function"
    },
    {
      "constant": false,
      "inputs": [
        {
          "name": "_voteId",
          "type": "uint256"
        },
        {
          "name": "_additionalStake",
          "type": "uint256"
        }
      ],
      "name": "increaseVote",
      "outputs": [
        {
          "name": "_success",
          "type": "bool"
        }
      ],
      "payable": false,
      "stateMutability": "nonpayable",
      "type": "function"
    },
    {
      "constant": false,
      "inputs": [
        {
          "name": "_voteId",
          "type": "uint256"
        }
      ],
      "name": "process",
      "outputs": [
        {
          "name": "_success",
          "type": "bool"
        }
      ],
      "payable": false,
      "stateMutability": "nonpayable",
      "type": "function"
    },
    {
      "constant": false,
      "inputs": [
        {
          "name": "_voteId",
          "type": "uint256"
        }
      ],
      "name": "distributeVoteResult",
      "outputs": [
        {
          "name": "_success",
          "type": "bool"
        }
      ],
      "payable": false,
      "stateMutability": "nonpayable",
      "type": "function"
    }
  ],
  "bytecode": "0x60806040523480156200001157600080fd5b5060405160208062003078833981018060405262000033919081019062000223565b6040517f791b6d60000000000000000000000000000000000000000000000000000000008152600160a060020a0382169063791b6d609062000078906004016200033b565b602060405180830381600087803b1580156200009357600080fd5b505af1158015620000a8573d6000803e3d6000fd5b505050506040513d601f19601f82011682018060405250620000ce919081019062000223565b620000e28164010000000062000109810204565b60008054600160a060020a031916600160a060020a03929092169190911790555062000371565b6000600160a060020a038216151562000159576040517f08c379a0000000000000000000000000000000000000000000000000000000008152600401620001509062000323565b60405180910390fd5b819050600081600160a060020a03166318160ddd6040518163ffffffff167c0100000000000000000000000000000000000000000000000000000000028152600401602060405180830381600087803b158015620001b657600080fd5b505af1158015620001cb573d6000803e3d6000fd5b505050506040513d601f19601f82011682018060405250620001f191908101906200024c565b11620001fc57600080fd5b5050565b60006200020e825162000362565b9392505050565b60006200020e82516200036e565b6000602082840312156200023657600080fd5b600062000244848462000200565b949350505050565b6000602082840312156200025f57600080fd5b600062000244848462000215565b602881527f546f6b656e20636f6e74726163742061646472657373206d757374206265206e60208201527f6f6e207a65726f2e000000000000000000000000000000000000000000000000604082015260600190565b600481527f434f524500000000000000000000000000000000000000000000000000000000602082015260400190565b600581527f544f4b454e000000000000000000000000000000000000000000000000000000602082015260400190565b6020808252810162000335816200026d565b92915050565b604080825281016200034d81620002c3565b905081810360208301526200033581620002f3565b600160a060020a031690565b90565b612cf780620003816000396000f3006080604052600436106100ab5763ffffffff60e060020a60003504166318fd10ff81146100b057806344813f26146100e65780635c622a0e1461010657806367a27dfe146101395780637e4173a81461015957806387c021ea146101795780639d76ea58146101a7578063a81b2f8d146101c9578063e520251a146101fb578063f4ed878b1461021b578063fba13bd01461023b578063fe3038e614610268578063ffb2c4791461028a575b600080fd5b3480156100bc57600080fd5b506100d06100cb366004612241565b6102aa565b6040516100dd9190612918565b60405180910390f35b3480156100f257600080fd5b506100d0610101366004612241565b6106d3565b34801561011257600080fd5b50610126610121366004612241565b610769565b6040516100dd9796959493929190612a64565b34801561014557600080fd5b506100d0610154366004612241565b6108ed565b34801561016557600080fd5b506100d0610174366004612241565b61092d565b34801561018557600080fd5b5061019961019436600461220d565b61096d565b6040516100dd929190612926565b3480156101b357600080fd5b506101bc610b90565b6040516100dd9190612860565b3480156101d557600080fd5b506101e96101e4366004612241565b610b9f565b6040516100dd96959493929190612b7b565b34801561020757600080fd5b506100d061021636600461227d565b610bd6565b34801561022757600080fd5b506100d06102363660046122ca565b610d8d565b34801561024757600080fd5b5061025b6102563660046121c9565b610f63565b6040516100dd9190612a56565b34801561027457600080fd5b5061027d610f7e565b6040516100dd9190612934565b34801561029657600080fd5b506100d06102a5366004612241565b610fa1565b6000806000806000806000806102f06102c28a61092d565b60408051808201909152600f8152608a60020a6e159bdd19481b5d5cdd08195e1a5cdd0260208201526110b8565b6103386102fc8a6108ed565b156040805190810160405280601781526020017f566f7465206d757374206e6f74206265206163746976650000000000000000008152506110b8565b6000898152600460205260408120975061039290600189015460ff16600281111561035f57fe5b1415604080519081016040528060108152602001608160020a6f2430b9903b30b634b2103bb4b73732b9028152506110b8565b6103e160006001890154610100900460ff1660028111156103af57fe5b14156040805190810160405280600f8152602001608960020a6e2430b9903b30b634b2103637b9b2b9028152506110b8565b60008981526004602052604090206002808201975060099091019550600188015460ff16600281111561041057fe5b141561042b5760008981526004602052604090206009019594505b601087015460408051808201909152601d81527f566f7465206861732076616c6964206f726967696e2061646472657373000000602082015261047991600160a060020a03161515906110b8565b601087015486546001880154600160a060020a0392831696506104a1929091169086906110c7565b50601087015460018701546104bf91600160a060020a031690611250565b506105a884600160a060020a0316635992d1918b8a6011018a60000160009054906101000a9004600160a060020a03168b6002018c600101546040518663ffffffff1660e060020a02815260040161051b959493929190612b03565b602060405180830381600087803b15801561053557600080fd5b505af1158015610549573d6000803e3d6000fd5b505050506040513d601f19601f8201168201806040525061056d91908101906121ef565b6040805190810160405280602081526020017f41737369676e20766f7465206f7574636f6d65206d75737420737563636565648152506110b8565b6105da60016040805190810160405280600c815260200160a060020a6b425245414b20484552452031028152506110b8565b6105e88760120186886113d7565b92506105f787601201866116c7565b9150610609838363ffffffff61187f16565b9050610615868261188e565b5060018701546040517fba206f247312266cc11ee14bc5edd7d43753caeeedb173e583a8d2a8a9c6030b9161064f918c9160ff1690612ae8565b60405180910390a160405160e160020a63368148dd02815273__PublicVoteStorage_____________________90636d0291ba90610694906003908d90600401612a05565b60006040518083038186803b1580156106ac57600080fd5b505af41580156106c0573d6000803e3d6000fd5b5060019c9b505050505050505050505050565b60405160e060020a63dcc6bc7d02815260009073__PublicVoteStorage_____________________9063dcc6bc7d90610713906003908690600401612a05565b60206040518083038186803b15801561072b57600080fd5b505af415801561073f573d6000803e3d6000fd5b505050506040513d601f19601f8201168201806040525061076391908101906121ef565b92915050565b6000818152600460208181526040808420805460028083015460098401546005850154600c860154988601805488516101006001831615026000190190911695909504601f81018a90048a0286018a019098528785528a998a996060998a998c998a9991989097600160a060020a039182169791169594600b8a0194919390929186919083018282801561083e5780601f106108135761010080835404028352916020019161083e565b820191906000526020600020905b81548152906001019060200180831161082157829003601f168201915b5050865460408051602060026001851615610100026000190190941693909304601f8101849004840282018401909252818152959950889450925084019050828280156108cc5780601f106108a1576101008083540402835291602001916108cc565b820191906000526020600020905b8154815290600101906020018083116108af57829003601f168201915b50505050509250975097509750975097509750975050919395979092949650565b60405160e060020a6310e579c102815260009073__PublicVoteStorage_____________________906310e579c190610713906003908690600401612a05565b60405160e060020a63885e9f4b02815260009073__PublicVoteStorage_____________________9063885e9f4b90610713906003908690600401612a05565b6000806000806109e36000610980611b7e565b11606060405190810160405280603e81526020017f5468657265206d75737420626520756e6174747269627574656420746f6b656e81526020017f73206173736f63696174642077697468207468697320636f6e747261637400008152506110b8565b845160405160e060020a63ad52a6c7028152339350610ac891600160a060020a0385169163ad52a6c791610a1991600401612934565b602060405180830381600087803b158015610a3357600080fd5b505af1158015610a47573d6000803e3d6000fd5b505050506040513d601f19601f82011682018060405250610a6b91908101906121ef565b606060405190810160405280603581526020017f4f726967696e20766f746520736f75726365206d75737420626520666c6167678152602001605860020a7465642061732070656e64696e6720666f72206b6579028152506110b8565b60208501518051604090910151610adf9190611c37565b506040808601518051910151610af59190611c37565b5060405160e260020a630fd1769702815273__PublicVoteStorage_____________________90633f45da5c90610b339060039089906004016129e5565b60206040518083038186803b158015610b4b57600080fd5b505af4158015610b5f573d6000803e3d6000fd5b505050506040513d601f19601f82011682018060405250610b83919081019061225f565b6001969095509350505050565b600054600160a060020a031681565b6000908152600460205260409020601381015460148201546015830154601684015460178501546018909501549395929491939092565b6000610c1d610be4856108ed565b60408051808201909152601c81527f566f7465206d7573742062652061637469766520746f20766f74652e0000000060208201526110b8565b610c79610c2983611ce0565b606060405190810160405280602881526020017f566f74696e67207374616b65206465706f736974206d75737420626520737563815260200160c160020a6731b2b9b9b33ab617028152506110b8565b60405160e060020a63ac5a3ba9028152610d479073__PublicVoteStorage_____________________9063ac5a3ba990610cbe90600390899089908990600401612a13565b60206040518083038186803b158015610cd657600080fd5b505af4158015610cea573d6000803e3d6000fd5b505050506040513d601f19601f82011682018060405250610d0e91908101906121ef565b60408051808201909152601681527f5075736820766f7465206d75737420737563636565640000000000000000000060208201526110b8565b7f2acce567deca3aabf56327adbb4524bd5318936eaefa69e3a5208ffda0cfec09843384604051610d7a93929190612ada565b60405180910390a15060015b9392505050565b6000610df0610d9b846108ed565b606060405190810160405280602d81526020017f566f7465206d7573742062652061637469766520746f20696e637265617365208152602001609960020a6c3b37ba34b7339039ba30b5b297028152506110b8565b610e53610dfc83611ce0565b606060405190810160405280602f81526020017f4465706f736974206f66206164646974696f6e616c207374616b65206d7573748152602001608960020a6e1031329039bab1b1b2b9b9b33ab617028152506110b8565b60405160e060020a639798a92b028152610f1f9073__PublicVoteStorage_____________________90639798a92b90610e969060039088908890600401612a48565b60206040518083038186803b158015610eae57600080fd5b505af4158015610ec2573d6000803e3d6000fd5b505050506040513d601f19601f82011682018060405250610ee691908101906121ef565b60408051808201909152601a81527f496e63726561736520766f7465206d757374207375636365656400000000000060208201526110b8565b7fee71c8a31f557f76be7df2d0a683db38c41f2206ed140138db87c3833ebdd672833384604051610f5293929190612ada565b60405180910390a150600192915050565b600160a060020a031660009081526001602052604090205490565b604080518082019091526006815260d060020a655055424c494302602082015290565b600080600080610fec610fb38661092d565b60408051808201909152601e81527f566f7465206d75737420657869737420746f2070726f636573732069742e000060208201526110b8565b6000858152600460205260409020805490935042101561100f57600093506110b0565b50506005810154600c820154600191600291111561102f57506002905060015b60018084018054849260ff199091169083600281111561104b57fe5b021790555060018301805482919061ff00191661010083600281111561106d57fe5b02179055507f7c1778d141d05267404cecd844d32e62f10d605b74e4caef048f14ab2852a48f85836040516110a3929190612ae8565b60405180910390a1600193505b505050919050565b6110c3828233611e97565b5050565b6000600160a060020a03841615156110fd5760405160e560020a62461bcd0281526004016110f490612965565b60405180910390fd5b600160a060020a03831615156111285760405160e560020a62461bcd0281526004016110f490612955565b600160a060020a0384811690841614156111575760405160e560020a62461bcd0281526004016110f490612985565b600160a060020a0384166000908152600160205260409020548211156111925760405160e560020a62461bcd0281526004016110f4906129d5565b600160a060020a0384166000908152600160205260409020546111bb908363ffffffff611ec916565b600160a060020a0380861660009081526001602052604080822093909355908516815220546111f0908363ffffffff61187f16565b600160a060020a0384166000908152600160205260409020557fc817d75deaa278e988c41cf549ef38fe195ab65e0e64cd67ba47f0d185690d5884848461123683610f63565b61123f88610f63565b604051610d7a959493929190612896565b600080600160a060020a038416151561127e5760405160e560020a62461bcd0281526004016110f490612955565b600160a060020a0384166000908152600160205260409020548311156112b95760405160e560020a62461bcd0281526004016110f4906129b5565b5060005460405160e060020a63a9059cbb028152600160a060020a0390911690819063a9059cbb906112f190879087906004016128e2565b602060405180830381600087803b15801561130b57600080fd5b505af115801561131f573d6000803e3d6000fd5b505050506040513d601f19601f8201168201806040525061134391908101906121ef565b50600160a060020a03841660009081526001602052604090205461136d908463ffffffff611ec916565b600160a060020a038516600090815260016020526040902055600254611399908463ffffffff611ec916565b6002557ff279e6a1f5e320cca91135676d9cb6e44ca8a08c0b88342bcdb1144f6511b56884846113c882610f63565b604051610d7a939291906128fd565b60008060008060006114206000886001015411604080519081016040528060158152602001605860020a744c6f736572206d7573742068617665207374616b65028152506110b8565b61146660008760010154116040805190810160405280601681526020017f57696e6e6572206d7573742068617665207374616b65000000000000000000008152506110b8565b6001808801549089015460405160e360020a631d42be2302815273__VotePayout____________________________9263ea15f118926114ab92606490600401612b53565b60206040518083038186803b1580156114c357600080fd5b505af41580156114d7573d6000803e3d6000fd5b505050506040513d601f19601f820116820180604052506114fb919081019061225f565b935061154387600101548511156040805190810160405280601b81526020017f466565206d757374206265206c657373207468616e207374616b6500000000008152506110b8565b60048089015460405160e360020a631d42be2302815273__VotePayout____________________________9263ea15f1189261158492899260649101612b53565b60206040518083038186803b15801561159c57600080fd5b505af41580156115b0573d6000803e3d6000fd5b505050506040513d601f19601f820116820180604052506115d4919081019061225f565b92506116348760010154841115606060405190810160405280602b81526020017f57696e6e657220726577617264206d757374206265206c657373207468616e20815260200160a860020a6a6c6f736572207374616b65028152506110b8565b611644848463ffffffff611ec916565b60018801548854885492945090869003925061166d91600160a060020a039182169116856110c7565b50865461168490600160a060020a031630846110c7565b5060008111156116a55786546116a390600160a060020a031682611250565b505b85546116ba90600160a060020a031684611250565b5090979650505050505050565b600080808080805b60058701548410156118705786600401600088600501868154811015156116f257fe5b6000918252602080832090910154600160a060020a0316835282019290925260409081019091205460028a0154915160e360020a631d42be2302815290945073__VotePayout____________________________9163ea15f1189161175e918791606490600401612b53565b60206040518083038186803b15801561177657600080fd5b505af415801561178a573d6000803e3d6000fd5b505050506040513d601f19601f820116820180604052506117ae919081019061225f565b915081830390506117e487600501858154811015156117c957fe5b600091825260209091200154600160a060020a031682611250565b5061181587600501858154811015156117f957fe5b600091825260209091200154600160a060020a031630846110c7565b50611826858363ffffffff61187f16565b9450866004016000886005018681548110151561183f57fe5b6000918252602080832090910154600160a060020a03168352820192909252604001812055600193909301926116cf565b8495505b505050505092915050565b600082820183811015610d8657fe5b6000806000806000808760050180549050600014156118de5787546118be903090600160a060020a0316896110c7565b5087546118d490600160a060020a031688611250565b5060009550611874565b869450600093505b600588015484101561187057876004016000896005018681548110151561190957fe5b6000918252602080832090910154600160a060020a0316835282019290925260409081019091205460068a0154915160e160020a62160d4f02815290945073__VotePayout____________________________91622c1a9e9161197491879161271090600401612b53565b60206040518083038186803b15801561198c57600080fd5b505af41580156119a0573d6000803e3d6000fd5b505050506040513d601f19601f820116820180604052506119c4919081019061225f565b60405160e360020a631d42be2302815290925073__VotePayout____________________________9063ea15f11890611a07908a90869061271090600401612b53565b60206040518083038186803b158015611a1f57600080fd5b505af4158015611a33573d6000803e3d6000fd5b505050506040513d601f19601f82011682018060405250611a57919081019061225f565b9050611a9b868211156040805190810160405280601c81526020017f526577617264206d757374206265206c657373207468616e20706f74000000008152506110b8565b611aab858263ffffffff611ec916565b9450611af060008610156040805190810160405280601881526020017f506f74206d757374206265206c6172676520656e6f75676800000000000000008152506110b8565b611b20308960050186815481101515611b0557fe5b600091825260209091200154600160a060020a0316836110c7565b50611b3588600501858154811015156117c957fe5b508760040160008960050186815481101515611b4d57fe5b6000918252602080832090910154600160a060020a03168352820192909252604001812055600193909301926118e6565b6000805460405160e060020a6370a08231028152600160a060020a0390911690829082906370a0823190611bb6903090600401612860565b602060405180830381600087803b158015611bd057600080fd5b505af1158015611be4573d6000803e3d6000fd5b505050506040513d601f19601f82011682018060405250611c08919081019061225f565b905060008111611c1b5760009250611c32565b600254611c2f90829063ffffffff611ec916565b92505b505090565b600080808311611c5c5760405160e560020a62461bcd0281526004016110f4906129c5565b611c64611b7e565b905080831115611c895760405160e560020a62461bcd0281526004016110f4906129a5565b611c938484611edb565b1515611cb45760405160e560020a62461bcd0281526004016110f490612975565b7f8540bed8cad4b2e253a5fc5c295b9585af6ae5886a68b48cb905f705b7d0714184846113c887610f63565b6000805460405160e060020a6370a08231028152600160a060020a0390911690839082906370a0823190611d18903390600401612860565b602060405180830381600087803b158015611d3257600080fd5b505af1158015611d46573d6000803e3d6000fd5b505050506040513d601f19601f82011682018060405250611d6a919081019061225f565b1015611d8b5760405160e560020a62461bcd0281526004016110f490612995565b60405160e060020a6323b872dd028152600160a060020a038216906323b872dd90611dbe9033903090889060040161286e565b602060405180830381600087803b158015611dd857600080fd5b505af1158015611dec573d6000803e3d6000fd5b505050506040513d601f19601f82011682018060405250611e1091908101906121ef565b1515611e315760405160e560020a62461bcd0281526004016110f490612945565b611e3b3384611edb565b1515611e5c5760405160e560020a62461bcd0281526004016110f490612975565b7f73a19dd210f1a7f902193214c0ee91dd35ee5b4d920cba8d519eca65a7b488ca3384611e8833610f63565b604051610f52939291906128fd565b821515611ec45781831515611ec25760405160e560020a62461bcd0281526004016110f49190612934565b505b505050565b600082821115611ed557fe5b50900390565b600160a060020a038216600090815260016020526040812054611f04908363ffffffff61187f16565b600160a060020a038416600090815260016020526040902055600254611f30908363ffffffff61187f16565b60025550600192915050565b6000610d868235612c32565b6000610d868251612c3e565b6000610d868235612c56565b6000601f82018313611f7157600080fd5b8135611f84611f7f82612bfb565b612bd5565b91508082526020830160208301858383011115611fa057600080fd5b611fab838284612c7b565b50505092915050565b600060608284031215611fc657600080fd5b611fd06060612bd5565b90506000611fde8484611f3c565b82525060208201356001604060020a03811115611ffa57600080fd5b61200684828501611f60565b602083015250604061201a848285016121b1565b60408301525092915050565b600060e0828403121561203857600080fd5b61204260e0612bd5565b905081356001604060020a0381111561205a57600080fd5b61206684828501611f60565b8252506020612077848483016121b1565b602083015250604061208b848285016121b1565b604083015250606061209f848285016121b1565b60608301525060806120b3848285016121b1565b60808301525060a06120c7848285016121b1565b60a08301525060c06120db848285016121b1565b60c08301525092915050565b6000608082840312156120f957600080fd5b6121036080612bd5565b905081356001604060020a0381111561211b57600080fd5b61212784828501611f60565b82525060208201356001604060020a0381111561214357600080fd5b61214f84828501611fb4565b60208301525060408201356001604060020a0381111561216e57600080fd5b61217a84828501611fb4565b60408301525060608201356001604060020a0381111561219957600080fd5b6121a584828501612026565b60608301525092915050565b6000610d868235612c53565b6000610d868251612c53565b6000602082840312156121db57600080fd5b60006121e78484611f3c565b949350505050565b60006020828403121561220157600080fd5b60006121e78484611f48565b60006020828403121561221f57600080fd5b81356001604060020a0381111561223557600080fd5b6121e7848285016120e7565b60006020828403121561225357600080fd5b60006121e784846121b1565b60006020828403121561227157600080fd5b60006121e784846121bd565b60008060006060848603121561229257600080fd5b600061229e86866121b1565b93505060206122af86828701611f54565b92505060406122c0868287016121b1565b9150509250925092565b600080604083850312156122dd57600080fd5b60006122e985856121b1565b92505060206122fa858286016121b1565b9150509250929050565b61230d81612c32565b82525050565b61230d81612c3e565b61230d81612c65565b61230d81612c70565b600061233982612c2e565b80845261234d816020860160208601612c87565b61235681612cb3565b9093016020019392505050565b600081546001811660008114612380576001811461239e576123da565b60028204607f16855260ff19821660208601526040850192506123da565b600282048086526020860195506123b485612c22565b60005b828110156123d3578154888201526001909101906020016123b7565b8701945050505b505092915050565b602e81527f546f6b656e207472616e7366657220746f20636f6e7472616374206d757374206020820152609160020a6d31329039bab1b1b2b9b9b33ab61702604082015260600190565b602581527f44657374696e6174696f6e2061646472657373206d757374206265206e6f6e20602082015260d960020a643d32b9379702604082015260600190565b60208082527f4f726967696e2061646472657373206d757374206265206e6f6e207a65726f2e9082015260400190565b602481527f546f6b656e206174747269627574696f6e206d75737420626520737563636573602082015260e260020a631cd99d5b02604082015260600190565b603481527f4f726967696e20616e642064657374696e6174696f6e2061646472657373206d6020820152606160020a733ab9ba103737ba103132903a34329039b0b6b29702604082015260600190565b604a81527f53656e646572206d7573742068617665206120746f6b656e2076616c7565206760208201527f726561746572207468616e206f7220657175616c20746f20746865206465706f604082015260b160020a6939b4ba103b30b63ab29702606082015260800190565b605881527f4174747269627574696f6e206f6620746f6b656e73206d757374206265206c6560208201527f7373207468616e2074686520756e617474726962757465642076616c7565206160408201527f737369676e656420746f207468697320636f6e74726163740000000000000000606082015260800190565b604481527f44657374696e6174696f6e2061646472657373206d757374206861766520646560208201527f706f73697465642061746c65617374207468652077697468647261776c207661604082015260e160020a63363ab29702606082015260800190565b602281527f4174747269627574696f6e2076616c7565206d757374206265206e6f6e2d7a65602082015260f060020a61726f02604082015260600190565b603e81527f4f726967696e2061646472657373206d7573742068617665206465706f73697460208201527f65642061746c6561737420746865207472616e736665722076616c75652e0000604082015260600190565b9052565b805160009060608401906127278582612304565b506020830151848203602086015261273f828261232e565b91505060408301516127546040860182612857565b509392505050565b805160e080845260009190840190612774828261232e565b91505060208301516127896020860182612857565b50604083015161279c6040860182612857565b5060608301516127af6060860182612857565b5060808301516127c26080860182612857565b5060a08301516127d560a0860182612857565b5060c083015161275460c0860182612857565b8051608080845260009190840190612800828261232e565b9150506020830151848203602086015261281a8282612713565b915050604083015184820360408601526128348282612713565b9150506060830151848203606086015261284e828261275c565b95945050505050565b61230d81612c53565b602081016107638284612304565b6060810161287c8286612304565b6128896020830185612304565b6121e76040830184612857565b60a081016128a48288612304565b6128b16020830187612304565b6128be6040830186612857565b6128cb6060830185612857565b6128d86080830184612857565b9695505050505050565b604081016128f08285612304565b610d866020830184612857565b6060810161290b8286612304565b6128896020830185612857565b602081016107638284612313565b604081016128f08285612313565b60208082528101610d86818461232e565b60208082528101610763816123e2565b602080825281016107638161242c565b602080825281016107638161246d565b602080825281016107638161249d565b60208082528101610763816124dd565b602080825281016107638161252d565b6020808252810161076381612599565b6020808252810161076381612615565b602080825281016107638161267b565b60208082528101610763816126b9565b604081016129f3828561270f565b81810360208301526121e781846127e8565b604081016128f0828561270f565b60808101612a21828761270f565b612a2e6020830186612857565b612a3b604083018561231c565b61284e6060830184612857565b6060810161290b828661270f565b602081016107638284612857565b60e08101612a72828a612857565b612a7f6020830189612304565b612a8c6040830188612304565b8181036060830152612a9e818761232e565b90508181036080830152612ab2818661232e565b9050612ac160a0830185612857565b612ace60c0830184612857565b98975050505050505050565b6060810161287c8286612857565b60408101612af68285612857565b610d86602083018461231c565b60a08101612b118288612857565b8181036020830152612b238187612363565b9050612b326040830186612304565b8181036060830152612b448185612363565b90506128d86080830184612857565b60608101612b618286612857565b612b6e6020830185612857565b6121e76040830184612325565b60c08101612b898289612857565b612b966020830188612857565b612ba36040830187612857565b612bb06060830186612857565b612bbd6080830185612857565b612bca60a0830184612857565b979650505050505050565b6040518181016001604060020a0381118282101715612bf357600080fd5b604052919050565b60006001604060020a03821115612c1157600080fd5b506020601f91909101601f19160190565b60009081526020902090565b5190565b600160a060020a031690565b151590565b600060038210612c4f57fe5b5090565b90565b600060038210612c4f57600080fd5b600061076382612c43565b600061076382612c53565b82818337506000910152565b60005b83811015612ca2578181015183820152602001612c8a565b83811115611ec25750506000910152565b601f01601f1916905600a265627a7a72305820eac04d7a3bf973b8559743cbb133ee8e3e53571fffe0fe9e23e03449785caceb6c6578706572696d656e74616cf50037",
  "source": "pragma solidity ^0.4.23;\npragma experimental ABIEncoderV2;\n\nimport \"../util/TokenReceiver.sol\"; \nimport \"../util/TrackedRequire.sol\";\nimport \"../interfaces/IVoteController.sol\";\nimport \"../interfaces/IVoteOrigin.sol\";\nimport \"../interfaces/IParameterSource.sol\";\nimport \"./VoteStorage.sol\";\nimport \"./VotePayout.sol\";\n\ncontract PublicVoteController is TokenReceiver, TrackedRequire, IVoteController { \n    event VoteStarted(uint voteId, address challenger);\n    event VoteCast(uint voteId, address voter, uint256 stake);\n    event VoteIncreased(uint voteId, address voter, uint256 increasedBy);\n    event VoteEnded(uint voteId, IVoteController.Candidate winner);\n    event VoteDistributed(uint voteId, IVoteController.Candidate winner);\n\n    PublicVoteStorage.Data private voteData;\n\n    constructor(address _parameterSource) public \n        TokenReceiver(IParameterSource(_parameterSource).getAddress(\"CORE\", \"TOKEN\")) \n    {\n    }\n\n    function getStyleName() public pure returns (string _style) { \n        return \"PUBLIC\";\n    }\n\n    function forceExpire(uint _voteId) public returns (bool _success) { \n        return PublicVoteStorage.forceExpire(voteData, _voteId);\n    }\n\n    function voteExists(uint _voteId) public view returns (bool _exists) { \n        return PublicVoteStorage.exists(voteData, _voteId);\n    }\n\n    function voteActive(uint _voteId) public view returns (bool _active) { \n        return PublicVoteStorage.active(voteData, _voteId);\n    }\n\n    function getConfig(uint _voteId) public view \n        returns (uint, uint, uint, uint, uint256, uint256)\n    {\n        IVoteController.VoteConfiguration storage config = voteData.votes[_voteId].configuration;\n\n        return (\n            config.challengePenalty,\n            config.votePenalty,\n            config.challengeLength,\n            config.challengeDistribution,\n            config.minVoteStake,\n            config.minVoteIncrementalStake\n        );\n    }\n\n  \n    function getStatus(uint _voteId) public view \n        returns (uint, address, address, string, string, uint256, uint256) \n    {\n        PublicVoteStorage.Vote storage voteItem = voteData.votes[_voteId];\n        \n        return (\n            voteItem.expirationTimestamp,\n            voteItem.incumbent.owner,\n            voteItem.challenger.owner, \n            voteItem.incumbent.value,\n            voteItem.challenger.value,\n            voteItem.incumbent.totalVoteValue,\n            voteItem.challenger.totalVoteValue\n        );\n    }\n\n    \n    function beginVote(IVoteController.VoteDescriptor memory _descriptor) public returns (bool _success, uint id) { \n        _require(_unattributedTokenValue() > 0, \"There must be unattributed tokens associatd with this contract\");\n        \n        IVoteOrigin origin = IVoteOrigin(msg.sender);\n        // Check if a vote is pending \n        _require(origin.isVotePending(_descriptor.key), \"Origin vote source must be flagged as pending for key\");\n\n        // Attribute incoming tokens to the challengers\n        _attributeUnowned(_descriptor.incumbent.owner, _descriptor.incumbent.stake);\n        _attributeUnowned(_descriptor.challenger.owner, _descriptor.challenger.stake);\n\n        // Create a vote id\n        uint voteId = PublicVoteStorage.create(voteData, _descriptor);\n        return (true, voteId); \n    }\n\n    function vote(uint _voteId, IVoteController.Candidate _candidate, uint256 _stake) public returns (bool _success) { \n\n        _require(voteActive(_voteId), \"Vote must be active to vote.\");\n        _require(_depositHere(_stake), \"Voting stake deposit must be successful.\");\n        \n        _require(PublicVoteStorage.pushVote(voteData, _voteId, _candidate, _stake), \"Push vote must succeed\");\n\n        emit VoteCast(_voteId, msg.sender, _stake);\n\n        return true;\n    }\n\n    function increaseVote(uint _voteId, uint256 _additionalStake) public returns (bool _success) { \n        \n        _require(voteActive(_voteId), \"Vote must be active to increase voting stake.\");\n        _require(_depositHere(_additionalStake), \"Deposit of additional stake must be successful.\");\n        \n        _require(PublicVoteStorage.increaseVote(voteData, _voteId, _additionalStake), \"Increase vote must succeed\");\n       \n        emit VoteIncreased(_voteId, msg.sender, _additionalStake);\n        return true; \n    }\n\n    function process(uint _voteId) public returns (bool _success) { \n        _require(voteExists(_voteId), \"Vote must exist to process it.\");\n\n        PublicVoteStorage.Vote storage voteItem = voteData.votes[_voteId];\n\n        // Vote is still active \n        if(voteItem.expirationTimestamp > block.timestamp) { \n            return false; \n        }\n\n        // Vote is due to close, find the winner \n        IVoteController.Candidate winner = IVoteController.Candidate.Incumbent; \n        IVoteController.Candidate loser = IVoteController.Candidate.Challenger;\n\n        // **NOTE** Tie means incumbent wins\n        if(voteItem.challenger.totalVoteValue > voteItem.incumbent.totalVoteValue) { \n            winner = IVoteController.Candidate.Challenger;\n            loser = IVoteController.Candidate.Incumbent;\n        }\n\n        voteItem.winner = winner;\n        voteItem.loser = loser;\n\n        emit VoteEnded(_voteId, winner);\n\n        return true;\n    }\n\n    function distributeVoteResult(uint _voteId) public returns (bool _success) { \n        _require(voteExists(_voteId), \"Vote must exist\"); \n        _require(!voteActive(_voteId), \"Vote must not be active\"); \n\n        PublicVoteStorage.Vote storage voteItem = voteData.votes[_voteId];\n        \n        // NOTE: High gas function, processing split from distribution\n        _require(voteItem.winner != IVoteController.Candidate.None, \"Has valid winner\");\n        _require(voteItem.loser != IVoteController.Candidate.None, \"Has valid loser\");\n\n        PublicVoteStorage.VoteCandidate storage winners = voteData.votes[_voteId].incumbent;\n        PublicVoteStorage.VoteCandidate storage losers = voteData.votes[_voteId].challenger;\n\n        if(voteItem.winner == IVoteController.Candidate.Challenger) { \n            losers = winners;\n            winners = voteData.votes[_voteId].challenger;\n        }\n        \n        // Transfer the winners *item* stake back to the origin contract, and transfer\n        // ownership if needed \n        _require(voteItem.origin != address(0), \"Vote has valid origin address\");\n        IVoteOrigin origin = IVoteOrigin(voteItem.origin);\n        \n        // Move deposit to be owned by voting contract\n        _transferDeposit(winners.owner, voteItem.origin, winners.ownerStakeValue);\n        _withdrawTo(voteItem.origin, winners.ownerStakeValue);\n\n        // Call into the origin contract to assign the item to the winner.\n        _require(origin.assignVoteOutcome(_voteId, voteItem.key, winners.owner, winners.value, winners.ownerStakeValue), \"Assign vote outcome must succeed\");\n        \n        _require(true, \"BREAK HERE 1\");\n        uint256 challengePot = _distributeVoteOwners(voteItem.configuration, losers, winners);\n\n        // Take voting fee from all loser voters and add to pot. \n        uint256 votersPot = _taxLosingVoters(voteItem.configuration, losers);\n        uint256 finalPot = challengePot.add(votersPot);\n\n        _rewardWinningVoters(winners, finalPot);\n      \n        // PublicVoteStorage.deleteVote(voteData, _voteId);\n        emit VoteDistributed(_voteId, voteItem.winner);\n\n        PublicVoteStorage.deleteVote(voteData, _voteId);\n\n        return true; \n    }\n\n\n    function _distributeVoteOwners(\n        IVoteController.VoteConfiguration storage configuration, \n        PublicVoteStorage.VoteCandidate storage loser, \n        PublicVoteStorage.VoteCandidate storage winner\n    ) \n        private returns (uint256 pot) \n    {\n        _require(loser.ownerStakeValue > 0, \"Loser must have stake\");\n        _require(winner.ownerStakeValue > 0, \"Winner must have stake\");\n\n        uint256 loserFee = VotePayout.calcFraction(loser.ownerStakeValue, configuration.challengePenalty, 100);\n\n        _require(loserFee <= loser.ownerStakeValue, \"Fee must be less than stake\");\n        \n        // How much does the winner get vs the voting pot? \n        uint256 winnerKeeps = VotePayout.calcFraction(loserFee, configuration.challengeDistribution, 100);\n\n        _require(winnerKeeps <= loser.ownerStakeValue, \"Winner reward must be less than loser stake\");\n\n        uint256 votingPot = loserFee.sub(winnerKeeps);\n        uint256 loserKeeps = loser.ownerStakeValue - loserFee;\n\n        // Divide up the loser fee, winner takes thier %, contract takes the pot %\n        _transferDeposit(loser.owner, winner.owner, winnerKeeps);\n        _transferDeposit(loser.owner, address(this), votingPot);\n\n        // Refund the loser\n        if(loserKeeps > 0) { \n            _withdrawTo(loser.owner, loserKeeps);\n        }\n\n        // Reward the winner\n        _withdrawTo(winner.owner, winnerKeeps);\n\n        return votingPot;\n    }\n\n    function _taxLosingVoters(IVoteController.VoteConfiguration storage configuration, PublicVoteStorage.VoteCandidate storage loser) private \n        returns (uint256 pot) \n    { \n        uint256 votingPot = 0;\n\n        for(uint i = 0; i < loser.voters.length; i++) { \n            uint256 loserVoterAmount = loser.voteValues[loser.voters[i]];\n\n            uint256 loserVoteFee = VotePayout.calcFraction(loserVoterAmount, configuration.votePenalty, 100);\n            uint256 loserVoteKeeps = loserVoterAmount - loserVoteFee;\n\n            _withdrawTo(loser.voters[i], loserVoteKeeps);\n            _transferDeposit(loser.voters[i], address(this), loserVoteFee);\n            votingPot = votingPot.add(loserVoteFee);\n\n            delete loser.voteValues[loser.voters[i]];\n        }\n\n        return votingPot;\n    }\n\n    function _rewardWinningVoters(PublicVoteStorage.VoteCandidate storage winner, uint256 _pot) private returns (uint256 pot) { \n        // TODO: Yin Yin Review\n        // EDGE CASE: No voters, but distribution set. This should go all to the winner\n\n        if(winner.voters.length == 0) { \n            _transferDeposit(address(this), winner.owner, _pot);\n            _withdrawTo(winner.owner, _pot);\n            return 0;\n        }\n      \n        uint256 runningPot = _pot;\n\n        // Disribute winners share\n        for(uint j = 0; j < winner.voters.length; j++) {\n            uint256 winnerVoterAmount = winner.voteValues[winner.voters[j]];\n            \n            uint256 share = VotePayout.percent(winnerVoterAmount, winner.voteValue, 10000);\n            uint256 reward = VotePayout.calcFraction(_pot, share, 10000);\n\n            _require(reward <= pot, \"Reward must be less than pot\"); \n\n            runningPot = runningPot.sub(reward);\n\n            _require(runningPot >= 0, \"Pot must be large enough\"); \n\n            _transferDeposit(address(this), winner.voters[j], reward);\n            _withdrawTo(winner.voters[j], reward);\n            delete winner.voteValues[winner.voters[j]];\n        }\n    \n        return runningPot;\n    }\n}\n\n",
  "sourcePath": "/Users/iamwil/projects/freelance/entity_protocol/Contracts/packages/contracts/contracts/voting/PublicVoteController.sol",
  "compiler": {
    "name": "solc",
    "version": "0.4.23+commit.124ca40d.Emscripten.clang"
  },
  "schemaVersion": "2.0.0",
  "updatedAt": "2018-05-22T18:07:10.782Z"
}