{
  "contractName": "PublicVoteStorage",
  "abi": [
    {
      "constant": true,
      "inputs": [
        {
          "name": "self",
          "type": "PublicVoteStorage.Data storage"
        },
        {
          "name": "_voteId",
          "type": "uint256"
        }
      ],
      "name": "exists",
      "outputs": [
        {
          "name": "_exists",
          "type": "bool"
        }
      ],
      "payable": false,
      "stateMutability": "view",
      "type": "function"
    },
    {
      "constant": true,
      "inputs": [
        {
          "name": "self",
          "type": "PublicVoteStorage.Data storage"
        },
        {
          "name": "_voteId",
          "type": "uint256"
        }
      ],
      "name": "active",
      "outputs": [
        {
          "name": "_active",
          "type": "bool"
        }
      ],
      "payable": false,
      "stateMutability": "view",
      "type": "function"
    },
    {
      "constant": false,
      "inputs": [
        {
          "name": "self",
          "type": "PublicVoteStorage.Data storage"
        },
        {
          "components": [
            {
              "name": "key",
              "type": "string"
            },
            {
              "components": [
                {
                  "name": "owner",
                  "type": "address"
                },
                {
                  "name": "value",
                  "type": "string"
                },
                {
                  "name": "stake",
                  "type": "uint256"
                }
              ],
              "name": "incumbent",
              "type": "tuple"
            },
            {
              "components": [
                {
                  "name": "owner",
                  "type": "address"
                },
                {
                  "name": "value",
                  "type": "string"
                },
                {
                  "name": "stake",
                  "type": "uint256"
                }
              ],
              "name": "challenger",
              "type": "tuple"
            },
            {
              "components": [
                {
                  "name": "style",
                  "type": "string"
                },
                {
                  "name": "challengePenalty",
                  "type": "uint256"
                },
                {
                  "name": "votePenalty",
                  "type": "uint256"
                },
                {
                  "name": "challengeLength",
                  "type": "uint256"
                },
                {
                  "name": "challengeDistribution",
                  "type": "uint256"
                },
                {
                  "name": "minVoteStake",
                  "type": "uint256"
                },
                {
                  "name": "minVoteIncrementalStake",
                  "type": "uint256"
                }
              ],
              "name": "configuration",
              "type": "tuple"
            }
          ],
          "name": "_descriptor",
          "type": "tuple"
        }
      ],
      "name": "create",
      "outputs": [
        {
          "name": "_voteId",
          "type": "uint256"
        }
      ],
      "payable": false,
      "stateMutability": "nonpayable",
      "type": "function"
    },
    {
      "constant": true,
      "inputs": [
        {
          "name": "self",
          "type": "PublicVoteStorage.Data storage"
        },
        {
          "name": "voteId",
          "type": "uint256"
        }
      ],
      "name": "getConfiguration",
      "outputs": [
        {
          "name": "item",
          "type": "IVoteController.VoteConfiguration storage"
        }
      ],
      "payable": false,
      "stateMutability": "view",
      "type": "function"
    },
    {
      "constant": false,
      "inputs": [
        {
          "name": "self",
          "type": "PublicVoteStorage.Data storage"
        },
        {
          "name": "_voteId",
          "type": "uint256"
        },
        {
          "name": "_candidate",
          "type": "IVoteController.Candidate"
        },
        {
          "name": "_stake",
          "type": "uint256"
        }
      ],
      "name": "pushVote",
      "outputs": [
        {
          "name": "_success",
          "type": "bool"
        }
      ],
      "payable": false,
      "stateMutability": "nonpayable",
      "type": "function"
    },
    {
      "constant": false,
      "inputs": [
        {
          "name": "self",
          "type": "PublicVoteStorage.Data storage"
        },
        {
          "name": "_voteId",
          "type": "uint256"
        },
        {
          "name": "_additionalStake",
          "type": "uint256"
        }
      ],
      "name": "increaseVote",
      "outputs": [
        {
          "name": "_success",
          "type": "bool"
        }
      ],
      "payable": false,
      "stateMutability": "nonpayable",
      "type": "function"
    },
    {
      "constant": false,
      "inputs": [
        {
          "name": "self",
          "type": "PublicVoteStorage.Data storage"
        },
        {
          "name": "_voteId",
          "type": "uint256"
        }
      ],
      "name": "deleteVote",
      "outputs": [],
      "payable": false,
      "stateMutability": "nonpayable",
      "type": "function"
    },
    {
      "constant": true,
      "inputs": [
        {
          "name": "self",
          "type": "PublicVoteStorage.Data storage"
        },
        {
          "name": "_voteId",
          "type": "uint256"
        },
        {
          "name": "_candidate",
          "type": "IVoteController.Candidate"
        }
      ],
      "name": "getCandidate",
      "outputs": [
        {
          "name": "_result",
          "type": "PublicVoteStorage.VoteCandidate storage"
        }
      ],
      "payable": false,
      "stateMutability": "view",
      "type": "function"
    },
    {
      "constant": true,
      "inputs": [
        {
          "name": "self",
          "type": "PublicVoteStorage.Data storage"
        },
        {
          "name": "_voteId",
          "type": "uint256"
        },
        {
          "name": "_voter",
          "type": "address"
        }
      ],
      "name": "addressHasVoted",
      "outputs": [
        {
          "name": "_voted",
          "type": "bool"
        }
      ],
      "payable": false,
      "stateMutability": "view",
      "type": "function"
    },
    {
      "constant": false,
      "inputs": [
        {
          "name": "self",
          "type": "PublicVoteStorage.Data storage"
        },
        {
          "name": "_voteId",
          "type": "uint256"
        }
      ],
      "name": "forceExpire",
      "outputs": [
        {
          "name": "_success",
          "type": "bool"
        }
      ],
      "payable": false,
      "stateMutability": "nonpayable",
      "type": "function"
    }
  ],
  "bytecode": "0x611101610030600b82828239805160001a6073146000811461002057610022565bfe5b5030600052607381538281f30073000000000000000000000000000000000000000030146080604052600436106100a15763ffffffff60e060020a60003504166310e579c181146100a65780633f45da5c146100cf5780634c6590fc146100fc57806357d07d8e1461011c5780636d0291ba1461012f578063885e9f4b146101515780639798a92b14610164578063a5d2592114610184578063ac5a3ba914610197578063dcc6bc7d146101b7575b600080fd5b6100b96100b4366004610c70565b6101d7565b6040516100c69190610fc4565b60405180910390f35b8180156100db57600080fd5b506100ef6100ea366004610c1f565b61020e565b6040516100c69190611040565b61010f61010a366004610c70565b610364565b6040516100c69190611032565b61010f61012a366004610ced565b61037a565b81801561013b57600080fd5b5061014f61014a366004610c70565b6103db565b005b6100b961015f366004610c70565b6104f6565b81801561017057600080fd5b506100b961017f366004610d91565b61050d565b6100b9610192366004610ca0565b61063c565b8180156101a357600080fd5b506100b96101b2366004610d30565b61067f565b8180156101c357600080fd5b506100b96101d2366004610c70565b6107d9565b6000818152600183016020526040812054158015906102055750600082815260018401602052604090205442105b90505b92915050565b8154600101808355606080830151015160009190610e108110156102505760405160e560020a62461bcd02815260040161024790611002565b60405180910390fd5b600082815260018601602090815260409091204283018155601081018054600160a060020a03191633600160a060020a03161790558551805161029d9360119093019291909101906108ae565b50606084015160008381526001870160209081526040909120825180516012909201926102cf928492909101906108ae565b506020820151816001015560408201518160020155606082015181600301556080820151816004015560a0820151816005015560c082015181600601559050506103348560010160008481526020019081526020016000206002018560200151610834565b5061035a8560010160008481526020019081526020016000206009018560400151610834565b5090949350505050565b60006103708383610883565b6012019392505050565b6000808083600281111561038a57fe5b141561039557600080fd5b50600083815260018501602052604090206002908101908360028111156103b857fe5b14156103d35750600083815260018501602052604090206009015b949350505050565b6000818152600180840160205260408220828155908101805461ffff19169055600281018054600160a060020a03191681556003820183905590919081610425600485018261092c565b600382016000905560058201600061043d9190610973565b506000600691909101819055600983018054600160a060020a0319168155600a840182905590610470600b85018261092c565b60038201600090556005820160006104889190610973565b506000600691909101819055601083018054600160a060020a03191690556104b490601184019061092c565b6012820160006104c4828261092c565b506000600182018190556002820181905560038201819055600482018190556005820181905560069091015550505050565b600090815260019190910160205260408120541190565b60008060008061051d8787610883565b925061052a87873361063c565b151561054b5760405160e560020a62461bcd02815260040161024790611012565b60188301548510156105725760405160e560020a62461bcd02815260040161024790610fe2565b600160a060020a033316600090815260198401602052604081205460ff16925082600281111561059e57fe5b14156105a657fe5b6105b187878461037a565b600160a060020a03331660009081526004820160205260409020549091506105df908663ffffffff61089816565b600160a060020a0333166000908152600483016020526040902055600381015461060f908663ffffffff61089816565b60038201556006810154610629908663ffffffff61089816565b6006820155600193505050509392505050565b60008060008481526001860160209081526040808320600160a060020a038716845260190190915290205460ff16600281111561067557fe5b1415949350505050565b600080600061068e8787610883565b60178101549092508410156106b85760405160e560020a62461bcd02815260040161024790610ff2565b60008560028111156106c657fe5b14156106e75760405160e560020a62461bcd02815260040161024790610fd2565b6106f287873361063c565b156107125760405160e560020a62461bcd02815260040161024790611022565b61071d87878761037a565b600160a060020a0333166000818152600483016020908152604082208890556005840180546001810182559083529120018054600160a060020a03191690911790556003810154909150610777908563ffffffff61089816565b60038201556006810154610791908563ffffffff61089816565b6006820155600160a060020a03331660009081526019830160205260409020805486919060ff191660018360028111156107c757fe5b02179055506001979650505050505050565b60006107e583836104f6565b15156107f057600080fd5b600082815260018401602052604090206010015433600160a060020a0390811691161461081c57600080fd5b50600090815260019182016020526040902042905590565b80518254600160a060020a031916600160a060020a03909116178255602080820151805160009261086c9260028701929101906108ae565b505060400151600182810182905560039092015590565b60009081526001919091016020526040902090565b6000828201838110156108a757fe5b9392505050565b828054600181600116156101000203166002900490600052602060002090601f016020900481019282601f106108ef57805160ff191683800117855561091c565b8280016001018555821561091c579182015b8281111561091c578251825591602001919060010190610901565b5061092892915061098d565b5090565b50805460018160011615610100020316600290046000825580601f106109525750610970565b601f016020900490600052602060002090810190610970919061098d565b50565b508054600082559060005260206000209081019061097091905b6109a791905b808211156109285760008155600101610993565b90565b600061020582356110a0565b600061020582356110ac565b6000601f820183136109d357600080fd5b81356109e66109e182611074565b61104e565b91508082526020830160208301858383011115610a0257600080fd5b610a0d8382846110bb565b50505092915050565b600061020582356109a7565b600060608284031215610a3457600080fd5b610a3e606061104e565b90506000610a4c84846109aa565b82525060208201356001604060020a03811115610a6857600080fd5b610a74848285016109c2565b6020830152506040610a8884828501610a16565b60408301525092915050565b600060e08284031215610aa657600080fd5b610ab060e061104e565b905081356001604060020a03811115610ac857600080fd5b610ad4848285016109c2565b8252506020610ae584848301610a16565b6020830152506040610af984828501610a16565b6040830152506060610b0d84828501610a16565b6060830152506080610b2184828501610a16565b60808301525060a0610b3584828501610a16565b60a08301525060c0610b4984828501610a16565b60c08301525092915050565b600060808284031215610b6757600080fd5b610b71608061104e565b905081356001604060020a03811115610b8957600080fd5b610b95848285016109c2565b82525060208201356001604060020a03811115610bb157600080fd5b610bbd84828501610a22565b60208301525060408201356001604060020a03811115610bdc57600080fd5b610be884828501610a22565b60408301525060608201356001604060020a03811115610c0757600080fd5b610c1384828501610a94565b60608301525092915050565b60008060408385031215610c3257600080fd5b6000610c3e8585610a16565b92505060208301356001604060020a03811115610c5a57600080fd5b610c6685828601610b55565b9150509250929050565b60008060408385031215610c8357600080fd5b6000610c8f8585610a16565b9250506020610c6685828601610a16565b600080600060608486031215610cb557600080fd5b6000610cc18686610a16565b9350506020610cd286828701610a16565b9250506040610ce3868287016109aa565b9150509250925092565b600080600060608486031215610d0257600080fd5b6000610d0e8686610a16565b9350506020610d1f86828701610a16565b9250506040610ce3868287016109b6565b60008060008060808587031215610d4657600080fd5b6000610d528787610a16565b9450506020610d6387828801610a16565b9350506040610d74878288016109b6565b9250506060610d8587828801610a16565b91505092959194509250565b600080600060608486031215610da657600080fd5b6000610db28686610a16565b9350506020610dc386828701610a16565b9250506040610ce386828701610a16565b610ddd8161109b565b82525050565b601f81527f566f74696e672063616e646964617465206d7573742062652076616c69642e00602082015260400190565b605f81527f4164646974696f6e616c20766f74696e67207374616b65206d7573742062652060208201527f6772656174686572207468616e206f7220657175616c20746f20746865206d6960408201527f6e696d756d20696e6372656d656e74616c20766f74696e67207374616b652e00606082015260800190565b604181527f566f7465207374616b65206d7573742062652067726561746572207468616e2060208201527f6f7220657175616c20746f206d696e696d756d20766f74696e67207374616b65604082015260f960020a601702606082015260800190565b60208082527f45787069726174696f6e206d75737420626520696e20746865206675747572659082015260400190565b603b81527f53656e64657220726571756972656420746f20686176652070726576696f757360208201527f6c7920766f74656420746f20696e637265617465207374616b652e0000000000604082015260600190565b602381527f53656e646572206d757374206e6f7420616c7265616479206861766520766f74602082015260e960020a6232b21702604082015260600190565b9052565b610ddd816109a7565b602081016102088284610dd4565b6020808252810161020881610de3565b6020808252810161020881610e13565b6020808252810161020881610e8f565b6020808252810161020881610ef2565b6020808252810161020881610f22565b6020808252810161020881610f78565b602081016102088284610fb7565b602081016102088284610fbb565b6040518181016001604060020a038111828210171561106c57600080fd5b604052919050565b60006001604060020a0382111561108a57600080fd5b506020601f91909101601f19160190565b151590565b600160a060020a031690565b60006003821061092857600080fd5b828183375060009101525600a265627a7a72305820a81b847731152adaed51c41cce0690103c3327103de804724f8241d132aeb4ce6c6578706572696d656e74616cf50037",
  "source": "pragma solidity ^0.4.23;\npragma experimental ABIEncoderV2;\n\nimport \"zeppelin-solidity/contracts/math/SafeMath.sol\";\nimport \"../interfaces/IVoteController.sol\";\n\nlibrary PublicVoteStorage { \n    using SafeMath for uint256;\n\n    uint constant private SECONDS_IN_HOUR = (60 * 60);\n\n    struct VoteCandidate { \n        address owner; \n        uint256 ownerStakeValue;\n\n        string value;\n\n        uint256 totalVoteValue;\n\n        mapping(address => uint256) voteValues;\n        address[] voters;\n\n        uint256 voteValue;\n    }\n\n    struct Vote { \n        uint expirationTimestamp; \n\n        IVoteController.Candidate winner;\n        IVoteController.Candidate loser; \n        \n        VoteCandidate incumbent;\n        VoteCandidate challenger;\n\n        address origin; \n        string key; \n\n        IVoteController.VoteConfiguration configuration; \n\n        // TODO: This is not ideal , but we need to know how votes split on each side for\n        // allowing increasing of voted value\n        mapping(address => IVoteController.Candidate) allVoters;\n    }\n\n    struct Data { \n        uint numVotes;\n        mapping(uint => Vote) votes;\n    }\n\n    function exists(Data storage self, uint _voteId) public view returns (bool _exists) { \n        return self.votes[_voteId].expirationTimestamp > 0;\n    }\n\n    function active(Data storage self, uint _voteId) public view returns (bool _active)  {\n        return self.votes[_voteId].expirationTimestamp != 0 && self.votes[_voteId].expirationTimestamp > block.timestamp;\n    }\n\n    function create(Data storage self, IVoteController.VoteDescriptor memory _descriptor) public returns (uint _voteId) { \n        uint voteId = self.numVotes + 1;\n        self.numVotes = voteId;\n        uint length = _descriptor.configuration.challengeLength;\n\n        require(length >= SECONDS_IN_HOUR, \"Expiration must be in the future\");\n         \n        self.votes[voteId].expirationTimestamp = block.timestamp + length;\n        self.votes[voteId].origin = msg.sender;\n        self.votes[voteId].key = _descriptor.key;\n        self.votes[voteId].configuration = _descriptor.configuration;\n\n        // Copy descriptor properties into vote map\n        _copyCandidateValues(self.votes[voteId].incumbent, _descriptor.incumbent);\n        _copyCandidateValues(self.votes[voteId].challenger, _descriptor.challenger);\n\n        return voteId;\n    }\n\n    function get(Data storage self, uint voteId) private view returns (Vote storage item) { \n        return self.votes[voteId];\n    }\n\n    function getConfiguration(Data storage self, uint voteId) public view returns (IVoteController.VoteConfiguration storage item) { \n        return get(self, voteId).configuration;\n    }\n\n    function pushVote(Data storage self, uint _voteId, IVoteController.Candidate _candidate, uint256 _stake) public returns (bool _success){ \n        Vote storage vote = get(self, _voteId);\n\n        require (_stake >= vote.configuration.minVoteStake, \"Vote stake must be greater than or equal to minimum voting stake.\");\n        require (_candidate != IVoteController.Candidate.None, \"Voting candidate must be valid.\");\n        require(!addressHasVoted(self, _voteId, msg.sender), \"Sender must not already have voted.\");\n\n        VoteCandidate storage candidate = getCandidate(self, _voteId, _candidate);\n\n        candidate.voteValues[msg.sender] = _stake;\n        candidate.voters.push(msg.sender);\n        candidate.totalVoteValue = candidate.totalVoteValue.add(_stake);\n        candidate.voteValue = candidate.voteValue.add(_stake);\n\n        vote.allVoters[msg.sender] = _candidate;\n\n        return true;\n    }\n\n    function increaseVote(Data storage self, uint _voteId, uint256 _additionalStake) public returns (bool _success){ \n        Vote storage vote = get(self, _voteId);\n\n        require(addressHasVoted(self, _voteId, msg.sender), \"Sender required to have previously voted to increate stake.\");\n        require(_additionalStake >= vote.configuration.minVoteIncrementalStake, \"Additional voting stake must be greather than or equal to the minimum incremental voting stake.\");\n        \n\n        // Find the candidate for the voter \n        IVoteController.Candidate votedForCandidate = vote.allVoters[msg.sender];\n        \n        assert(votedForCandidate != IVoteController.Candidate.None);\n\n        VoteCandidate storage candidate = getCandidate(self, _voteId, votedForCandidate);\n\n        // Increase the vote value by the additional stake\n        candidate.voteValues[msg.sender] = candidate.voteValues[msg.sender].add(_additionalStake);\n        candidate.totalVoteValue = candidate.totalVoteValue.add(_additionalStake);\n        candidate.voteValue = candidate.voteValue.add(_additionalStake);\n\n        return true;\n    }\n\n    function deleteVote(Data storage self, uint _voteId) public { \n        delete self.votes[_voteId];\n    }\n\n    function getCandidate(Data storage self, uint _voteId,  IVoteController.Candidate _candidate) public view returns (VoteCandidate storage _result) { \n        require(_candidate != IVoteController.Candidate.None);\n\n        VoteCandidate storage voteCandidate = self.votes[_voteId].incumbent;\n\n        if(_candidate == IVoteController.Candidate.Challenger) { \n            voteCandidate = self.votes[_voteId].challenger;\n        }\n\n        return voteCandidate;\n    }\n\n    function addressHasVoted(Data storage self, uint _voteId, address _voter) public view returns (bool _voted) { \n        return self.votes[_voteId].allVoters[_voter] != IVoteController.Candidate.None;\n    }\n\n    function forceExpire(Data storage self, uint _voteId) public returns (bool _success) { \n        require(exists(self, _voteId));\n        require(msg.sender == self.votes[_voteId].origin);\n        self.votes[_voteId].expirationTimestamp = block.timestamp;\n        return true; \n    }\n    \n    function _copyCandidateValues(VoteCandidate storage _candidate, IVoteController.VoteCandidateDescriptor memory _descritptor) private \n        returns (bool _success) \n    { \n        _candidate.owner = _descritptor.owner;\n        _candidate.value = _descritptor.value;\n        _candidate.ownerStakeValue = _descritptor.stake;\n        _candidate.totalVoteValue = _descritptor.stake;\n        return true;\n    }\n}",
  "sourcePath": "/Users/iamwil/projects/freelance/entity_protocol/Contracts/packages/contracts/contracts/voting/VoteStorage.sol",
  "compiler": {
    "name": "solc",
    "version": "0.4.23+commit.124ca40d.Emscripten.clang"
  },
  "schemaVersion": "2.0.0",
  "updatedAt": "2018-05-22T18:07:10.848Z"
}