{
  "contractName": "RootRegistry",
  "abi": [
    {
      "constant": true,
      "inputs": [],
      "name": "parametersAddress",
      "outputs": [
        {
          "name": "",
          "type": "address"
        }
      ],
      "payable": false,
      "stateMutability": "view",
      "type": "function"
    },
    {
      "inputs": [
        {
          "name": "_parametersAddress",
          "type": "address"
        }
      ],
      "payable": false,
      "stateMutability": "nonpayable",
      "type": "constructor"
    },
    {
      "anonymous": false,
      "inputs": [
        {
          "indexed": false,
          "name": "name",
          "type": "string"
        },
        {
          "indexed": false,
          "name": "voteStyle",
          "type": "string"
        },
        {
          "indexed": false,
          "name": "at",
          "type": "address"
        }
      ],
      "name": "RegistryCreated",
      "type": "event"
    },
    {
      "constant": true,
      "inputs": [
        {
          "name": "_key",
          "type": "string"
        }
      ],
      "name": "hasItem",
      "outputs": [
        {
          "name": "_exists",
          "type": "bool"
        }
      ],
      "payable": false,
      "stateMutability": "view",
      "type": "function"
    },
    {
      "constant": true,
      "inputs": [
        {
          "name": "_key",
          "type": "string"
        }
      ],
      "name": "getItem",
      "outputs": [
        {
          "name": "_address",
          "type": "address"
        },
        {
          "name": "_voteStyle",
          "type": "string"
        },
        {
          "name": "_timestamp",
          "type": "uint256"
        }
      ],
      "payable": false,
      "stateMutability": "view",
      "type": "function"
    },
    {
      "constant": true,
      "inputs": [
        {
          "name": "_index",
          "type": "uint256"
        }
      ],
      "name": "getKeyOfIndex",
      "outputs": [
        {
          "name": "_key",
          "type": "string"
        }
      ],
      "payable": false,
      "stateMutability": "view",
      "type": "function"
    },
    {
      "constant": true,
      "inputs": [
        {
          "name": "_index",
          "type": "uint256"
        }
      ],
      "name": "getAtIndex",
      "outputs": [
        {
          "name": "_key",
          "type": "string"
        },
        {
          "name": "_address",
          "type": "address"
        },
        {
          "name": "_voteStyle",
          "type": "string"
        },
        {
          "name": "_timestamp",
          "type": "uint256"
        }
      ],
      "payable": false,
      "stateMutability": "view",
      "type": "function"
    },
    {
      "constant": true,
      "inputs": [
        {
          "name": "_index",
          "type": "uint256"
        },
        {
          "name": "_count",
          "type": "uint256"
        }
      ],
      "name": "getBatchAtIndex",
      "outputs": [
        {
          "name": "_countFetched",
          "type": "uint256"
        },
        {
          "name": "_keys",
          "type": "string[]"
        },
        {
          "name": "_addresses",
          "type": "address[]"
        },
        {
          "name": "_voteStyles",
          "type": "string[]"
        },
        {
          "name": "_timestamps",
          "type": "uint256[]"
        }
      ],
      "payable": false,
      "stateMutability": "view",
      "type": "function"
    },
    {
      "constant": true,
      "inputs": [],
      "name": "getItemCount",
      "outputs": [
        {
          "name": "_count",
          "type": "uint256"
        }
      ],
      "payable": false,
      "stateMutability": "view",
      "type": "function"
    },
    {
      "constant": false,
      "inputs": [
        {
          "name": "_name",
          "type": "string"
        },
        {
          "name": "_voteStyle",
          "type": "string"
        }
      ],
      "name": "create",
      "outputs": [
        {
          "name": "_success",
          "type": "bool"
        },
        {
          "name": "_address",
          "type": "address"
        }
      ],
      "payable": false,
      "stateMutability": "nonpayable",
      "type": "function"
    }
  ],
  "bytecode": "0x60806040523480156200001157600080fd5b50604051602080620016e38339810180604052620000339190810190620000c9565b600160a060020a038116151562000081576040517f08c379a0000000000000000000000000000000000000000000000000000000008152600401620000789062000148565b60405180910390fd5b60008054600160a060020a0319908116600160a060020a039384161791829055600380549290931691161790556200016c565b6000620000c2825162000160565b9392505050565b600060208284031215620000dc57600080fd5b6000620000ea8484620000b4565b949350505050565b602681527f506172616d6574657220636f6e74726163742061646472657373206d7573742060208201527f6265207365740000000000000000000000000000000000000000000000000000604082015260600190565b602080825281016200015a81620000f2565b92915050565b600160a060020a031690565b611567806200017c6000396000f30060806040526004361061008d5763ffffffff7c0100000000000000000000000000000000000000000000000000000000600035041663198e2b8a81146100925780631b26aafd146100c9578063712fac6c146100f95780637749cf2314610126578063b6010fcd14610148578063e7ebb5c514610177578063fa721d32146101a8578063fc032c52146101ca575b600080fd5b34801561009e57600080fd5b506100b26100ad366004610e9a565b6101f7565b6040516100c09291906112eb565b60405180910390f35b3480156100d557600080fd5b506100e96100e4366004610f03565b610567565b6040516100c09493929190611317565b34801561010557600080fd5b50610119610114366004610e65565b610704565b6040516100c091906112dd565b34801561013257600080fd5b5061013b610799565b6040516100c09190611408565b34801561015457600080fd5b50610168610163366004610e65565b6107a0565b6040516100c0939291906112ae565b34801561018357600080fd5b50610197610192366004610f21565b6108ec565b6040516100c0959493929190611416565b3480156101b457600080fd5b506101bd610c7a565b6040516100c0919061129a565b3480156101d657600080fd5b506101ea6101e5366004610f03565b610c89565b6040516100c09190611306565b600080600080600061020887610704565b156102315760405160e560020a62461bcd028152600401610228906113b5565b60405180910390fd5b6003546040517f791b6d60000000000000000000000000000000000000000000000000000000008152600160a060020a039091169063791b6d6090610278906004016113c5565b602060405180830381600087803b15801561029257600080fd5b505af11580156102a6573d6000803e3d6000fd5b505050506040513d601f19601f820116820180604052506102ca9190810190610e3f565b6040517fb6a46b3b000000000000000000000000000000000000000000000000000000008152909350839250600160a060020a0383169063b6a46b3b90610315908990600401611306565b602060405180830381600087803b15801561032f57600080fd5b505af1158015610343573d6000803e3d6000fd5b505050506040513d601f19601f820116820180604052506103679190810190610e3f565b9050426002886040518082805190602001908083835b6020831061039c5780518252601f19909201916020918201910161037d565b51815160209384036101000a600019018019909216911617905292019485525060405193849003810184206002908101959095558b518695948d9450925082918401908083835b602083106104025780518252601f1990920191602091820191016103e3565b51815160209384036101000a60001901801990921691161790529201948552506040519384900381018420805473ffffffffffffffffffffffffffffffffffffffff1916600160a060020a0396909616959095179094555050885188926002928b9290918291908401908083835b6020831061048f5780518252601f199092019160209182019101610470565b6001836020036101000a038019825116818451168082178552505050505050905001915050908152602001604051809103902060010190805190602001906104d8929190610d34565b5060018054808201808355600092909252885161051c917fb10e2d527612073b26eecdfd717e6a320cf44b4afac2b0732d9fcbe2b7fa0cf6019060208b0190610d34565b50507f753a37c0f70fa06fc95ead7d7aee35f1cdc1f22ae69018f0e50401b438fb420787878360405161055193929190611361565b60405180910390a1600197909650945050505050565b6001546060906000908290829085106105955760405160e560020a62461bcd028152600401610228906113a5565b61063f6001868154811015156105a757fe5b600091825260209182902001805460408051601f60026000196101006001871615020190941693909304928301859004850281018501909152818152928301828280156106355780601f1061060a57610100808354040283529160200191610635565b820191906000526020600020905b81548152906001019060200180831161061857829003601f168201915b50505050506107a0565b600180549396509194509250908690811061065657fe5b600091825260209182902001805460408051601f6002600019610100600187161502019094169390930492830185900485028101850190915281815291928692869286928691908301828280156106ee5780601f106106c3576101008083540402835291602001916106ee565b820191906000526020600020905b8154815290600101906020018083116106d157829003601f168201915b5050505050935093509350935093509193509193565b600154600090151561071857506000610794565b6000600160a060020a03166002836040518082805190602001908083835b602083106107555780518252601f199092019160209182019101610736565b51815160209384036101000a6000190180199092169116179052920194855250604051938490030190922054600160a060020a03169290921415925050505b919050565b6001545b90565b600060606000806002856040518082805190602001908083835b602083106107d95780518252601f1990920191602091820191016107ba565b51815160209384036101000a600019018019909216911617905292019485525060405193849003019092208054909350600160a060020a03161515915061083790505760405160e560020a62461bcd02815260040161022890611395565b805460028083015460018085018054604080516020601f600019968516156101000296909601909316969096049384018290048202860182019052828552600160a060020a039095169490939184918301828280156108d75780601f106108ac576101008083540402835291602001916108d7565b820191906000526020600020905b8154815290600101906020018083116108ba57829003601f168201915b50505050509150935093509350509193909250565b600060608080808480808380808084808e1161091d5760405160e560020a62461bcd028152600401610228906113f8565b6001548f106109415760405160e560020a62461bcd028152600401610228906113e8565b8d8f0197508e9650600095508d60405190808252806020026020018201604052801561098157816020015b606081526020019060019003908161096c5790505b5094508d6040519080825280602002602001820160405280156109ae578160200160208202803883390190505b5093508d6040519080825280602002602001820160405280156109e557816020015b60608152602001906001900390816109d05790505b5092508d604051908082528060200260200182016040528015610a12578160200160208202803883390190505b5091508e96505b8787108015610a29575060015487105b15610c64576001805488908110610a3c57fe5b600091825260209182902001805460408051601f6002600019610100600187161502019094169390930492830185900485028101850190915281815292830182828015610aca5780601f10610a9f57610100808354040283529160200191610aca565b820191906000526020600020905b815481529060010190602001808311610aad57829003601f168201915b50505050508587815181101515610add57fe5b602090810290910101528b516002908d9088908110610af857fe5b906020019060200201516040518082805190602001908083835b60208310610b315780518252601f199092019160209182019101610b12565b51815160209384036101000a6000190180199092169116179052920194855250604051938490030190922080548751919450600160a060020a0316925086915088908110610b7b57fe5b600160a060020a03929092166020928302919091018201526001828101805460408051600294831615610100026000190190921693909304601f810185900485028201850190935282815292909190830182828015610c1b5780601f10610bf057610100808354040283529160200191610c1b565b820191906000526020600020905b815481529060010190602001808311610bfe57829003601f168201915b50505050508387815181101515610c2e57fe5b6020908102909101015260028101548251839088908110610c4b57fe5b6020908102909101015260019687019690950194610a19565b50939d929c50909a509850909650945050505050565b600054600160a060020a031681565b6060600182815481101515610c9a57fe5b600091825260209182902001805460408051601f6002600019610100600187161502019094169390930492830185900485028101850190915281815292830182828015610d285780601f10610cfd57610100808354040283529160200191610d28565b820191906000526020600020905b815481529060010190602001808311610d0b57829003601f168201915b50505050509050919050565b828054600181600116156101000203166002900490600052602060002090601f016020900481019282601f10610d7557805160ff1916838001178555610da2565b82800160010185558215610da2579182015b82811115610da2578251825591602001919060010190610d87565b50610dae929150610db2565b5090565b61079d91905b80821115610dae5760008155600101610db8565b6000610dd882516114d6565b9392505050565b6000601f82018313610df057600080fd5b8135610e03610dfe826114a4565b61147d565b91508082526020830160208301858383011115610e1f57600080fd5b610e2a8382846114e7565b50505092915050565b6000610dd8823561079d565b600060208284031215610e5157600080fd5b6000610e5d8484610dcc565b949350505050565b600060208284031215610e7757600080fd5b813567ffffffffffffffff811115610e8e57600080fd5b610e5d84828501610ddf565b60008060408385031215610ead57600080fd5b823567ffffffffffffffff811115610ec457600080fd5b610ed085828601610ddf565b925050602083013567ffffffffffffffff811115610eed57600080fd5b610ef985828601610ddf565b9150509250929050565b600060208284031215610f1557600080fd5b6000610e5d8484610e33565b60008060408385031215610f3457600080fd5b6000610f408585610e33565b9250506020610ef985828601610e33565b610f5a816114d6565b82525050565b6000610f6b826114d2565b808452602084019350610f7d836114cc565b60005b82811015610fad57610f93868351610f51565b610f9c826114cc565b602096909601959150600101610f80565b5093949350505050565b6000610fc2826114d2565b80845260208401935083602082028501610fdb856114cc565b60005b84811015611012578383038852610ff6838351611074565b9250611001826114cc565b602098909801979150600101610fde565b50909695505050505050565b6000611029826114d2565b80845260208401935061103b836114cc565b60005b82811015610fad57611051868351611291565b61105a826114cc565b60209690960195915060010161103e565b610f5a816114e2565b600061107f826114d2565b8084526110938160208601602086016114f3565b61109c81611523565b9093016020019392505050565b602181527f4974656d206d757374206861766520616e206f776e65722061737369676e656460208201527f2e00000000000000000000000000000000000000000000000000000000000000604082015260600190565b604381527f496e646578206d757374206265206c657373207468616e20746865206375727260208201527f656e7420636f756e74206f66206974656d7320696e207468652072656769737460408201527f72792e0000000000000000000000000000000000000000000000000000000000606082015260800190565b60208082527f5265676973747279206d757374206e6f7420616c72656164792065786973742e9082015260400190565b600781527f464143544f525900000000000000000000000000000000000000000000000000602082015260400190565b600881527f5245474953545259000000000000000000000000000000000000000000000000602082015260400190565b602781527f496e646578206d757374206265207769746820696e206974656d20636f756e7460208201527f20626f756e647300000000000000000000000000000000000000000000000000604082015260600190565b601c81527f426174636820636f756e74206d757374206265206e6f6e2d7a65726f00000000602082015260400190565b610f5a8161079d565b602081016112a88284610f51565b92915050565b606081016112bc8286610f51565b81810360208301526112ce8185611074565b9050610e5d6040830184611291565b602081016112a8828461106b565b604081016112f9828561106b565b610dd86020830184610f51565b60208082528101610dd88184611074565b608080825281016113288187611074565b90506113376020830186610f51565b81810360408301526113498185611074565b90506113586060830184611291565b95945050505050565b606080825281016113728186611074565b905081810360208301526113868185611074565b9050610e5d6040830184610f51565b602080825281016112a8816110a9565b602080825281016112a8816110ff565b602080825281016112a88161117b565b604080825281016113d5816111db565b905081810360208301526112a8816111ab565b602080825281016112a88161120b565b602080825281016112a881611261565b602081016112a88284611291565b60a081016114248288611291565b81810360208301526114368187610fb7565b9050818103604083015261144a8186610f60565b9050818103606083015261145e8185610fb7565b90508181036080830152611472818461101e565b979650505050505050565b60405181810167ffffffffffffffff8111828210171561149c57600080fd5b604052919050565b600067ffffffffffffffff8211156114bb57600080fd5b506020601f91909101601f19160190565b60200190565b5190565b600160a060020a031690565b151590565b82818337506000910152565b60005b8381101561150e5781810151838201526020016114f6565b8381111561151d576000848401525b50505050565b601f01601f1916905600a265627a7a7230582008926aee7440d70ea582ab05d62ec6d84ea095219dbdfbd4d47551515e3c0e146c6578706572696d656e74616cf50037",
  "source": "pragma solidity ^0.4.23;\n\nimport \"./interfaces/IRegistryFactory.sol\";\nimport \"./interfaces/IKeyStore.sol\"; \nimport \"./interfaces/IParameterSource.sol\";\n\npragma experimental ABIEncoderV2;\n\ncontract RootRegistry is IBaseKeyStore {\n\n    struct Registry { \n        address contractAddress;\n        string voteStyle;\n        uint timestamp;\n    }\n\n    address public parametersAddress;\n\n    string[] private itemIndex; \n    mapping(string => Registry) private items;\n    IParameterSource internal parameters; \n\n    event RegistryCreated(string name, string voteStyle, address at);\n\n    constructor(address _parametersAddress) public\n    { \n        require(_parametersAddress != address(0), \"Parameter contract address must be set\"); \n        parametersAddress = _parametersAddress;\n        parameters = IParameterSource(parametersAddress);\n    }\n\n    function hasItem(string _key) public view returns (bool _exists) { \n        if (itemIndex.length == 0) {\n            return false; \n        }\n\n        return items[_key].contractAddress != address(0);\n    }\n\n    function getItem(string _key) public view returns (address _address, string _voteStyle, uint _timestamp) { \n        Registry storage item = items[_key];\n        require(item.contractAddress != address(0), \"Item must have an owner assigned.\");\n        return (item.contractAddress, item.voteStyle, item.timestamp);\n    }\n\n    function getKeyOfIndex(uint _index) public view returns (string _key) {\n        return itemIndex[_index];\n    }\n\n    function getAtIndex(uint _index) public view returns (string _key, address _address, string _voteStyle, uint _timestamp) { \n        require(_index < itemIndex.length, \"Index must be less than the current count of items in the registry.\");\n\n        (_address, _voteStyle, _timestamp) = getItem(itemIndex[_index]);\n\n        return (itemIndex[_index], _address, _voteStyle, _timestamp);\n    }\n\n    function getBatchAtIndex(uint _index, uint _count) public view \n        returns (uint _countFetched, string[] _keys, address[] _addresses, string[] _voteStyles, uint[] _timestamps) \n    { \n        require(_count > 0, \"Batch count must be non-zero\");\n        require(_index < itemIndex.length, \"Index must be with in item count bounds\");\n\n        uint maxBound = _index + _count;\n\n        uint iter = _index;\n        uint i = 0; \n\n        string[] memory keys = new string[](_count);\n        address[] memory addresses = new address[](_count);\n        string[] memory voteStyles = new string[](_count);\n        uint[] memory timestamps = new uint[](_count);\n\n        for(iter = _index; iter < maxBound && iter < itemIndex.length; iter++) {\n            keys[i] = itemIndex[iter];\n            Registry storage item = items[_keys[i]];\n            addresses[i] = item.contractAddress;\n            voteStyles[i] = item.voteStyle;\n            timestamps[i] = item.timestamp;\n            i++;\n        }\n\n        return(i, keys, addresses, voteStyles, timestamps);\n    }\n\n    function getItemCount() public view returns (uint _count) { \n        return itemIndex.length;\n    }\n\n    function create(string _name, string _voteStyle) public returns (bool _success, address _address) { \n        require(!hasItem(_name), \"Registry must not already exist.\");\n\n        address factoryAddress = parameters.getAddress(\"REGISTRY\", \"FACTORY\");\n\n        IRegistryFactory factory = IRegistryFactory(factoryAddress);\n        address newAddress = factory.create(_voteStyle);\n\n        items[_name].timestamp = block.timestamp;\n        items[_name].contractAddress = newAddress;\n        items[_name].voteStyle = _voteStyle;\n\n        itemIndex.push(_name);\n        \n        emit RegistryCreated(_name, _voteStyle, newAddress);\n\n        return (true, newAddress);\n    }\n}",
  "sourcePath": "/Users/iamwil/projects/freelance/entity_protocol/Contracts/packages/contracts/contracts/RootRegistry.sol",
  "compiler": {
    "name": "solc",
    "version": "0.4.23+commit.124ca40d.Emscripten.clang"
  },
  "schemaVersion": "2.0.0",
  "updatedAt": "2018-05-21T21:35:37.865Z"
}