{
  "contractName": "TokenReceiverLib",
  "abi": [
    {
      "constant": true,
      "inputs": [
        {
          "name": "self",
          "type": "TokenReceiverLib.Data storage"
        }
      ],
      "name": "unattributedTokenValue",
      "outputs": [
        {
          "name": "_value",
          "type": "uint256"
        }
      ],
      "payable": false,
      "stateMutability": "view",
      "type": "function"
    },
    {
      "constant": false,
      "inputs": [
        {
          "name": "self",
          "type": "TokenReceiverLib.Data storage"
        },
        {
          "name": "owner",
          "type": "address"
        },
        {
          "name": "_value",
          "type": "uint256"
        }
      ],
      "name": "attributeUnowned",
      "outputs": [
        {
          "name": "_success",
          "type": "bool"
        }
      ],
      "payable": false,
      "stateMutability": "nonpayable",
      "type": "function"
    },
    {
      "constant": false,
      "inputs": [
        {
          "name": "self",
          "type": "TokenReceiverLib.Data storage"
        },
        {
          "name": "_value",
          "type": "uint256"
        }
      ],
      "name": "depositHere",
      "outputs": [
        {
          "name": "_result",
          "type": "bool"
        }
      ],
      "payable": false,
      "stateMutability": "nonpayable",
      "type": "function"
    },
    {
      "constant": false,
      "inputs": [
        {
          "name": "self",
          "type": "TokenReceiverLib.Data storage"
        },
        {
          "name": "_address",
          "type": "address"
        },
        {
          "name": "_value",
          "type": "uint256"
        }
      ],
      "name": "withdrawTo",
      "outputs": [
        {
          "name": "_result",
          "type": "bool"
        }
      ],
      "payable": false,
      "stateMutability": "nonpayable",
      "type": "function"
    },
    {
      "constant": true,
      "inputs": [
        {
          "name": "_address",
          "type": "address"
        }
      ],
      "name": "checkERC20Contract",
      "outputs": [],
      "payable": false,
      "stateMutability": "view",
      "type": "function"
    }
  ],
  "bytecode": "0x610ad8610030600b82828239805160001a6073146000811461002057610022565bfe5b5030600052607381538281f30073000000000000000000000000000000000000000030146080604052600436106100835763ffffffff7c01000000000000000000000000000000000000000000000000000000006000350416630298398b81146100885780634dd6894d146100a5578063736a9414146100e0578063a761721e146100fb578063db2213c114610111575b600080fd5b610093600435610138565b60408051918252519081900360200190f35b8180156100b157600080fd5b506100cc600435600160a060020a0360243516604435610205565b604080519115158252519081900360200190f35b8180156100ec57600080fd5b506100cc6004356024356103c5565b61010f600160a060020a03600435166106ad565b005b81801561011d57600080fd5b506100cc600435600160a060020a03602435166044356107cb565b8054604080517f70a08231000000000000000000000000000000000000000000000000000000008152600160a060020a03308116600483015291516000939290921691839183916370a082319160248082019260209290919082900301818787803b1580156101a657600080fd5b505af11580156101ba573d6000803e3d6000fd5b505050506040513d60208110156101d057600080fd5b50519050600081116101e557600092506101fe565b60018401546101fb90829063ffffffff610a1b16565b92505b5050919050565b600080808311610285576040805160e560020a62461bcd02815260206004820152602260248201527f4174747269627574696f6e2076616c7565206d757374206265206e6f6e2d7a6560448201527f726f000000000000000000000000000000000000000000000000000000000000606482015290519081900360840190fd5b61028e85610138565b905080831115610334576040805160e560020a62461bcd02815260206004820152605860248201527f4174747269627574696f6e206f6620746f6b656e73206d757374206265206c6560448201527f7373207468616e2074686520756e617474726962757465642076616c7565206160648201527f737369676e656420746f207468697320636f6e74726163740000000000000000608482015290519081900360a40190fd5b61033f853385610a2d565b15156103ba576040805160e560020a62461bcd028152602060048201526024808201527f546f6b656e206174747269627574696f6e206d7573742062652073756363657360448201527f7366756c00000000000000000000000000000000000000000000000000000000606482015290519081900360840190fd5b506001949350505050565b8154604080517f70a08231000000000000000000000000000000000000000000000000000000008152600160a060020a03338116600483015291516000939290921691849183916370a082319160248082019260209290919082900301818987803b15801561043357600080fd5b505af1158015610447573d6000803e3d6000fd5b505050506040513d602081101561045d57600080fd5b50511015610501576040805160e560020a62461bcd02815260206004820152604a60248201527f53656e646572206d7573742068617665206120746f6b656e2076616c7565206760448201527f726561746572207468616e206f7220657175616c20746f20746865206465706f60648201527f7369742076616c75652e00000000000000000000000000000000000000000000608482015290519081900360a40190fd5b604080517f23b872dd000000000000000000000000000000000000000000000000000000008152600160a060020a0333811660048301523081166024830152604482018690529151918316916323b872dd916064808201926020929091908290030181600087803b15801561057557600080fd5b505af1158015610589573d6000803e3d6000fd5b505050506040513d602081101561059f57600080fd5b5051151561061d576040805160e560020a62461bcd02815260206004820152602e60248201527f546f6b656e207472616e7366657220746f20636f6e7472616374206d7573742060448201527f6265207375636365737366756c2e000000000000000000000000000000000000606482015290519081900360840190fd5b610628843385610a2d565b15156106a3576040805160e560020a62461bcd028152602060048201526024808201527f546f6b656e206174747269627574696f6e206d7573742062652073756363657360448201527f7366756c00000000000000000000000000000000000000000000000000000000606482015290519081900360840190fd5b5060019392505050565b6000600160a060020a0382161515610735576040805160e560020a62461bcd02815260206004820152602860248201527f546f6b656e20636f6e74726163742061646472657373206d757374206265206e60448201527f6f6e207a65726f2e000000000000000000000000000000000000000000000000606482015290519081900360840190fd5b819050600081600160a060020a03166318160ddd6040518163ffffffff167c0100000000000000000000000000000000000000000000000000000000028152600401602060405180830381600087803b15801561079157600080fd5b505af11580156107a5573d6000803e3d6000fd5b505050506040513d60208110156107bb57600080fd5b5051116107c757600080fd5b5050565b600080600160a060020a0384161515610854576040805160e560020a62461bcd02815260206004820152602560248201527f44657374696e6174696f6e2061646472657373206d757374206265206e6f6e2060448201527f7a65726f2e000000000000000000000000000000000000000000000000000000606482015290519081900360840190fd5b600160a060020a0384166000908152600286016020526040902054831115610913576040805160e560020a62461bcd028152602060048201526044602482018190527f44657374696e6174696f6e2061646472657373206d7573742068617665206465908201527f706f73697465642061746c65617374207468652077697468647261776c20766160648201527f6c75652e00000000000000000000000000000000000000000000000000000000608482015290519081900360a40190fd5b508354604080517fa9059cbb000000000000000000000000000000000000000000000000000000008152600160a060020a0386811660048301526024820186905291519190921691829163a9059cbb916044808201926020929091908290030181600087803b15801561098557600080fd5b505af1158015610999573d6000803e3d6000fd5b505050506040513d60208110156109af57600080fd5b5050600160a060020a03841660009081526002860160205260409020546109dc908463ffffffff610a1b16565b600160a060020a03851660009081526002870160205260409020556001850154610a0c908463ffffffff610a1b16565b60019586015550929392505050565b600082821115610a2757fe5b50900390565b600160a060020a0382166000908152600284016020526040812054610a58908363ffffffff610a9616565b600160a060020a03841660009081526002860160205260409020556001840154610a88908363ffffffff610a9616565b600194850155509192915050565b600082820183811015610aa557fe5b93925050505600a165627a7a723058201eabf38186fac9d4e31dc833616af6a92f8b2f7a66d0da2197fb5419319fc2070029",
  "source": "pragma solidity ^0.4.23;\n\nimport \"zeppelin-solidity/contracts/token/ERC20/ERC20.sol\";\nimport \"zeppelin-solidity/contracts/math/SafeMath.sol\";\n\nlibrary TokenReceiverLib { \n    using SafeMath for uint256;\n    \n    struct Data {\n        address tokenAddress;\n        uint256 totalDepositedValue;\n        mapping(address => uint256) deposits;\n    }\n\n    function unattributedTokenValue(Data storage self) public view returns (uint256 _value) { \n        ERC20 token = ERC20(self.tokenAddress);\n        uint256 erc20balance = token.balanceOf(address(this));\n\n        if(erc20balance <= 0) {\n            return 0;\n        }\n\n        return erc20balance.sub(self.totalDepositedValue);\n    }\n\n    function attributeUnowned(Data storage self, address owner, uint256 _value) public returns (bool _success) { \n        require(_value > 0, \"Attribution value must be non-zero\");\n        \n        uint256 current = unattributedTokenValue(self);\n        \n        require(_value <= current, \"Attribution of tokens must be less than the unattributed value assigned to this contract\");\n        require(_attribute(self, msg.sender, _value), \"Token attribution must be successful\");\n\n        return true;\n    }\n\n    function depositHere(Data storage self, uint256 _value) public returns (bool _result) { \n        ERC20 token = ERC20(self.tokenAddress);\n        \n        require(token.balanceOf(msg.sender) >= _value, \"Sender must have a token value greater than or equal to the deposit value.\");\n        require(token.transferFrom(msg.sender, address(this), _value), \"Token transfer to contract must be successful.\");\n\n        require(_attribute(self, msg.sender, _value), \"Token attribution must be successful\");\n\n        return true; \n    }\n\n    function _attribute(Data storage self, address owner, uint256 _value) private returns (bool _result) { \n        self.deposits[owner] = self.deposits[owner].add(_value);\n        self.totalDepositedValue = self.totalDepositedValue.add(_value);\n        return true;\n    }\n\n    function withdrawTo(Data storage self, address _address, uint256 _value) public returns (bool _result) { \n        require(_address != address(0), \"Destination address must be non zero.\");\n        require(self.deposits[_address] >= _value, \"Destination address must have deposited atleast the withdrawl value.\");\n\n        ERC20 token = ERC20(self.tokenAddress);\n\n        token.transfer(_address, _value);\n        self.deposits[_address] = self.deposits[_address].sub(_value);\n        self.totalDepositedValue = self.totalDepositedValue.sub(_value);\n\n        return true; \n    }\n\n    function checkERC20Contract(address _address) public view { \n        require(_address != address(0), \"Token contract address must be non zero.\");\n        ERC20 token = ERC20(_address);\n\n        // TODO - these are the only callable function that we can pass\n        // no parameters into, we should get a runtime exception if this\n        // fails, guarding against setting to invalid addresses.\n        // EIP 881 will give a way for querying supported contracts\n        require(token.totalSupply() > 0);\n    }\n}",
  "sourcePath": "/Users/iamwil/projects/freelance/entity_protocol/Contracts/packages/contracts/contracts/util/TokenReceiverLib.sol",
  "compiler": {
    "name": "solc",
    "version": "0.4.23+commit.124ca40d.Emscripten.clang"
  },
  "schemaVersion": "2.0.0",
  "updatedAt": "2018-05-21T21:35:37.888Z"
}