{
  "contractName": "TokenReceiver",
  "abi": [
    {
      "constant": true,
      "inputs": [],
      "name": "tokenAddress",
      "outputs": [
        {
          "name": "",
          "type": "address"
        }
      ],
      "payable": false,
      "stateMutability": "view",
      "type": "function"
    },
    {
      "inputs": [
        {
          "name": "_tokenAddress",
          "type": "address"
        }
      ],
      "payable": false,
      "stateMutability": "nonpayable",
      "type": "constructor"
    },
    {
      "anonymous": false,
      "inputs": [
        {
          "indexed": false,
          "name": "owner",
          "type": "address"
        },
        {
          "indexed": false,
          "name": "value",
          "type": "uint256"
        },
        {
          "indexed": false,
          "name": "currentDeposit",
          "type": "uint256"
        }
      ],
      "name": "Deposited",
      "type": "event"
    },
    {
      "anonymous": false,
      "inputs": [
        {
          "indexed": false,
          "name": "owner",
          "type": "address"
        },
        {
          "indexed": false,
          "name": "value",
          "type": "uint256"
        },
        {
          "indexed": false,
          "name": "currentDeposit",
          "type": "uint256"
        }
      ],
      "name": "Attributed",
      "type": "event"
    },
    {
      "anonymous": false,
      "inputs": [
        {
          "indexed": false,
          "name": "owner",
          "type": "address"
        },
        {
          "indexed": false,
          "name": "value",
          "type": "uint256"
        },
        {
          "indexed": false,
          "name": "currentDeposit",
          "type": "uint256"
        }
      ],
      "name": "Withdraw",
      "type": "event"
    },
    {
      "anonymous": false,
      "inputs": [
        {
          "indexed": false,
          "name": "from",
          "type": "address"
        },
        {
          "indexed": false,
          "name": "to",
          "type": "address"
        },
        {
          "indexed": false,
          "name": "value",
          "type": "uint256"
        },
        {
          "indexed": false,
          "name": "fromCurrentDeposit",
          "type": "uint256"
        },
        {
          "indexed": false,
          "name": "toCurrentDeposit",
          "type": "uint256"
        }
      ],
      "name": "Transfer",
      "type": "event"
    },
    {
      "constant": true,
      "inputs": [
        {
          "name": "_address",
          "type": "address"
        }
      ],
      "name": "depositBalanceOf",
      "outputs": [
        {
          "name": "_value",
          "type": "uint256"
        }
      ],
      "payable": false,
      "stateMutability": "view",
      "type": "function"
    }
  ],
  "bytecode": "0x608060405234801561001057600080fd5b50604051602080610284833981016040525161003481640100000000610059810204565b60008054600160a060020a031916600160a060020a039290921691909117905561018e565b6000600160a060020a03821615156100f857604080517f08c379a000000000000000000000000000000000000000000000000000000000815260206004820152602860248201527f546f6b656e20636f6e74726163742061646472657373206d757374206265206e60448201527f6f6e207a65726f2e000000000000000000000000000000000000000000000000606482015290519081900360840190fd5b819050600081600160a060020a03166318160ddd6040518163ffffffff167c0100000000000000000000000000000000000000000000000000000000028152600401602060405180830381600087803b15801561015457600080fd5b505af1158015610168573d6000803e3d6000fd5b505050506040513d602081101561017e57600080fd5b50511161018a57600080fd5b5050565b60e88061019c6000396000f300608060405260043610602f5763ffffffff60e060020a6000350416639d76ea5881146034578063fba13bd0146062575b600080fd5b348015603f57600080fd5b5060466092565b60408051600160a060020a039092168252519081900360200190f35b348015606d57600080fd5b506080600160a060020a036004351660a1565b60408051918252519081900360200190f35b600054600160a060020a031681565b600160a060020a0316600090815260016020526040902054905600a165627a7a723058209cf5cbecf6b8ab3ca072f987d0ea6e4cbca395d8973c9c0737fc709896d61dd60029",
  "source": "pragma solidity ^0.4.23;\n\nimport \"zeppelin-solidity/contracts/token/ERC20/ERC20.sol\";\nimport \"zeppelin-solidity/contracts/math/SafeMath.sol\";\n                                   \n/**      \n@title TokenReceiver interface \n@author Entity Protocol\n@dev Provides methods to transfer ERC20 tokens to this contract if senders \n     authorize this contract to act on there behalf. Provides book keeping\n     for the amount of tokens \"locked\" into the contract for each sender.\n */         \ncontract TokenReceiver { \n    using SafeMath for uint256;\n\n    /**\n    @dev Address of the ERC20 contract\n     */\n    address public tokenAddress;\n\n    /**\n    @dev Mapping of senders to how much has been transfered on\n         there behalf. \n    */\n    mapping(address => uint256) private deposits; \n\n\n    /**\n    @dev Gets the total value held in this contract \n    */\n    uint256 private totalDepositedValue; \n\n    event Deposited(address owner, uint256 value, uint256 currentDeposit);\n    event Attributed(address owner, uint256 value, uint256 currentDeposit);\n    event Withdraw(address owner, uint256 value, uint256 currentDeposit);\n    event Transfer(address from, address to, uint256 value, uint fromCurrentDeposit, uint toCurrentDeposit);\n\n    /**\n    @notice Constructor for TokenReciver\n    @param _tokenAddress ERC20 contract address that deposits and withdrawls will be executed via.\n    */\n    constructor(address _tokenAddress) public { \n        checkERC20Contract(_tokenAddress);\n        tokenAddress = _tokenAddress;\n    }\n\n    function _unattributedTokenValue() internal view returns (uint256 _value) { \n        ERC20 token = ERC20(tokenAddress);\n        uint256 erc20balance = token.balanceOf(address(this));\n\n        if(erc20balance <= 0) {\n            return 0;\n        }\n\n        return erc20balance.sub(totalDepositedValue);\n    }\n\n    function depositBalanceOf(address _address) public view returns (uint256 _value) { \n        return deposits[_address];\n    }\n\n    function _attributeUnowned(address owner, uint256 _value) internal returns (bool _success) { \n        require(_value > 0, \"Attribution value must be non-zero\");\n        \n        uint256 unattributedTokenValue = _unattributedTokenValue();\n        \n        require(_value <= unattributedTokenValue, \"Attribution of tokens must be less than the unattributed value assigned to this contract\");\n        require(_attribute(owner, _value), \"Token attribution must be successful\");\n\n        emit Attributed(owner, _value, depositBalanceOf(owner));\n        return true;\n    }\n\n    function _depositHere(uint256 _value) internal returns (bool _result) { \n        ERC20 token = ERC20(tokenAddress);\n        \n        require(token.balanceOf(msg.sender) >= _value, \"Sender must have a token value greater than or equal to the deposit value.\");\n        require(token.transferFrom(msg.sender, address(this), _value), \"Token transfer to contract must be successful.\");\n\n        require(_attribute(msg.sender, _value), \"Token attribution must be successful\");\n\n        emit Deposited(msg.sender, _value, depositBalanceOf(msg.sender));\n        return true; \n    }\n\n    function _attribute(address owner, uint256 _value) internal returns (bool _result) { \n        deposits[owner] = deposits[owner].add(_value);\n        totalDepositedValue = totalDepositedValue.add(_value);\n        return true;\n    }\n\n    function _withdrawTo(address _address, uint256 _value) internal returns (bool _result) { \n        require(_address != address(0), \"Destination address must be non zero.\");\n        require(deposits[_address] >= _value, \"Destination address must have deposited atleast the withdrawl value.\");\n\n        ERC20 token = ERC20(tokenAddress);\n\n        token.transfer(_address, _value);\n        deposits[_address] = deposits[_address].sub(_value);\n        totalDepositedValue = totalDepositedValue.sub(_value);\n\n        emit Withdraw(_address, _value, depositBalanceOf(_address));\n        return true; \n    }\n\n    function _transferDeposit(address _from, address _to, uint256 _value) internal returns (bool _result) { \n        require(_from != address(0), \"Origin address must be non zero.\");\n        require(_to != address(0), \"Destination address must be non zero.\");\n        require(_from != _to, \"Origin and destination address must not be the same.\");\n        require(deposits[_from] >= _value, \"Origin address must have deposited atleast the transfer value.\");\n\n        deposits[_from] = deposits[_from].sub(_value);\n        deposits[_to] = deposits[_to].add(_value);\n\n        emit Transfer(_from, _to, _value, depositBalanceOf(_from), depositBalanceOf(_to));\n        return true;\n    }\n\n    function _getTotalTokenValue() internal view returns (uint256 _value) { \n        return totalDepositedValue;\n    }\n\n    /**\n    @dev Attempts to check if the specified address is a valid ERC20 contract\n         by checking that ERC20.totalSupply can be called. Will throw on\n         failure. \n    @param _address Address of contract. \n    */\n    function checkERC20Contract(address _address) private view { \n        require(_address != address(0), \"Token contract address must be non zero.\");\n        ERC20 token = ERC20(_address);\n\n        // TODO - these are the only callable function that we can pass\n        // no parameters into, we should get a runtime exception if this\n        // fails, guarding against setting to invalid addresses.\n        // EIP 881 will give a way for querying supported contracts\n        require(token.totalSupply() > 0);\n    }\n}",
  "sourcePath": "/Users/iamwil/projects/freelance/entity_protocol/Contracts/packages/contracts/contracts/util/TokenReceiver.sol",
  "compiler": {
    "name": "solc",
    "version": "0.4.23+commit.124ca40d.Emscripten.clang"
  },
  "schemaVersion": "2.0.0",
  "updatedAt": "2018-05-22T23:46:40.258Z"
}