{
  "contractName": "VotePayout",
  "abi": [
    {
      "constant": true,
      "inputs": [
        {
          "name": "_value",
          "type": "uint256"
        },
        {
          "name": "_numerator",
          "type": "uint256"
        },
        {
          "name": "_denom",
          "type": "uint256"
        }
      ],
      "name": "calcFraction",
      "outputs": [
        {
          "name": "_result",
          "type": "uint256"
        }
      ],
      "payable": false,
      "stateMutability": "pure",
      "type": "function"
    },
    {
      "constant": true,
      "inputs": [
        {
          "name": "numerator",
          "type": "uint256"
        },
        {
          "name": "denominator",
          "type": "uint256"
        },
        {
          "name": "precision",
          "type": "uint256"
        }
      ],
      "name": "percent",
      "outputs": [
        {
          "name": "quotient",
          "type": "uint256"
        }
      ],
      "payable": false,
      "stateMutability": "pure",
      "type": "function"
    }
  ],
  "bytecode": "0x610179610030600b82828239805160001a6073146000811461002057610022565bfe5b5030600052607381538281f30073000000000000000000000000000000000000000030146080604052600436106100485763ffffffff60e060020a6000350416622c1a9e811461004d578063ea15f11814610070575b600080fd5b61005e600435602435604435610081565b60408051918252519081900360200190f35b61005e6004356024356044356100b6565b600080600083600101600a0a86029150600a858381151561009e57fe5b046005018115156100ab57fe5b049695505050505050565b60008215156100c7575060006100f9565b818314156100d65750826100f9565b6100f6826100ea868663ffffffff61010016565b9063ffffffff61013616565b90505b9392505050565b600080831515610113576000915061012f565b5082820282848281151561012357fe5b041461012b57fe5b8091505b5092915050565b600080828481151561014457fe5b049493505050505600a165627a7a723058208310ee4a84e7036430d39b7253521c34d2d0a448939f76cbebdbc3263c91f6e40029",
  "source": "pragma solidity ^0.4.23;\n\nimport \"zeppelin-solidity/contracts/math/SafeMath.sol\";\n\nlibrary VotePayout { \n    using SafeMath for uint256;\n\n    function calcFraction(uint256 _value, uint _numerator, uint _denom) public pure returns (uint256 _result) { \n        if(_numerator == 0) {\n            return 0;\n        }\n        else if (_numerator == _denom)  {\n            return _value;\n        }\n\n        return _value.mul(_numerator).div(_denom);\n    }\n\n    function percent(uint numerator, uint denominator, uint precision) public pure returns(uint quotient) {\n\n         // caution, check safe-to-multiply here\n        uint _numerator  = numerator * 10 ** (precision + 1);\n        // with rounding of last digit\n        uint _quotient = ((_numerator / denominator) + 5) / 10;\n        return ( _quotient);\n    }\n\n}",
  "sourcePath": "/Users/iamwil/projects/freelance/entity_protocol/Contracts/packages/contracts/contracts/voting/VotePayout.sol",
  "compiler": {
    "name": "solc",
    "version": "0.4.23+commit.124ca40d.Emscripten.clang"
  },
  "schemaVersion": "2.0.0",
  "updatedAt": "2018-05-22T18:07:10.811Z"
}