{
  "contractName": "ChallengeableRegistry",
  "abi": [
    {
      "constant": true,
      "inputs": [
        {
          "name": "_index",
          "type": "uint256"
        }
      ],
      "name": "getAtIndex",
      "outputs": [
        {
          "name": "_key",
          "type": "string"
        },
        {
          "name": "_owner",
          "type": "address"
        },
        {
          "name": "_value",
          "type": "string"
        },
        {
          "name": "_blockHistory",
          "type": "uint256[]"
        },
        {
          "name": "_timestamp",
          "type": "uint256"
        }
      ],
      "payable": false,
      "stateMutability": "view",
      "type": "function"
    },
    {
      "constant": false,
      "inputs": [
        {
          "name": "_key",
          "type": "string"
        },
        {
          "name": "_newOwner",
          "type": "address"
        },
        {
          "name": "_newValue",
          "type": "string"
        },
        {
          "name": "_newStake",
          "type": "uint256"
        }
      ],
      "name": "_transferItem",
      "outputs": [
        {
          "name": "_success",
          "type": "bool"
        }
      ],
      "payable": false,
      "stateMutability": "nonpayable",
      "type": "function"
    },
    {
      "constant": true,
      "inputs": [
        {
          "name": "_index",
          "type": "uint256"
        }
      ],
      "name": "getAtIndexWithStake",
      "outputs": [
        {
          "name": "_key",
          "type": "string"
        },
        {
          "name": "_owner",
          "type": "address"
        },
        {
          "name": "_value",
          "type": "string"
        },
        {
          "name": "_blockHistory",
          "type": "uint256[]"
        },
        {
          "name": "_timestamp",
          "type": "uint256"
        },
        {
          "name": "_stake",
          "type": "uint256"
        }
      ],
      "payable": false,
      "stateMutability": "view",
      "type": "function"
    },
    {
      "constant": true,
      "inputs": [
        {
          "name": "_key",
          "type": "string"
        }
      ],
      "name": "getItemStake",
      "outputs": [
        {
          "name": "_stakeValue",
          "type": "uint256"
        }
      ],
      "payable": false,
      "stateMutability": "view",
      "type": "function"
    },
    {
      "constant": false,
      "inputs": [
        {
          "name": "_key",
          "type": "string"
        },
        {
          "name": "_value",
          "type": "string"
        },
        {
          "name": "_stake",
          "type": "uint256"
        }
      ],
      "name": "addItem",
      "outputs": [
        {
          "name": "_success",
          "type": "bool"
        }
      ],
      "payable": false,
      "stateMutability": "nonpayable",
      "type": "function"
    },
    {
      "constant": false,
      "inputs": [
        {
          "name": "_key",
          "type": "string"
        },
        {
          "name": "_value",
          "type": "string"
        }
      ],
      "name": "editItem",
      "outputs": [
        {
          "name": "_success",
          "type": "bool"
        }
      ],
      "payable": false,
      "stateMutability": "nonpayable",
      "type": "function"
    },
    {
      "constant": true,
      "inputs": [
        {
          "name": "_key",
          "type": "string"
        }
      ],
      "name": "hasItem",
      "outputs": [
        {
          "name": "_exists",
          "type": "bool"
        }
      ],
      "payable": false,
      "stateMutability": "view",
      "type": "function"
    },
    {
      "constant": true,
      "inputs": [],
      "name": "getItemCount",
      "outputs": [
        {
          "name": "_count",
          "type": "uint256"
        }
      ],
      "payable": false,
      "stateMutability": "view",
      "type": "function"
    },
    {
      "constant": true,
      "inputs": [],
      "name": "voteConfiguration",
      "outputs": [
        {
          "name": "style",
          "type": "string"
        },
        {
          "name": "challengePenalty",
          "type": "uint256"
        },
        {
          "name": "votePenalty",
          "type": "uint256"
        },
        {
          "name": "challengeLength",
          "type": "uint256"
        },
        {
          "name": "challengeDistribution",
          "type": "uint256"
        },
        {
          "name": "minVoteStake",
          "type": "uint256"
        },
        {
          "name": "minVoteIncrementalStake",
          "type": "uint256"
        }
      ],
      "payable": false,
      "stateMutability": "view",
      "type": "function"
    },
    {
      "constant": false,
      "inputs": [
        {
          "name": "_key",
          "type": "string"
        },
        {
          "name": "_value",
          "type": "string"
        }
      ],
      "name": "addItem",
      "outputs": [
        {
          "name": "_success",
          "type": "bool"
        }
      ],
      "payable": false,
      "stateMutability": "nonpayable",
      "type": "function"
    },
    {
      "constant": true,
      "inputs": [],
      "name": "voteStyle",
      "outputs": [
        {
          "name": "",
          "type": "string"
        }
      ],
      "payable": false,
      "stateMutability": "view",
      "type": "function"
    },
    {
      "constant": true,
      "inputs": [],
      "name": "tokenAddress",
      "outputs": [
        {
          "name": "",
          "type": "address"
        }
      ],
      "payable": false,
      "stateMutability": "view",
      "type": "function"
    },
    {
      "constant": true,
      "inputs": [],
      "name": "minStakeValue",
      "outputs": [
        {
          "name": "",
          "type": "uint256"
        }
      ],
      "payable": false,
      "stateMutability": "view",
      "type": "function"
    },
    {
      "constant": true,
      "inputs": [
        {
          "name": "_key",
          "type": "string"
        }
      ],
      "name": "getItem",
      "outputs": [
        {
          "name": "_owner",
          "type": "address"
        },
        {
          "name": "_value",
          "type": "string"
        },
        {
          "name": "blockHistory",
          "type": "uint256[]"
        },
        {
          "name": "_timestamp",
          "type": "uint256"
        }
      ],
      "payable": false,
      "stateMutability": "view",
      "type": "function"
    },
    {
      "constant": true,
      "inputs": [
        {
          "name": "_key",
          "type": "string"
        }
      ],
      "name": "getItemWithStake",
      "outputs": [
        {
          "name": "_owner",
          "type": "address"
        },
        {
          "name": "_value",
          "type": "string"
        },
        {
          "name": "_blockHistory",
          "type": "uint256[]"
        },
        {
          "name": "_timestamp",
          "type": "uint256"
        },
        {
          "name": "_stake",
          "type": "uint256"
        }
      ],
      "payable": false,
      "stateMutability": "view",
      "type": "function"
    },
    {
      "constant": true,
      "inputs": [
        {
          "name": "_address",
          "type": "address"
        }
      ],
      "name": "depositBalanceOf",
      "outputs": [
        {
          "name": "_value",
          "type": "uint256"
        }
      ],
      "payable": false,
      "stateMutability": "view",
      "type": "function"
    },
    {
      "constant": true,
      "inputs": [
        {
          "name": "_index",
          "type": "uint256"
        }
      ],
      "name": "getKeyOfIndex",
      "outputs": [
        {
          "name": "_key",
          "type": "string"
        }
      ],
      "payable": false,
      "stateMutability": "view",
      "type": "function"
    },
    {
      "inputs": [
        {
          "name": "_parametersAddress",
          "type": "address"
        },
        {
          "name": "_minStake",
          "type": "uint256"
        },
        {
          "name": "_style",
          "type": "string"
        },
        {
          "name": "_challengePenalty",
          "type": "uint256"
        },
        {
          "name": "_votePenalty",
          "type": "uint256"
        },
        {
          "name": "_challengeLength",
          "type": "uint256"
        },
        {
          "name": "_challengeDistribution",
          "type": "uint256"
        },
        {
          "name": "_minVoteStake",
          "type": "uint256"
        },
        {
          "name": "_minVoteIncrementalStake",
          "type": "uint256"
        }
      ],
      "payable": false,
      "stateMutability": "nonpayable",
      "type": "constructor"
    },
    {
      "anonymous": false,
      "inputs": [
        {
          "indexed": false,
          "name": "key",
          "type": "string"
        },
        {
          "indexed": false,
          "name": "voteContract",
          "type": "address"
        },
        {
          "indexed": false,
          "name": "voteId",
          "type": "uint256"
        }
      ],
      "name": "VoteStarted",
      "type": "event"
    },
    {
      "anonymous": false,
      "inputs": [
        {
          "indexed": false,
          "name": "key",
          "type": "string"
        },
        {
          "indexed": false,
          "name": "voteContract",
          "type": "address"
        },
        {
          "indexed": false,
          "name": "voteId",
          "type": "uint256"
        }
      ],
      "name": "VoteCompleted",
      "type": "event"
    },
    {
      "anonymous": false,
      "inputs": [
        {
          "indexed": false,
          "name": "step",
          "type": "string"
        }
      ],
      "name": "Debug",
      "type": "event"
    },
    {
      "anonymous": false,
      "inputs": [
        {
          "indexed": false,
          "name": "owner",
          "type": "address"
        },
        {
          "indexed": false,
          "name": "value",
          "type": "uint256"
        },
        {
          "indexed": false,
          "name": "currentDeposit",
          "type": "uint256"
        }
      ],
      "name": "Deposited",
      "type": "event"
    },
    {
      "anonymous": false,
      "inputs": [
        {
          "indexed": false,
          "name": "owner",
          "type": "address"
        },
        {
          "indexed": false,
          "name": "value",
          "type": "uint256"
        },
        {
          "indexed": false,
          "name": "currentDeposit",
          "type": "uint256"
        }
      ],
      "name": "Attributed",
      "type": "event"
    },
    {
      "anonymous": false,
      "inputs": [
        {
          "indexed": false,
          "name": "owner",
          "type": "address"
        },
        {
          "indexed": false,
          "name": "value",
          "type": "uint256"
        },
        {
          "indexed": false,
          "name": "currentDeposit",
          "type": "uint256"
        }
      ],
      "name": "Withdraw",
      "type": "event"
    },
    {
      "anonymous": false,
      "inputs": [
        {
          "indexed": false,
          "name": "from",
          "type": "address"
        },
        {
          "indexed": false,
          "name": "to",
          "type": "address"
        },
        {
          "indexed": false,
          "name": "value",
          "type": "uint256"
        },
        {
          "indexed": false,
          "name": "fromCurrentDeposit",
          "type": "uint256"
        },
        {
          "indexed": false,
          "name": "toCurrentDeposit",
          "type": "uint256"
        }
      ],
      "name": "Transfer",
      "type": "event"
    },
    {
      "anonymous": false,
      "inputs": [
        {
          "indexed": false,
          "name": "key",
          "type": "string"
        },
        {
          "indexed": false,
          "name": "index",
          "type": "uint256"
        },
        {
          "indexed": false,
          "name": "owner",
          "type": "address"
        }
      ],
      "name": "AddItem",
      "type": "event"
    },
    {
      "anonymous": false,
      "inputs": [
        {
          "indexed": false,
          "name": "key",
          "type": "string"
        },
        {
          "indexed": false,
          "name": "index",
          "type": "uint256"
        },
        {
          "indexed": false,
          "name": "owner",
          "type": "address"
        }
      ],
      "name": "EditItem",
      "type": "event"
    },
    {
      "anonymous": false,
      "inputs": [
        {
          "indexed": false,
          "name": "key",
          "type": "string"
        },
        {
          "indexed": false,
          "name": "owner",
          "type": "address"
        }
      ],
      "name": "DeleteItem",
      "type": "event"
    },
    {
      "constant": true,
      "inputs": [
        {
          "name": "_key",
          "type": "string"
        }
      ],
      "name": "getActiveVote",
      "outputs": [
        {
          "name": "_voteContract",
          "type": "address"
        },
        {
          "name": "_voteId",
          "type": "uint256"
        }
      ],
      "payable": false,
      "stateMutability": "view",
      "type": "function"
    },
    {
      "constant": false,
      "inputs": [
        {
          "name": "_key",
          "type": "string"
        }
      ],
      "name": "deleteItem",
      "outputs": [
        {
          "name": "_success",
          "type": "bool"
        }
      ],
      "payable": false,
      "stateMutability": "nonpayable",
      "type": "function"
    },
    {
      "constant": false,
      "inputs": [
        {
          "name": "_key",
          "type": "string"
        },
        {
          "name": "_newValue",
          "type": "string"
        },
        {
          "name": "_challengeStake",
          "type": "uint256"
        }
      ],
      "name": "challengeItem",
      "outputs": [
        {
          "name": "_success",
          "type": "bool"
        },
        {
          "name": "_voteId",
          "type": "uint256"
        }
      ],
      "payable": false,
      "stateMutability": "nonpayable",
      "type": "function"
    },
    {
      "constant": true,
      "inputs": [
        {
          "name": "_key",
          "type": "string"
        }
      ],
      "name": "isVotePending",
      "outputs": [
        {
          "name": "_isPending",
          "type": "bool"
        }
      ],
      "payable": false,
      "stateMutability": "view",
      "type": "function"
    },
    {
      "constant": false,
      "inputs": [
        {
          "name": "_voteId",
          "type": "uint256"
        },
        {
          "name": "_key",
          "type": "string"
        },
        {
          "name": "_winner",
          "type": "address"
        },
        {
          "name": "_value",
          "type": "string"
        },
        {
          "name": "_stake",
          "type": "uint256"
        }
      ],
      "name": "assignVoteOutcome",
      "outputs": [
        {
          "name": "_success",
          "type": "bool"
        }
      ],
      "payable": false,
      "stateMutability": "nonpayable",
      "type": "function"
    }
  ],
  "bytecode": "0x60806040523480156200001157600080fd5b5060405162004fe138038062004fe18339810180604052620000379190810190620005b0565b888881600160a060020a031663791b6d606040518163ffffffff167c0100000000000000000000000000000000000000000000000000000000028152600401620000819062000a72565b602060405180830381600087803b1580156200009c57600080fd5b505af1158015620000b1573d6000803e3d6000fd5b505050506040513d601f19601f82011682018060405250620000d7919081019062000587565b620000eb8164010000000062000375810204565b60028054600160a060020a031916600160a060020a03929092169190911790556000811162000151576040517f08c379a0000000000000000000000000000000000000000000000000000000008152600401620001489062000a99565b60405180910390fd5b60055550865160001062000193576040517f08c379a0000000000000000000000000000000000000000000000000000000008152600401620001489062000a2a565b6064861115620001d1576040517f08c379a0000000000000000000000000000000000000000000000000000000008152600401620001489062000a60565b60648511156200020f576040517f08c379a0000000000000000000000000000000000000000000000000000000008152600401620001489062000a18565b610e108410156200024e576040517f08c379a0000000000000000000000000000000000000000000000000000000008152600401620001489062000abd565b600082116200028b576040517f08c379a0000000000000000000000000000000000000000000000000000000008152600401620001489062000a3c565b60008111620002c8576040517f08c379a0000000000000000000000000000000000000000000000000000000008152600401620001489062000aab565b606483111562000306576040517f08c379a0000000000000000000000000000000000000000000000000000000008152600401620001489062000a4e565b86516200031b90600e9060208a019062000463565b508651620003319060079060208a019062000463565b50600895909555600993909355600a91909155600b55600c55600d555050600f8054600160a060020a031916600160a060020a039290921691909117905562000b5d565b6000600160a060020a0382161515620003bc576040517f08c379a0000000000000000000000000000000000000000000000000000000008152600401620001489062000a00565b819050600081600160a060020a03166318160ddd6040518163ffffffff167c0100000000000000000000000000000000000000000000000000000000028152600401602060405180830381600087803b1580156200041957600080fd5b505af11580156200042e573d6000803e3d6000fd5b505050506040513d601f19601f820116820180604052506200045491908101906200069f565b116200045f57600080fd5b5050565b828054600181600116156101000203166002900490600052602060002090601f016020900481019282601f10620004a657805160ff1916838001178555620004d6565b82800160010185558215620004d6579182015b82811115620004d6578251825591602001919060010190620004b9565b50620004e4929150620004e8565b5090565b6200050591905b80821115620004e45760008155600101620004ef565b90565b600062000516825162000b1e565b9392505050565b6000601f820183136200052f57600080fd5b815162000546620005408262000af6565b62000acf565b915080825260208301602083018583830111156200056357600080fd5b6200057083828462000b2a565b50505092915050565b600062000516825162000505565b6000602082840312156200059a57600080fd5b6000620005a8848462000508565b949350505050565b60008060008060008060008060006101208a8c031215620005d057600080fd5b6000620005de8c8c62000508565b9950506020620005f18c828d0162000579565b98505060408a01516001604060020a038111156200060e57600080fd5b6200061c8c828d016200051d565b97505060606200062f8c828d0162000579565b9650506080620006428c828d0162000579565b95505060a0620006558c828d0162000579565b94505060c0620006688c828d0162000579565b93505060e06200067b8c828d0162000579565b9250506101006200068f8c828d0162000579565b9150509295985092959850929598565b600060208284031215620006b257600080fd5b6000620005a8848462000579565b602881527f546f6b656e20636f6e74726163742061646472657373206d757374206265206e60208201527f6f6e207a65726f2e000000000000000000000000000000000000000000000000604082015260600190565b603181527f566f74696e672070656e616c7479206d757374206265206c657373207468616e60208201527f206f7220657175616c20746f2031303025000000000000000000000000000000604082015260600190565b602b81527f566f7465207374796c652069732073657420746f206e6f6e2d7a65726f206c6560208201527f6e67746820737472696e67000000000000000000000000000000000000000000604082015260600190565b602681527f4d696e756d756d20766f74696e67207374616b65206d757374206265206e6f6e60208201527f207a65726f2e0000000000000000000000000000000000000000000000000000604082015260600190565b602d81527f4368616c6c656e676520646973747269627574696f6e206d757374206265206c60208201527f657373207468616e203130302500000000000000000000000000000000000000604082015260600190565b603481527f4368616c6c656e67652070656e616c7479206d757374206265206c657373207460208201527f68616e206f7220657175616c20746f2031303025000000000000000000000000604082015260600190565b600481527f434f524500000000000000000000000000000000000000000000000000000000602082015260400190565b600581527f544f4b454e000000000000000000000000000000000000000000000000000000602082015260400190565b601f81527f4d696e696d756d207374616b65206d757374206265206e6f6e207a65726f2e00602082015260400190565b603281527f4d696e756d756d20766f74696e6720696e6372656d656e74616c207374616b6560208201527f206d757374206265206e6f6e207a65726f2e0000000000000000000000000000604082015260600190565b602881527f4368616c6c656e6765206c656e677468206d7573742062652061746c6561737460208201527f203120686f75722e000000000000000000000000000000000000000000000000604082015260600190565b6020808252810162000a1281620006c0565b92915050565b6020808252810162000a128162000716565b6020808252810162000a12816200076c565b6020808252810162000a1281620007c2565b6020808252810162000a128162000818565b6020808252810162000a12816200086e565b6040808252810162000a8481620008c4565b9050818103602083015262000a1281620008f4565b6020808252810162000a128162000924565b6020808252810162000a128162000954565b6020808252810162000a1281620009aa565b6040518181016001604060020a038111828210171562000aee57600080fd5b604052919050565b60006001604060020a0382111562000b0d57600080fd5b506020601f91909101601f19160190565b600160a060020a031690565b60005b8381101562000b4757818101518382015260200162000b2d565b8381111562000b57576000848401525b50505050565b6144748062000b6d6000396000f30060806040526004361061010e5763ffffffff60e060020a6000350416631b26aafd81146101135780631fe62fe21461014d5780632c9c5e5e1461017a57806345e6f227146101ac57806346c2abdf146101d95780635992d1911461020757806364432eb8146102275780636521f437146102475780636a192d6a14610267578063712fac6c146102875780637749cf23146102a757806379fe158b146102bc5780637ed8a719146102e45780638360bd91146103045780639d76ea5814610326578063a8d6e68e14610348578063ad52a6c71461035d578063af7b77f51461037d578063b6010fcd146103ab578063d2e40f1b146103db578063fba13bd01461040c578063fc032c521461042c575b600080fd5b34801561011f57600080fd5b5061013361012e366004613178565b61044c565b604051610144959493929190613f85565b60405180910390f35b34801561015957600080fd5b5061016d610168366004613013565b610607565b6040516101449190613f38565b34801561018657600080fd5b5061019a610195366004613178565b61072f565b60405161014496959493929190613fda565b3480156101b857600080fd5b506101cc6101c7366004612fdf565b610762565b6040516101449190614356565b3480156101e557600080fd5b506101f96101f4366004612fdf565b6107cc565b604051610144929190613f02565b34801561021357600080fd5b5061016d6102223660046131b4565b6108a8565b34801561023357600080fd5b5061016d6102423660046130fe565b610b4d565b34801561025357600080fd5b5061016d610262366004612fdf565b610cb0565b34801561027357600080fd5b5061016d6102823660046130a1565b610cea565b34801561029357600080fd5b5061016d6102a2366004612fdf565b610f7f565b3480156102b357600080fd5b506101cc611013565b3480156102c857600080fd5b506102d161101a565b6040516101449796959493929190614094565b3480156102f057600080fd5b5061016d6102ff3660046130a1565b6110d0565b34801561031057600080fd5b506103196113d3565b6040516101449190613f54565b34801561033257600080fd5b5061033b611461565b6040516101449190613dfa565b34801561035457600080fd5b506101cc611470565b34801561036957600080fd5b5061016d610378366004612fdf565b611476565b34801561038957600080fd5b5061039d6103983660046130fe565b61155c565b604051610144929190613f46565b3480156103b757600080fd5b506103cb6103c6366004612fdf565b6119bd565b6040516101449493929190613e7c565b3480156103e757600080fd5b506103fb6103f6366004612fdf565b611b6a565b604051610144959493929190613ebf565b34801561041857600080fd5b506101cc610427366004612f4b565b611b99565b34801561043857600080fd5b50610319610447366004613178565b611bb4565b6060600060608060008080549050861015156104865760405160e560020a62461bcd02815260040161047d90614195565b60405180910390fd5b61053060008781548110151561049857fe5b600091825260209182902001805460408051601f60026000196101006001871615020190941693909304928301859004850281018501909152818152928301828280156105265780601f106104fb57610100808354040283529160200191610526565b820191906000526020600020905b81548152906001019060200180831161050957829003601f168201915b50505050506119bd565b600080549498509296509094509250908790811061054a57fe5b9060005260206000200184848484848054600181600116156101000203166002900480601f0160208091040260200160405190810160405280929190818152602001828054600181600116156101000203166002900480156105ed5780601f106105c2576101008083540402835291602001916105ed565b820191906000526020600020905b8154815290600101906020018083116105d057829003601f168201915b505050505094509450945094509450945091939590929450565b60006006856040518082805190602001908083835b6020831061063b5780518252601f19909201916020918201910161061c565b51815160209384036101000a600019018019909216911617905292019485525060405193849003019092206001015460ff161515915061069290505760405160e560020a62461bcd02815260040161047d906141b5565b61069d858585611c5f565b15156106be5760405160e560020a62461bcd02815260040161047d90614315565b816006866040518082805190602001908083835b602083106106f15780518252601f1990920191602091820191016106d2565b51815160209384036101000a60001901801990921691161790529201948552506040519384900301909220929092555060019150505b949350505050565b606060006060806000806107428761044c565b93995091975095509350915061075786610762565b905091939550919395565b60006006826040518082805190602001908083835b602083106107965780518252601f199092019160209182019101610777565b51815160209384036101000a6000190180199092169116179052920194855250604051938490030190922054925050505b919050565b6000806010836040518082805190602001908083835b602083106108015780518252601f1990920191602091820191016107e2565b51815160209384036101000a60001901801990921691161790529201948552506040519384900381018420548751600160a060020a039091169460109450889350918291908401908083835b6020831061086c5780518252601f19909201916020918201910161084d565b51815160209384036101000a60001901801990921691161790529201948552506040519384900301909220600101549296929550919350505050565b6000856010866040518082805190602001908083835b602083106108dd5780518252601f1990920191602091820191016108be565b6001836020036101000a038019825116818451168082178552505050505050905001915050908152602001604051809103902060010154141580610996575033600160a060020a03166010866040518082805190602001908083835b602083106109585780518252601f199092019160209182019101610939565b51815160209384036101000a6000190180199092169116179052920194855250604051938490030190922054600160a060020a031692909214159150505b156109a357506000610b44565b6109ad8483611e9a565b15156109bb57506000610b44565b6010856040518082805190602001908083835b602083106109ed5780518252601f1990920191602091820191016109ce565b51815160209384036101000a600019018019909216911617905292019485525060405193849003810184208054600160a060020a031916815560006001820155600201805460ff1916905588517fb5ee5f3db3fc47fcbd98e2634af673000358439100c9f53c124c3dd6cb7edc1b948a9450601093508492909182918401908083835b60208310610a8f5780518252601f199092019160209182019101610a70565b51815160209384036101000a60001901801990921691161790529201948552506040519384900381018420548b51600160a060020a0390911694601094508c9350918291908401908083835b60208310610afa5780518252601f199092019160209182019101610adb565b51815160209384036101000a60001901801990921691161790529201948552506040519384900301832060010154610b389594939092509050614047565b60405180910390a15060015b95945050505050565b600554600090821015610b755760405160e560020a62461bcd02815260040161047d90614225565b610b7e82611f64565b1515610b9f5760405160e560020a62461bcd02815260040161047d90614285565b610ba984846110d0565b1515610bca5760405160e560020a62461bcd02815260040161047d90614215565b816006856040518082805190602001908083835b60208310610bfd5780518252601f199092019160209182019101610bde565b51815160209384036101000a600019018019909216911617905292019485525060405193849003810184209490945550508551600192600692889290918291908401908083835b60208310610c635780518252601f199092019160209182019101610c44565b51815160209384036101000a600019018019909216911617905292019485525060405193849003019092206001908101805460ff19169415159490941790935550909150505b9392505050565b6000610cbb8261211b565b15610cdb5760405160e560020a62461bcd02815260040161047d90614185565b610ce482612188565b92915050565b600033600160a060020a03166001846040518082805190602001908083835b60208310610d285780518252601f199092019160209182019101610d09565b51815160209384036101000a6000190180199092169116179052920194855250604051938490030190922060010154600160a060020a0316929092149150610d8790505760405160e560020a62461bcd02815260040161047d906141a5565b426001846040518082805190602001908083835b60208310610dba5780518252601f199092019160209182019101610d9b565b51815160209384036101000a6000190180199092169116179052920194855250604051938490038101842060040194909455505084518492600192879290918291908401908083835b60208310610e225780518252601f199092019160209182019101610e03565b51815160209384036101000a60001901801990921691161790529201948552506040519384900381019093208451610e67956002909201949190910192509050612c59565b506001836040518082805190602001908083835b60208310610e9a5780518252601f199092019160209182019101610e7b565b51815160209384036101000a600019018019909216911617905292019485525060405193849003810184206003018054600180820183556000928352918390204391015587517f25786f3fdf6fd4a6da97daddf22e5a247ca664b4540c0a42b0f7597b7edfa4679589955091935084928291908401908083835b60208310610f335780518252601f199092019160209182019101610f14565b51815160209384036101000a60001901801990921691161790529201948552506040519384900301832054610f6e9493909250339150614067565b60405180910390a150600192915050565b600080541515610f91575060006107c7565b6000600160a060020a03166001836040518082805190602001908083835b60208310610fce5780518252601f199092019160209182019101610faf565b51815160209384036101000a6000190180199092169116179052920194855250604051938490030190922060010154600160a060020a03169290921415949350505050565b6000545b90565b60078054604080516020601f600260001961010060018816150201909516949094049384018190048102820181019092528281529183918301828280156110a25780601f10611077576101008083540402835291602001916110a2565b820191906000526020600020905b81548152906001019060200180831161108557829003601f168201915b5050505050908060010154908060020154908060030154908060040154908060050154908060060154905087565b60006110db83610f7f565b156110fb5760405160e560020a62461bcd02815260040161047d90614235565b336001846040518082805190602001908083835b6020831061112e5780518252601f19909201916020918201910161110f565b51815160209384036101000a6000190180199092169116179052920194855250604051938490038101842060019081018054600160a060020a031916600160a060020a0397909716969096179095558751429594899450925082918401908083835b602083106111af5780518252601f199092019160209182019101611190565b51815160209384036101000a6000190180199092169116179052920194855250604051938490038101842060040194909455505084518492600192879290918291908401908083835b602083106112175780518252601f1990920191602091820191016111f8565b51815160209384036101000a6000190180199092169116179052920194855250604051938490038101909320845161125c956002909201949190910192509050612c59565b5060005460405184516001918691819060208401908083835b602083106112945780518252601f199092019160209182019101611275565b51815160209384036101000a60001901801990921691161790529201948552506040519384900381018420949094555050845160019286929182918401908083835b602083106112f55780518252601f1990920191602091820191016112d6565b51815160209384036101000a600019018019909216911617905292019485525060405193849003810190932060030180546001808201835560009283528583204392019190915581549081018083559180528751919461137e94507f290decd9548b62a8d60345a988386fc84ba6bc95484008f6362f93160ef3e5639091019250870190612c59565b50507f6cd3677267cf3988b4658f076d0b0ab41b94f04f4deaf29f569bfe7e3e7d7a118360018560405180828051906020019080838360208310610f335780518252601f199092019160209182019101610f14565b600e805460408051602060026001851615610100026000190190941693909304601f810184900484028201840190925281815292918301828280156114595780601f1061142e57610100808354040283529160200191611459565b820191906000526020600020905b81548152906001019060200180831161143c57829003601f168201915b505050505081565b600254600160a060020a031681565b60055481565b60006010826040518082805190602001908083835b602083106114aa5780518252601f19909201916020918201910161148b565b51815160209384036101000a600019018019909216911617905292019485525060405193849003019092206002015460ff169150508015610ce457506010826040518082805190602001908083835b602083106115185780518252601f1990920191602091820191016114f9565b51815160001960209485036101000a01908116901990911617905292019485525060405193849003019092205433600160a060020a03908116911614949350505050565b6000806000611569612cd7565b60008060006115778a610f7f565b15156115985760405160e560020a62461bcd02815260040161047d906142a5565b6115a18a61211b565b156115c15760405160e560020a62461bcd02815260040161047d90614255565b876115cb8b610762565b106115eb5760405160e560020a62461bcd02815260040161047d90614265565b6115f488611f64565b15156116155760405160e560020a62461bcd02815260040161047d906142b5565b600f5460405160e560020a6303c8db6b028152600160a060020a039091169063791b6d609061164990600e90600401614101565b602060405180830381600087803b15801561166357600080fd5b505af1158015611677573d6000803e3d6000fd5b505050506040513d601f19601f8201168201806040525061169b9190810190612f69565b9450600160a060020a03851615156116c85760405160e560020a62461bcd02815260040161047d90614125565b6116d48a338b8b61233f565b93506116e084866124c5565b600160108b6040518082805190602001908083835b602083106117145780518252601f1990920191602091820191016116f5565b51815160209384036101000a60001901801990921691161790529201948552506040519384900381018420600201805460ff19169515159590951790945550508b5187926010928e9290918291908401908083835b602083106117885780518252601f199092019160209182019101611769565b51815160209384036101000a6000190180199092169116179052920194855250604051938490030183208054600160a060020a031916600160a060020a03958616179055505060e160020a6343e010f502815286945060009350839250908416906387c021ea906117fd908790600401614345565b6040805180830381600087803b15801561181657600080fd5b505af115801561182a573d6000803e3d6000fd5b505050506040513d601f19601f8201168201806040525061184e9190810190612fa5565b90925090508115156118755760405160e560020a62461bcd02815260040161047d90614135565b600081116118985760405160e560020a62461bcd02815260040161047d906142e5565b600060108b6040518082805190602001908083835b602083106118cc5780518252601f1990920191602091820191016118ad565b51815160209384036101000a60001901801990921691161790529201948552506040519384900381018420600201805460ff19169515159590951790945550508b5183926010928e9290918291908401908083835b602083106119405780518252601f199092019160209182019101611921565b51815160209384036101000a60001901801990921691161790529201948552506040519384900301832060010193909355507f9b2667995075fdc7b23fdb06d5b689f675e33dbe67d54ff8940540a961b82a6c91506119a4908c9088908590614047565b60405180910390a160019a909950975050505050505050565b60006060806000806001866040518082805190602001908083835b602083106119f75780518252601f1990920191602091820191016119d8565b51815160209384036101000a600019018019909216911617905292019485525060405193849003019092206001810154909350600160a060020a031615159150611a5890505760405160e560020a62461bcd02815260040161047d90614175565b600180820154600483015460028085018054604080516020601f600019998516156101000299909901909316949094049687018290048202840182019052858352600160a060020a03909416949093600387019392918591830182828015611b015780601f10611ad657610100808354040283529160200191611b01565b820191906000526020600020905b815481529060010190602001808311611ae457829003601f168201915b5050505050925081805480602002602001604051908101604052809291908181526020018280548015611b5357602002820191906000526020600020905b815481526020019060010190808311611b3f575b505050505091509450945094509450509193509193565b6000606080600080611b7b866119bd565b92975090955093509150611b8e86610762565b905091939590929450565b600160a060020a031660009081526003602052604090205490565b6060600082815481101515611bc557fe5b600091825260209182902001805460408051601f6002600019610100600187161502019094169390930492830185900485028101850190915281815292830182828015611c535780601f10611c2857610100808354040283529160200191611c53565b820191906000526020600020905b815481529060010190602001808311611c3657829003601f168201915b50505050509050919050565b6000611c6a84610f7f565b1515611c8b5760405160e560020a62461bcd02815260040161047d90614275565b600160a060020a0383161515611cb65760405160e560020a62461bcd02815260040161047d906141f5565b826001856040518082805190602001908083835b60208310611ce95780518252601f199092019160209182019101611cca565b51815160209384036101000a6000190180199092169116179052920194855250604051938490038101842060019081018054600160a060020a031916600160a060020a03979097169690961790955588514295948a9450925082918401908083835b60208310611d6a5780518252601f199092019160209182019101611d4b565b51815160209384036101000a6000190180199092169116179052920194855250604051938490038101842060040194909455505085518492600192889290918291908401908083835b60208310611dd25780518252601f199092019160209182019101611db3565b51815160209384036101000a60001901801990921691161790529201948552506040519384900381019093208451611e17956002909201949190910192509050612c59565b506001846040518082805190602001908083835b60208310611e4a5780518252601f199092019160209182019101611e2b565b51815160209384036101000a600019018019909216911617905292019485525060405193849003810190932060030180546001808201835560009283529490912043910155509095945050505050565b600080808311611ebf5760405160e560020a62461bcd02815260040161047d90614325565b611ec7612530565b905080831115611eec5760405160e560020a62461bcd02815260040161047d906142c5565b611ef684846125e9565b1515611f175760405160e560020a62461bcd02815260040161047d906141c5565b7f8540bed8cad4b2e253a5fc5c295b9585af6ae5886a68b48cb905f705b7d071418484611f4387611b99565b604051611f5293929190613f1d565b60405180910390a15060019392505050565b60025460405160e060020a6370a08231028152600091600160a060020a031690839082906370a0823190611f9c903390600401613dfa565b602060405180830381600087803b158015611fb657600080fd5b505af1158015611fca573d6000803e3d6000fd5b505050506040513d601f19601f82011682018060405250611fee9190810190613196565b101561200f5760405160e560020a62461bcd02815260040161047d90614295565b60405160e060020a6323b872dd028152600160a060020a038216906323b872dd9061204290339030908890600401613e08565b602060405180830381600087803b15801561205c57600080fd5b505af1158015612070573d6000803e3d6000fd5b505050506040513d601f19601f820116820180604052506120949190810190612f87565b15156120b55760405160e560020a62461bcd02815260040161047d90614145565b6120bf33846125e9565b15156120e05760405160e560020a62461bcd02815260040161047d906141c5565b7f73a19dd210f1a7f902193214c0ee91dd35ee5b4d920cba8d519eca65a7b488ca338461210c33611b99565b604051610f6e93929190613f1d565b60006010826040518082805190602001908083835b6020831061214f5780518252601f199092019160209182019101612130565b51815160209384036101000a60001901801990921691161790529201948552506040519384900301909220600101541515949350505050565b60006006826040518082805190602001908083835b602083106121bc5780518252601f19909201916020918201910161219d565b51815160209384036101000a600019018019909216911617905292019485525060405193849003019092206001015460ff161515915061221390505760405160e560020a62461bcd02815260040161047d90614305565b61221c8261264a565b151561223d5760405160e560020a62461bcd02815260040161047d906141d5565b6122a8336006846040518082805190602001908083835b602083106122735780518252601f199092019160209182019101612254565b51815160209384036101000a600019018019909216911617905292019485525060405193849003019092205491506129409050565b15156122c95760405160e560020a62461bcd02815260040161047d90614205565b6006826040518082805190602001908083835b602083106122fb5780518252601f1990920191602091820191016122dc565b51815160209384036101000a60001901801990921691161790529201948552506040519384900301909220600081556001908101805460ff19169055949350505050565b612347612cd7565b6000606080600080612357612cd7565b6123608b611b6a565b939950919750955093509150600160a060020a03808716908b16141561239b5760405160e560020a62461bcd02815260040161047d906141e5565b8a815260208082018051600160a060020a0389811690915281518301889052905160409081018590528084018051928e16909252815183018c9052905181018a9052805160078054600260018216156101009081026000190190921604601f81018690049095028301810190935260e0820184815291939092849291849184018282801561246a5780601f1061243f5761010080835404028352916020019161246a565b820191906000526020600020905b81548152906001019060200180831161244d57829003601f168201915b50505091835250506001820154602082015260028201546040820152600382015460608083019190915260048301546080830152600583015460a083015260069092015460c0909101528201529a9950505050505050505050565b60006124ea836040015160400151846020015160400151612ab890919063ffffffff16565b905061250783602001516000015183856020015160400151612ac7565b50604080840151805191015161251f91908490612ac7565b5061252a8282612940565b50505050565b60025460405160e060020a6370a08231028152600091600160a060020a031690829082906370a0823190612568903090600401613dfa565b602060405180830381600087803b15801561258257600080fd5b505af1158015612596573d6000803e3d6000fd5b505050506040513d601f19601f820116820180604052506125ba9190810190613196565b9050600081116125cd57600092506125e4565b6004546125e190829063ffffffff612c4716565b92505b505090565b600160a060020a038216600090815260036020526040812054612612908363ffffffff612ab816565b600160a060020a03841660009081526003602052604090205560045461263e908363ffffffff612ab816565b60045550600192915050565b600080600033600160a060020a03166001856040518082805190602001908083835b6020831061268b5780518252601f19909201916020918201910161266c565b51815160209384036101000a6000190180199092169116179052920194855250604051938490030190922060010154600160a060020a03169290921491506126ea90505760405160e560020a62461bcd02815260040161047d906142f5565b6001846040518082805190602001908083835b6020831061271c5780518252601f1990920191602091820191016126fd565b51815160209384036101000a60001901801990921691161790529201948552506040519384900381018420548851909650600194899450925082918401908083835b6020831061277d5780518252601f19909201916020918201910161275e565b51815160209384036101000a600019018019909216911617905292019485525060405193849003019092206000808255600182018054600160a060020a031916905590925090506127d16002830182612d12565b6127df600383016000612d59565b50600060049190910181905554600019019050808210156128d75781600160008381548110151561280c57fe5b9060005260206000200160405180828054600181600116156101000203166002900480156128715780601f1061284f576101008083540402835291820191612871565b820191906000526020600020905b81548152906001019060200180831161285d575b5050928352505060405190819003602001902055600080548290811061289357fe5b906000526020600020016000838154811015156128ac57fe5b9060005260206000200190805460018160011615610100020316600290046128d5929190612d77565b505b60008054829081106128e557fe5b9060005260206000200160006128fb9190612d12565b600080549061290e906000198301612dec565b507f550cd5e798bafe5dfd6a32b42aa834eb157a699a56e2232a7b7b45bcd5b907688433604051611f52929190613f65565b600080600160a060020a038416151561296e5760405160e560020a62461bcd02815260040161047d90614155565b600160a060020a0384166000908152600360205260409020548311156129a95760405160e560020a62461bcd02815260040161047d906142d5565b5060025460405160e060020a63a9059cbb028152600160a060020a0390911690819063a9059cbb906129e19087908790600401613f02565b602060405180830381600087803b1580156129fb57600080fd5b505af1158015612a0f573d6000803e3d6000fd5b505050506040513d601f19601f82011682018060405250612a339190810190612f87565b50600160a060020a038416600090815260036020526040902054612a5d908463ffffffff612c4716565b600160a060020a038516600090815260036020526040902055600454612a89908463ffffffff612c4716565b6004557ff279e6a1f5e320cca91135676d9cb6e44ca8a08c0b88342bcdb1144f6511b5688484611f4382611b99565b600082820183811015610ca957fe5b6000600160a060020a0384161515612af45760405160e560020a62461bcd02815260040161047d90614165565b600160a060020a0383161515612b1f5760405160e560020a62461bcd02815260040161047d90614155565b600160a060020a038481169084161415612b4e5760405160e560020a62461bcd02815260040161047d90614245565b600160a060020a038416600090815260036020526040902054821115612b895760405160e560020a62461bcd02815260040161047d90614335565b600160a060020a038416600090815260036020526040902054612bb2908363ffffffff612c4716565b600160a060020a038086166000908152600360205260408082209390935590851681522054612be7908363ffffffff612ab816565b600160a060020a0384166000908152600360205260409020557fc817d75deaa278e988c41cf549ef38fe195ab65e0e64cd67ba47f0d185690d58848484612c2d83611b99565b612c3688611b99565b604051611f52959493929190613e30565b600082821115612c5357fe5b50900390565b828054600181600116156101000203166002900490600052602060002090601f016020900481019282601f10612c9a57805160ff1916838001178555612cc7565b82800160010185558215612cc7579182015b82811115612cc7578251825591602001919060010190612cac565b50612cd3929150612e15565b5090565b6101c06040519081016040528060608152602001612cf3612e2f565b8152602001612d00612e2f565b8152602001612d0d612e5a565b905290565b50805460018160011615610100020316600290046000825580601f10612d385750612d56565b601f016020900490600052602060002090810190612d569190612e15565b50565b5080546000825590600052602060002090810190612d569190612e15565b828054600181600116156101000203166002900490600052602060002090601f016020900481019282601f10612db05780548555612cc7565b82800160010185558215612cc757600052602060002091601f016020900482015b82811115612cc7578254825591600101919060010190612dd1565b815481835581811115612e1057600083815260209020612e10918101908301612e98565b505050565b61101791905b80821115612cd35760008155600101612e1b565b6060604051908101604052806000600160a060020a0316815260200160608152602001600081525090565b60e060405190810160405280606081526020016000815260200160008152602001600081526020016000815260200160008152602001600081525090565b61101791905b80821115612cd3576000612eb28282612d12565b50600101612e9e565b6000610ca982356143c7565b6000610ca982516143c7565b6000610ca982516143d3565b6000601f82018313612ef057600080fd5b8135612f03612efe8261438a565b614364565b91508082526020830160208301858383011115612f1f57600080fd5b612f2a8382846143d8565b50505092915050565b6000610ca98235611017565b6000610ca98251611017565b600060208284031215612f5d57600080fd5b60006107278484612ebb565b600060208284031215612f7b57600080fd5b60006107278484612ec7565b600060208284031215612f9957600080fd5b60006107278484612ed3565b60008060408385031215612fb857600080fd5b6000612fc48585612ed3565b9250506020612fd585828601612f3f565b9150509250929050565b600060208284031215612ff157600080fd5b81356001604060020a0381111561300757600080fd5b61072784828501612edf565b6000806000806080858703121561302957600080fd5b84356001604060020a0381111561303f57600080fd5b61304b87828801612edf565b945050602061305c87828801612ebb565b93505060408501356001604060020a0381111561307857600080fd5b61308487828801612edf565b925050606061309587828801612f33565b91505092959194509250565b600080604083850312156130b457600080fd5b82356001604060020a038111156130ca57600080fd5b6130d685828601612edf565b92505060208301356001604060020a038111156130f257600080fd5b612fd585828601612edf565b60008060006060848603121561311357600080fd5b83356001604060020a0381111561312957600080fd5b61313586828701612edf565b93505060208401356001604060020a0381111561315157600080fd5b61315d86828701612edf565b925050604061316e86828701612f33565b9150509250925092565b60006020828403121561318a57600080fd5b60006107278484612f33565b6000602082840312156131a857600080fd5b60006107278484612f3f565b600080600080600060a086880312156131cc57600080fd5b60006131d88888612f33565b95505060208601356001604060020a038111156131f457600080fd5b61320088828901612edf565b945050604061321188828901612ebb565b93505060608601356001604060020a0381111561322d57600080fd5b61323988828901612edf565b925050608061324a88828901612f33565b9150509295509295909350565b613260816143c7565b82525050565b6000613271826143c3565b808452602084019350613283836143b1565b60005b828110156132b357613299868351613df1565b6132a2826143b1565b602096909601959150600101613286565b5093949350505050565b613260816143d3565b60006132d1826143c3565b8084526132e58160208601602086016143e4565b6132ee81614410565b9093016020019392505050565b600081546001811660008114613318576001811461333657613372565b60028204607f16855260ff1982166020860152604085019250613372565b6002820480865260208601955061334c856143b7565b60005b8281101561336b5781548882015260019091019060200161334f565b8701945050505b505092915050565b6004815260e060020a63564f544502602082015260400190565b602381527f566f746520636f6e74726f6c6c65722061646472657373206d75737420626520602082015260ea60020a621cd95d02604082015260600190565b602381527f566f7465206d7573742062652062652073756363657366756c6c792063726561602082015260ea60020a621d195902604082015260600190565b602e81527f546f6b656e207472616e7366657220746f20636f6e7472616374206d757374206020820152609160020a6d31329039bab1b1b2b9b9b33ab61702604082015260600190565b602581527f44657374696e6174696f6e2061646472657373206d757374206265206e6f6e20602082015260d960020a643d32b9379702604082015260600190565b60208082527f4f726967696e2061646472657373206d757374206265206e6f6e207a65726f2e9082015260400190565b602181527f4974656d206d757374206861766520616e206f776e65722061737369676e6564602082015260f960020a601702604082015260600190565b602981527f4974656d2063616e6e6f742062652064656c65746564207768696c7374206368602082015260b960020a6830b63632b733b2b21702604082015260600190565b604381527f496e646578206d757374206265206c657373207468616e20746865206375727260208201527f656e7420636f756e74206f66206974656d7320696e2074686520726567697374604082015260e960020a62393c9702606082015260800190565b602581527f53656e646572206f662065646974206d757374206265206f776e6572206f6620602082015260d960020a6434ba32b69702604082015260600190565b601c81527f4974656d206d75737420657869737420746f207472616e736665722e00000000602082015260400190565b602481527f546f6b656e206174747269627574696f6e206d75737420626520737563636573602082015260e260020a631cd99d5b02604082015260600190565b602c815260008051602061441b833981519152602082015260a160020a6b3232b632ba329034ba32b69702604082015260600190565b602a81527f4f776e6572206f66206974656d206d6179206e6f74206368616c6c656e676520602082015260b060020a697468656d73656c76657302604082015260600190565b602381527f4e6577206f776e65722061646472657373206d757374206265206e6f6e207a65602082015260e960020a6239379702604082015260600190565b602281527f546f6b656e207769746864726177206d75737420626520737563636573736675602082015260f160020a61361702604082015260600190565b6029815260008051602061441b833981519152602082015260b960020a6830b2321034ba32b69702604082015260600190565b603a81527f5374616b652076616c7565206d7573742062652067726561746572207468616e60208201527f206f7220657175616c20746f206d696e696d756d207374616b65000000000000604082015260600190565b601c81527f4974656d206d757374206e6f7420616c72656164792065786973742e00000000602082015260400190565b603481527f4f726967696e20616e642064657374696e6174696f6e2061646472657373206d6020820152606160020a733ab9ba103737ba103132903a34329039b0b6b29702604082015260600190565b60408082527f4974656d206d757374206e6f742063757272656e746c79206265206368616c6c60208301527f656e67656420746f206372656174652061206e6577206368616c6c656e67652e9082015260600190565b603881527f4368616c6c656e6765207374616b65206d75737420626520677265617465722060208201527f7468616e2063757272656e74206974656d207374616b652e0000000000000000604082015260600190565b601d81527f4974656d206d75737420657869737420666f72207472616e736665722e000000602082015260400190565b602a81527f546f6b656e73206d757374206265206465706f736974656420746f2074686973602082015260b160020a691031b7b73a3930b1ba1702604082015260600190565b604a81527f53656e646572206d7573742068617665206120746f6b656e2076616c7565206760208201527f726561746572207468616e206f7220657175616c20746f20746865206465706f604082015260b160020a6939b4ba103b30b63ab29702606082015260800190565b600f8152608a60020a6e125d195b481b5d5cdd08195e1a5cdd02602082015260400190565b602a81527f4368616c6c656e6765207374616b65206465706f736974206d75737420626520602082015260b260020a691cdd58d8d95cdcd99d5b02604082015260600190565b605881527f4174747269627574696f6e206f6620746f6b656e73206d757374206265206c6560208201527f7373207468616e2074686520756e617474726962757465642076616c7565206160408201527f737369676e656420746f207468697320636f6e74726163740000000000000000606082015260800190565b604481527f44657374696e6174696f6e2061646472657373206d757374206861766520646560208201527f706f73697465642061746c65617374207468652077697468647261776c207661604082015260e160020a63363ab29702606082015260800190565b601881527f566f7465204964206d757374206265206e6f6e2d7a65726f0000000000000000602082015260400190565b602781527f53656e646572206f662064656c657465206d757374206265206f776e6572206f602082015260c960020a66331034ba32b69702604082015260600190565b601d81527f4974656d206d75737420657869737420666f722064656c6574696f6e2e000000602082015260400190565b6033815260008051602061441b8339815191526020820152606960020a723a3930b739b332b91037bbb732b939b434b81702604082015260600190565b602281527f4174747269627574696f6e2076616c7565206d757374206265206e6f6e2d7a65602082015260f060020a61726f02604082015260600190565b603e81527f4f726967696e2061646472657373206d7573742068617665206465706f73697460208201527f65642061746c6561737420746865207472616e736665722076616c75652e0000604082015260600190565b80516000906060840190613cca8582613257565b5060208301518482036020860152613ce282826132c6565b9150506040830151613cf76040860182613df1565b509392505050565b805160e080845260009190840190613d1782826132c6565b9150506020830151613d2c6020860182613df1565b506040830151613d3f6040860182613df1565b506060830151613d526060860182613df1565b506080830151613d656080860182613df1565b5060a0830151613d7860a0860182613df1565b5060c0830151613cf760c0860182613df1565b8051608080845260009190840190613da382826132c6565b91505060208301518482036020860152613dbd8282613cb6565b91505060408301518482036040860152613dd78282613cb6565b91505060608301518482036060860152610b448282613cff565b61326081611017565b60208101610ce48284613257565b60608101613e168286613257565b613e236020830185613257565b6107276040830184613df1565b60a08101613e3e8288613257565b613e4b6020830187613257565b613e586040830186613df1565b613e656060830185613df1565b613e726080830184613df1565b9695505050505050565b60808101613e8a8287613257565b8181036020830152613e9c81866132c6565b90508181036040830152613eb08185613266565b9050610b446060830184613df1565b60a08101613ecd8288613257565b8181036020830152613edf81876132c6565b90508181036040830152613ef38186613266565b9050613e656060830185613df1565b60408101613f108285613257565b610ca96020830184613df1565b60608101613f2b8286613257565b613e236020830185613df1565b60208101610ce482846132bd565b60408101613f1082856132bd565b60208082528101610ca981846132c6565b60408082528101613f7681856132c6565b9050610ca96020830184613257565b60a08082528101613f9681886132c6565b9050613fa56020830187613257565b8181036040830152613fb781866132c6565b90508181036060830152613fcb8185613266565b9050613e726080830184613df1565b60c08082528101613feb81896132c6565b9050613ffa6020830188613257565b818103604083015261400c81876132c6565b905081810360608301526140208186613266565b905061402f6080830185613df1565b61403c60a0830184613df1565b979650505050505050565b6060808252810161405881866132c6565b9050613e236020830185613257565b6060808252810161407881866132c6565b90506140876020830185613df1565b6107276040830184613257565b60e080825281016140a5818a6132c6565b90506140b46020830189613df1565b6140c16040830188613df1565b6140ce6060830187613df1565b6140db6080830186613df1565b6140e860a0830185613df1565b6140f560c0830184613df1565b98975050505050505050565b604080825281016141118161337a565b90508181036020830152610ca981846132fb565b60208082528101610ce481613394565b60208082528101610ce4816133d3565b60208082528101610ce481613412565b60208082528101610ce48161345c565b60208082528101610ce48161349d565b60208082528101610ce4816134cd565b60208082528101610ce48161350a565b60208082528101610ce48161354f565b60208082528101610ce4816135b4565b60208082528101610ce4816135f5565b60208082528101610ce481613625565b60208082528101610ce481613665565b60208082528101610ce48161369b565b60208082528101610ce4816136e1565b60208082528101610ce481613720565b60208082528101610ce48161375e565b60208082528101610ce481613791565b60208082528101610ce4816137e7565b60208082528101610ce481613817565b60208082528101610ce481613867565b60208082528101610ce4816138bd565b60208082528101610ce481613913565b60208082528101610ce481613943565b60208082528101610ce481613989565b60208082528101610ce4816139f5565b60208082528101610ce481613a1a565b60208082528101610ce481613a60565b60208082528101610ce481613adc565b60208082528101610ce481613b42565b60208082528101610ce481613b72565b60208082528101610ce481613bb5565b60208082528101610ce481613be5565b60208082528101610ce481613c22565b60208082528101610ce481613c60565b60208082528101610ca98184613d8b565b60208101610ce48284613df1565b6040518181016001604060020a038111828210171561438257600080fd5b604052919050565b60006001604060020a038211156143a057600080fd5b506020601f91909101601f19160190565b60200190565b60009081526020902090565b5190565b600160a060020a031690565b151590565b82818337506000910152565b60005b838110156143ff5781810151838201526020016143e7565b8381111561252a5750506000910152565b601f01601f19169056004261736520636f6e7472616374206d757374207375636365737366756c6c7920a265627a7a7230582043aed8cd4256b0a9ccccf6e0329935b7877e4015b48d9bfe9e13cdf37b8d45c26c6578706572696d656e74616cf50037",
  "source": "pragma solidity ^0.4.23;\npragma experimental ABIEncoderV2;\n\nimport \"./StakableRegistry.sol\"; \nimport \"../interfaces/IVoteController.sol\";\nimport \"../interfaces/IVoteOrigin.sol\";\nimport \"../interfaces/IParameterSource.sol\";\n\ncontract ChallengeableRegistry is StakableRegistry, IVoteOrigin { \n    uint constant private SECONDS_IN_HOUR = (60 * 60);\n\n    struct VoteReference { \n        address voteContract;\n        uint voteId;\n        bool pendingCreation; \n    }\n\n    IVoteController.VoteConfiguration public voteConfiguration;\n    string public voteStyle;\n    IParameterSource internal parameters;\n\n    mapping(string => VoteReference) internal challenges;\n    \n    // TODO: Do we want this? \n    // mapping(string => Vote[]) private vote_history; \n\n    event VoteStarted(string key, address voteContract, uint voteId);\n    event VoteCompleted(string key, address voteContract, uint voteId);\n    event Debug(string step);\n\n    constructor(\n        address _parametersAddress,\n        uint256 _minStake,\n        string _style,\n        uint _challengePenalty,\n        uint _votePenalty,\n        uint _challengeLength,\n        uint _challengeDistribution,\n        uint256 _minVoteStake,\n        uint256 _minVoteIncrementalStake\n        ) public \n        StakableRegistry(_parametersAddress, _minStake) { \n        require(bytes(_style).length > 0, \"Vote style is set to non-zero length string\");\n        require(_challengePenalty <= 100, \"Challenge penalty must be less than or equal to 100%\");\n        require(_votePenalty <= 100, \"Voting penalty must be less than or equal to 100%\");\n        require(_challengeLength >= (SECONDS_IN_HOUR * 1), \"Challenge length must be atleast 1 hour.\");\n        require(_minVoteStake > 0, \"Minumum voting stake must be non zero.\");\n        require(_minVoteIncrementalStake > 0, \"Minumum voting incremental stake must be non zero.\");\n        require(_challengeDistribution <= 100, \"Challenge distribution must be less than 100%\");\n        \n        voteStyle = _style;\n        \n        voteConfiguration.style = _style;\n        voteConfiguration.challengePenalty = _challengePenalty;\n        voteConfiguration.votePenalty = _votePenalty;\n        voteConfiguration.challengeLength = _challengeLength; \n        voteConfiguration.challengeDistribution = _challengeDistribution;\n        voteConfiguration.minVoteStake = _minVoteStake;\n        voteConfiguration.minVoteIncrementalStake = _minVoteIncrementalStake;\n        \n        parameters = IParameterSource(_parametersAddress);\n    }\n\n    function getActiveVote(string _key) public view returns (address _voteContract, uint _voteId) { \n        return (challenges[_key].voteContract, challenges[_key].voteId);\n    }\n\n    function deleteItem(string _key) public returns (bool _success) { \n        // Can't delete an item whilst a vote is active\n        require(!isItemChallenged(_key), \"Item cannot be deleted whilst challenged.\");\n        return super.deleteItem(_key);\n    }\n\n    function challengeItem(string _key, string _newValue, uint256 _challengeStake) public returns (bool _success, uint _voteId) { \n        require(hasItem(_key), \"Item must exist\");\n        \n        // Can't challenge an item with an active vote\n        require(!isItemChallenged(_key), \"Item must not currently be challenged to create a new challenge.\");\n\n        // Can't chanllenge an item unless the stake is <= the challenge stake\n        require(getItemStake(_key) < _challengeStake, \"Challenge stake must be greater than current item stake.\");\n\n        // Ensure the challenger has enough tokens \n        require(_depositHere(_challengeStake), \"Challenge stake deposit must be successful\");\n\n        address voteAddress = parameters.getAddress(\"VOTE\", voteStyle);\n\n        require(voteAddress != address(0), \"Vote controller address must be set\");\n\n        IVoteController.VoteDescriptor memory descriptor = _createDescriptor(_key, msg.sender, _newValue, _challengeStake);\n\n        _moveFundsToVoteContract(descriptor, voteAddress);\n\n        challenges[_key].pendingCreation = true; \n        challenges[_key].voteContract = voteAddress;\n\n        IVoteController voteController = IVoteController(voteAddress);\n        \n        bool success = false;\n        uint voteId = 0;\n        (success, voteId) = voteController.beginVote(descriptor);\n\n        require(success, \"Vote must be be succesfully created\");\n        require(voteId > 0, \"Vote Id must be non-zero\");\n\n        challenges[_key].pendingCreation = false;\n        challenges[_key].voteId = voteId;\n\n        emit VoteStarted(_key, voteAddress, voteId);\n        return (true, voteId); \n    }\n\n    function _moveFundsToVoteContract(IVoteController.VoteDescriptor memory _descriptor, address voteAddress) private  {\n        // Transfer both the candidates stakes to the voting contract\n        uint256 totalInitialStake = _descriptor.incumbent.stake.add(_descriptor.challenger.stake);\n\n        _transferDeposit(_descriptor.incumbent.owner, voteAddress, _descriptor.incumbent.stake);\n        _transferDeposit(_descriptor.challenger.owner, voteAddress, _descriptor.challenger.stake);\n        _withdrawTo(voteAddress, totalInitialStake);\n    }\n\n    function _createDescriptor(string _key, address _challenger, string _newValue, uint256 _challengeStake) private view returns (IVoteController.VoteDescriptor memory _descriptor) { \n        address incumbentOwner;\n        string memory incumbentValue; \n        uint[] memory _bh;\n        uint _ts;\n        uint256 incumbentStake;\n        (incumbentOwner, incumbentValue, _bh, _ts, incumbentStake) = getItemWithStake(_key);\n\n        require(incumbentOwner != _challenger, \"Owner of item may not challenge themselves\");\n\n        IVoteController.VoteDescriptor memory descriptor; \n        descriptor.key = _key;\n \n        // Incumbent\n        descriptor.incumbent.owner = incumbentOwner;\n        descriptor.incumbent.value = incumbentValue;\n        descriptor.incumbent.stake = incumbentStake;\n\n        // Chanllenger\n        descriptor.challenger.owner = _challenger;\n        descriptor.challenger.value = _newValue;\n        descriptor.challenger.stake = _challengeStake;\n\n        descriptor.configuration = voteConfiguration;\n\n        return descriptor;\n    }\n\n    function isVotePending(string _key) public view returns (bool _isPending) { \n        return challenges[_key].pendingCreation && msg.sender == challenges[_key].voteContract;\n    }\n\n    function assignVoteOutcome(uint _voteId, string _key, address _winner, string _value, uint256 _stake) public returns (bool _success) { \n        if(challenges[_key].voteId != _voteId || challenges[_key].voteContract != msg.sender) { \n            return false; \n        }\n\n        if(!_attributeUnowned(_winner, _stake)) { \n            return false; \n        }\n\n        //_transferItem(_key, _winner, _value, _stake);\n\n        delete challenges[_key];\n\n        emit VoteCompleted(_key, challenges[_key].voteContract, challenges[_key].voteId);\n\n        return true;\n    }\n\n    function isItemChallenged(string _key) private view returns (bool _isChallenged) { \n        return challenges[_key].voteId != 0;\n    }\n}",
  "sourcePath": "/Users/iamwil/projects/freelance/entity_protocol/Contracts/packages/contracts/contracts/registry/ChallengeableRegistry.sol",
  "compiler": {
    "name": "solc",
    "version": "0.4.23+commit.124ca40d.Emscripten.clang"
  },
  "schemaVersion": "2.0.0",
  "updatedAt": "2018-05-22T23:46:40.245Z"
}