{
  "contractName": "Parameters",
  "abi": [
    {
      "constant": true,
      "inputs": [],
      "name": "owner",
      "outputs": [
        {
          "name": "",
          "type": "address"
        }
      ],
      "payable": false,
      "stateMutability": "view",
      "type": "function"
    },
    {
      "constant": false,
      "inputs": [
        {
          "name": "newOwner",
          "type": "address"
        }
      ],
      "name": "transferOwnership",
      "outputs": [],
      "payable": false,
      "stateMutability": "nonpayable",
      "type": "function"
    },
    {
      "anonymous": false,
      "inputs": [
        {
          "indexed": true,
          "name": "previousOwner",
          "type": "address"
        },
        {
          "indexed": true,
          "name": "newOwner",
          "type": "address"
        }
      ],
      "name": "OwnershipTransferred",
      "type": "event"
    },
    {
      "constant": true,
      "inputs": [
        {
          "name": "_class",
          "type": "string"
        },
        {
          "name": "_name",
          "type": "string"
        }
      ],
      "name": "getAddress",
      "outputs": [
        {
          "name": "",
          "type": "address"
        }
      ],
      "payable": false,
      "stateMutability": "view",
      "type": "function"
    },
    {
      "constant": true,
      "inputs": [
        {
          "name": "_class",
          "type": "string"
        },
        {
          "name": "_name",
          "type": "string"
        }
      ],
      "name": "getUInt",
      "outputs": [
        {
          "name": "",
          "type": "uint256"
        }
      ],
      "payable": false,
      "stateMutability": "view",
      "type": "function"
    },
    {
      "constant": true,
      "inputs": [
        {
          "name": "_class",
          "type": "string"
        },
        {
          "name": "_name",
          "type": "string"
        }
      ],
      "name": "getString",
      "outputs": [
        {
          "name": "",
          "type": "string"
        }
      ],
      "payable": false,
      "stateMutability": "view",
      "type": "function"
    },
    {
      "constant": false,
      "inputs": [
        {
          "name": "_class",
          "type": "string"
        },
        {
          "name": "_name",
          "type": "string"
        },
        {
          "name": "_value",
          "type": "address"
        }
      ],
      "name": "setAddress",
      "outputs": [
        {
          "name": "",
          "type": "bool"
        }
      ],
      "payable": false,
      "stateMutability": "nonpayable",
      "type": "function"
    },
    {
      "constant": false,
      "inputs": [
        {
          "name": "_class",
          "type": "string"
        },
        {
          "name": "_name",
          "type": "string"
        },
        {
          "name": "_value",
          "type": "uint256"
        }
      ],
      "name": "setUInt",
      "outputs": [
        {
          "name": "",
          "type": "bool"
        }
      ],
      "payable": false,
      "stateMutability": "nonpayable",
      "type": "function"
    },
    {
      "constant": false,
      "inputs": [
        {
          "name": "_class",
          "type": "string"
        },
        {
          "name": "_name",
          "type": "string"
        },
        {
          "name": "_value",
          "type": "string"
        }
      ],
      "name": "setString",
      "outputs": [
        {
          "name": "",
          "type": "bool"
        }
      ],
      "payable": false,
      "stateMutability": "nonpayable",
      "type": "function"
    }
  ],
  "bytecode": "0x608060405260008054600160a060020a033316600160a060020a0319909116179055610c60806100306000396000f3006080604052600436106100745763ffffffff60e060020a6000350416633f7690ca8114610079578063791b6d60146101855780638da5cb5b14610238578063abd35e8a1461024d578063d1217397146102f6578063d39b9b3b146103df578063d4c8e97c14610478578063f2fde38b1461051a575b600080fd5b34801561008557600080fd5b506040805160206004803580820135601f810184900484028501840190955284845261011094369492936024939284019190819084018382808284375050604080516020601f89358b018035918201839004830284018301909452808352979a99988101979196509182019450925082915084018382808284375094975061053d9650505050505050565b6040805160208082528351818301528351919283929083019185019080838360005b8381101561014a578181015183820152602001610132565b50505050905090810190601f1680156101775780820380516001836020036101000a031916815260200191505b509250505060405180910390f35b34801561019157600080fd5b506040805160206004803580820135601f810184900484028501840190955284845261021c94369492936024939284019190819084018382808284375050604080516020601f89358b018035918201839004830284018301909452808352979a99988101979196509182019450925082915084018382808284375094975061068e9650505050505050565b60408051600160a060020a039092168252519081900360200190f35b34801561024457600080fd5b5061021c61075c565b34801561025957600080fd5b506040805160206004803580820135601f81018490048402850184019095528484526102e494369492936024939284019190819084018382808284375050604080516020601f89358b018035918201839004830284018301909452808352979a99988101979196509182019450925082915084018382808284375094975061076b9650505050505050565b60408051918252519081900360200190f35b34801561030257600080fd5b506040805160206004803580820135601f81018490048402850184019095528484526103cb94369492936024939284019190819084018382808284375050604080516020601f89358b018035918201839004830284018301909452808352979a99988101979196509182019450925082915084018382808284375050604080516020601f89358b018035918201839004830284018301909452808352979a9998810197919650918201945092508291508401838280828437509497506108309650505050505050565b604080519115158252519081900360200190f35b3480156103eb57600080fd5b506040805160206004803580820135601f81018490048402850184019095528484526103cb94369492936024939284019190819084018382808284375050604080516020601f89358b018035918201839004830284018301909452808352979a99988101979196509182019450925082915084018382808284375094975050933594506109279350505050565b34801561048457600080fd5b506040805160206004803580820135601f81018490048402850184019095528484526103cb94369492936024939284019190819084018382808284375050604080516020601f89358b018035918201839004830284018301909452808352979a99988101979196509182019450925082915084018382808284375094975050509235600160a060020a03169350610a0d92505050565b34801561052657600080fd5b5061053b600160a060020a0360043516610b0e565b005b60606003836040518082805190602001908083835b602083106105715780518252601f199092019160209182019101610552565b51815160209384036101000a6000190180199092169116179052920194855250604051938490038101842086519094879450925082918401908083835b602083106105cd5780518252601f1990920191602091820191016105ae565b518151600019602094850361010090810a820192831692199390931691909117909252949092019687526040805197889003820188208054601f60026001831615909802909501169590950492830182900482028801820190528187529294509250508301828280156106815780601f1061065657610100808354040283529160200191610681565b820191906000526020600020905b81548152906001019060200180831161066457829003601f168201915b5050505050905092915050565b60006001836040518082805190602001908083835b602083106106c25780518252601f1990920191602091820191016106a3565b51815160209384036101000a6000190180199092169116179052920194855250604051938490038101842086519094879450925082918401908083835b6020831061071e5780518252601f1990920191602091820191016106ff565b51815160209384036101000a6000190180199092169116179052920194855250604051938490030190922054600160a060020a031695945050505050565b600054600160a060020a031681565b60006002836040518082805190602001908083835b6020831061079f5780518252601f199092019160209182019101610780565b51815160209384036101000a6000190180199092169116179052920194855250604051938490038101842086519094879450925082918401908083835b602083106107fb5780518252601f1990920191602091820191016107dc565b51815160209384036101000a600019018019909216911617905292019485525060405193849003019092205495945050505050565b6000805433600160a060020a0390811691161461084c57600080fd5b816003856040518082805190602001908083835b6020831061087f5780518252601f199092019160209182019101610860565b51815160209384036101000a6000190180199092169116179052920194855250604051938490038101842088519094899450925082918401908083835b602083106108db5780518252601f1990920191602091820191016108bc565b51815160209384036101000a6000190180199092169116179052920194855250604051938490038101909320845161091c9591949190910192509050610b99565b506001949350505050565b6000805433600160a060020a0390811691161461094357600080fd5b816002856040518082805190602001908083835b602083106109765780518252601f199092019160209182019101610957565b51815160209384036101000a6000190180199092169116179052920194855250604051938490038101842088519094899450925082918401908083835b602083106109d25780518252601f1990920191602091820191016109b3565b51815160209384036101000a600019018019909216911617905292019485525060405193849003019092209290925550600195945050505050565b6000805433600160a060020a03908116911614610a2957600080fd5b816001856040518082805190602001908083835b60208310610a5c5780518252601f199092019160209182019101610a3d565b51815160209384036101000a6000190180199092169116179052920194855250604051938490038101842088519094899450925082918401908083835b60208310610ab85780518252601f199092019160209182019101610a99565b51815160209384036101000a600019018019909216911617905292019485525060405193849003019092208054600160a060020a031916600160a060020a03949094169390931790925550600195945050505050565b60005433600160a060020a03908116911614610b2957600080fd5b600160a060020a0381161515610b3e57600080fd5b60008054604051600160a060020a03808516939216917f8be0079c531659141344cd1fd0a4f28419497f9722a3daafe3b4186f6b6457e091a360008054600160a060020a031916600160a060020a0392909216919091179055565b828054600181600116156101000203166002900490600052602060002090601f016020900481019282601f10610bda57805160ff1916838001178555610c07565b82800160010185558215610c07579182015b82811115610c07578251825591602001919060010190610bec565b50610c13929150610c17565b5090565b610c3191905b80821115610c135760008155600101610c1d565b905600a165627a7a723058201e1ed4796645ee8e2ad60a5d5abd9410d396f7d192170661cedf73acf7f4dde10029",
  "source": "pragma solidity ^0.4.23;\n      \nimport \"./interfaces/IParameterSource.sol\";\nimport \"zeppelin-solidity/contracts/ownership/Ownable.sol\";\n       \n     \n// TODO: Consider multiple ownership or hertiable\ncontract Parameters is Ownable, IParameterSource { \n    \n    mapping(string => mapping(string => address)) private addresses;\n    mapping(string => mapping(string => uint256)) private uints;\n    mapping(string => mapping(string => string)) private strings;\n\n    function getAddress(string _class, string _name) public view returns (address) { \n        return addresses[_class][_name];\n    } \n\n    function getUInt(string _class, string _name) public view returns (uint256) { \n        return uints[_class][_name];\n    }\n\n    function getString(string _class, string _name) public view returns (string) { \n        return strings[_class][_name];\n    }\n\n    function setAddress(string _class, string _name, address _value) public onlyOwner returns (bool) { \n        addresses[_class][_name] = _value;\n        return true;\n    }\n    \n    function setUInt(string _class, string _name, uint256 _value) public onlyOwner returns (bool) { \n        uints[_class][_name] = _value;\n        return true;\n    }\n    \n    function setString(string _class, string _name, string _value) public onlyOwner returns (bool) { \n        strings[_class][_name] = _value;\n        return true;\n    }\n}",
  "sourcePath": "/Users/iamwil/projects/freelance/entity_protocol/Contracts/packages/contracts/contracts/Parameters.sol",
  "compiler": {
    "name": "solc",
    "version": "0.4.23+commit.124ca40d.Emscripten.clang"
  },
  "schemaVersion": "2.0.0",
  "updatedAt": "2018-05-22T18:07:10.557Z"
}